:020000040800F2
:10000000580F0020890100085D2C000845290008D0
:10001000112C0008710400088D3400080000000055
:10002000000000000000000000000000C52F0008D4
:10003000B104000800000000612C0008C92F00086E
:10004000A3010008A3010008A3010008E92D00088E
:10005000A3010008A3010008B3040008A3010008DD
:10006000A3010008A3010008A3010008750400080B
:10007000A3010008A3010008A3010008A3010008D0
:10008000A3010008A3010008F5020008A30100086D
:10009000A3010008A3010008A3010008A3010008B0
:1000A000A3010008A3010008A3010008A3010008A0
:1000B000A3010008A3010008A3010008A301000890
:1000C000A3010008A3010008A3010008A301000880
:1000D000A30100087D340008A3010008A301000863
:1000E000A3010008A3010008A301000800F002F822
:1000F00000F03AF80AA090E8000C82448344AAF188
:100100000107DA4501D100F02FF8AFF2090EBAE885
:100110000F0013F0010F18BFFB1A43F0010318473B
:10012000D03B0000F03B0000103A24BF78C878C1F3
:10013000FAD8520724BF30C830C144BF04680C60ED
:10014000704700000023002400250026103A28BF35
:1001500078C1FBD8520728BF30C148BF0B60704739
:100160001FB51FBD10B510BD00F08AF81146FFF78E
:10017000F7FF03F04BFA00F0A8F803B4FFF7F2FF23
:1001800003BC00F0AFF80000094880470948004769
:10019000FEE7FEE7FEE7FEE7FEE7FEE7FEE7FEE737
:1001A000FEE7FEE704480549054A064B7047000094
:1001B000B7300008ED00000858090020580F002053
:1001C000580B0020580B002010B5203AC0F00B80CF
:1001D000B1E81850203AA0E81850B1E81850A0E84B
:1001E0001850BFF4F5AF5FEA027C24BFB1E81850A5
:1001F000A0E8185044BF18C918C0BDE810405FEA15
:10020000827C24BF51F8043B40F8043B08BF704790
:10021000D20728BF31F8023B48BF11F8012B28BF95
:1002200020F8023B48BF00F8012B70474FF0000256
:1002300000B5134694469646203922BFA0E80C50DC
:10024000A0E80C50B1F12001BFF4F7AF090728BFB7
:10025000A0E80C5048BF0CC05DF804EB890028BF33
:1002600040F8042B08BF704748BF20F8022B11F05C
:10027000804F18BF00F8012B7047704770477047D8
:10028000754600F02BF8AE4605006946534620F04F
:100290000700854618B020B5FFF784FFBDE8204071
:1002A0004FF000064FF000074FF000084FF0000B32
:1002B00021F00701AC46ACE8C009ACE8C009ACE8E5
:1002C000C009ACE8C0098D46704710B50446AFF3CD
:1002D00000802046BDE81040FFF74FBF0048704740
:1002E000F408002001491820ABBEFEE726000200FA
:1002F0007047000010B5024800F097F910BD0000EB
:100300002408002070B5044600252068806800F0AD
:10031000010018B32068806820F00100216888601F
:1003200001F014F8054613E001F010F8401B022814
:100330000ED92068806800F0010048B1A06A40F042
:100340001000A062E06A40F00100E062012070BD90
:100350002068806800F001000028E5D10020F6E761
:1003600070B505466C6AA06A00F05000E0B9A06A5A
:1003700040F40070A0622068806800F46020B0F54E
:10038000602F0DD1207B58B9A06A20F48070A06244
:10039000A06A00F4805018B9A06A40F00100A06281
:1003A000204600F03FF903E0206A016B28468847A9
:1003B00070BD70B505466C6AA06A40F04000A0624E
:1003C000E06A40F00400E062204600F02DF970BDC4
:1003D00070B50446656A284600F025F970BD000036
:1003E00038B504460025002000902068806800F0A1
:1003F000010078BB2068806840F0010021688860B7
:10040000194800681949B0FBF1F0009002E000982B
:10041000401E009000980028F9D100F097FF054693
:1004200019E000F093FF401B022814D9206880686F
:1004300000F0010078B9A06A40F01000A062E06A04
:1004400040F00100E06200BF002084F8240000BFFB
:10045000012038BD05E02068806800F00100002818
:10046000DFD00020F5E700005800002040420F00D8
:1004700000BFFEE710B5024800F0A8FB10BD000069
:100480005408002030B590F840500124AC40C56BB2
:100490006C60046863604468102C04D10468A26036
:1004A0000468E16003E00468A1600468E26030BDB4
:1004B000704710B5012000F0A5FD10BD72B600BF59
:1004C000FEE7704738B5024600230020009000BFC9
:1004D00092F82400012801D1022038BD012082F8C1
:1004E000240000BF4868072812D21068406B0C79BE
:1004F000641E04EB84051F24AC40A0430D796D1EDF
:1005000005EB85050C68AC4020431468606327E068
:1005100048680D2812D21068006B0C79E41F04EBB8
:1005200084051F24AC40A0430D79ED1F05EB850524
:100530000C68AC4020431468206311E01068C06A66
:100540000C790D3C04EB84051F24AC40A0430D79CD
:100550000D3D05EB85050C68AC4020431468E06256
:1005600008680A2812D31068C0680C780A3C04EBAB
:1005700044050724AC40A0430D780A3D05EB450532
:100580008C68AC4020431468E0600FE0106800699C
:100590000C7804EB44050724AC40A0430D7805EB30
:1005A00045058C68AC402043146820610868102819
:1005B00002D00868112827D1174C1068A0421ED11C
:1005C0001068806800F40000F0B91068806840F49A
:1005D00000001468A0600868102815D10F48006852
:1005E0000F4CB0FBF4F000EB80004000009002E004
:1005F0000098401E009000980028F9D104E0906A0D
:1006000040F020009062012300BF002082F8240007
:1006100000BF184661E70000002401405800002098
:1006200040420F0070477047704770B5044620681D
:1006300005682068466806F0200020282DD105F0C6
:100640000200022829D1A06A00F0100018B9A06A9F
:1006500040F40070A0622068806800F46020B0F56B
:10066000602F13D1207B88B92068406820F02000DB
:1006700021684860A06A20F48070A062A06A00F43B
:10068000805018B9A06A40F00100A0622046FFF730
:10069000C9FF6FF012002168086006F08000802812
:1006A00039D105F00400042835D1A06A00F010000B
:1006B00018B9A06A40F40050A0622068806800F475
:1006C000E040B0F5E04F0DD02068406800F4806055
:1006D000D0B92068806800F46020B0F5602F13D195
:1006E000207B88B92068406820F08000216848603D
:1006F000A06A20F48050A062A06A00F4807018B94B
:10070000A06A40F00100A0622046FFF7DAFE6FF019
:100710000C002168086006F0400040280DD105F06B
:10072000010050B1A06A40F48030A062204600F081
:10073000A7F86FF001002168086070BD2DE9F04155
:100740000446002700250026A84614B90120BDE86C
:10075000F081A06810B1207D00B100BFA06A30B95F
:100760000020E06284F82400204600F08BF8204648
:10077000FFF7C8FD0746A06A00F01000002873D1FB
:10078000002F71D1A06A20F4885040F00200A062CE
:10079000E16960680843217B40EA41000643A068A4
:1007A000B0F5807F02D0A068012802D14FF480709C
:1007B00000E000200543207D012811D1207B38B9BD
:1007C000A069401E4FF4006141EA4030054307E054
:1007D000A06A40F02000A062E06A40F00100E06200
:1007E0002068406820F469402843216848602068F8
:1007F000806821490840304321688860A068B0F5CE
:10080000807F02D0A068012802D14FF4807000E000
:100810000020B0F5807F03D1208A401E4FEA0058A7
:100820002068C06A20F4700040EA08002168C862AD
:100830002068806811490840B04208D10020E06279
:10084000A06A20F0020040F00100A06211E0A06A5E
:1008500020F0020040F01000A062E06A40F00100C9
:10086000E062012705E0FFE7A06A40F01000A06207
:10087000012738466BE70000FDF7E1FFFE0E1FFF82
:100880007047000010B586B0044600200290039027
:100890000490059026492068884246D100BF25482B
:1008A000806940F40070234988610846806900F43B
:1008B0000070019000BF00BF00BF0846806940F093
:1008C000040088610846806900F00400019000BFC0
:1008D00000BF382002900320039002A9164800F0C0
:1008E0009FFB164816490860002048600021144804
:1008F00081608021C16089000161890041612021FE
:100900008161C901C16100F02FFA08B1FFF7D6FD7E
:1009100000BF0B482062446200BF00220221122067
:1009200000F09AFD122000F087FD06B010BD000017
:10093000002401400010024000080140080002406D
:10094000540800202DE9F04104460D4616460027C4
:1009500057492068884203D056492068884205D10B
:100960005348001D006800F4702000E000200028BB
:100970007ED100BF94F82400012802D10220BDE8F6
:10098000F081012084F8240000BF2046FFF728FDF5
:100990000746002F6DD1A06A40F60161884340F4FC
:1009A0008070A06243492068884209D14048001DF8
:1009B000006800F4702008B9012002E0002000E087
:1009C000012078B1A06A20F48010A06220684068FD
:1009D00000F4806000B3A06A20F4005040F480501E
:1009E000A06219E0A06A40F48010A062304920683B
:1009F000884203D02F492068884205D12C48001D29
:100A0000006800F4806000E0002028B1A06A20F4B3
:100A1000005040F48050A062A06A00F4805020B1E1
:100A2000E06A20F00600E06201E00020E06200BF22
:100A3000002084F8240000BF1F48216A88621F48F4
:100A4000216AC8621E48216A08636FF002002168AB
:100A500008602068806840F480702168886022689F
:100A600002F14C0133462A46206A00F0B1F901E058
:100A70001AE014E02068806800F46020B0F5602F70
:100A800006D12068806840F4A000216888600CE0EE
:100A90002068806840F480102168886005E000BF0D
:100AA000002084F8240000E00127384667E70000B2
:100AB000002401400028014061030008D103000820
:100AC000B30300080146002291F82100022808D053
:100AD0000420886300BF002081F8200000BF0120AF
:100AE00070470868006820F00E000B6818600868FE
:100AF000006820F001000B68186091F84030012078
:100B00009840CB6B5860012081F8210000BF002085
:100B100081F8200000BF1046E2E7000070B50446EF
:100B2000002594F82100022803D00420A0630125A9
:100B300048E02068006820F00E0021680860206806
:100B4000006820F00100216808601F492068884281
:100B500001D1012026E01C4914312068884201D1CE
:100B600010201FE0184928312068884201D18015E3
:100B700018E015493C312068884201D1801411E009
:100B8000114950312068884202D14FF4803009E089
:100B90000D4964312068884202D14FF4801001E091
:100BA0004FF08070084908394860012084F821001E
:100BB00000BF002084F8200000BF606B10B1204609
:100BC000616B8847284670BD0800024070B5044636
:100BD000E06B05682068066894F84010042088409F
:100BE0002840002846D006F00400002842D02068A3
:100BF000006800F0200028B92068006820F0040098
:100C00002168086057492068884201D1042027E004
:100C1000544914312068884201D1402020E05149D4
:100C200028312068884201D1001519E04D493C3136
:100C30002068884202D14FF4804011E04949503188
:100C40002068884202D14FF4802009E04549643190
:100C50002068884202D14FF4800001E04FF08060AC
:100C6000404908394860E06A00287AD02046E16AA5
:100C7000884776E094F84010022088402840A0B3CE
:100C800006F0020088B32068006800F0200040B938
:100C90002068006820F00A0021680860012084F8BC
:100CA000210030492068884201D1022028E02D49E6
:100CB00014312068884201D1202021E029492831BF
:100CC0002068884201D140151AE026493C3120684D
:100CD000884202D14FF4005012E02249503120687E
:100CE000884203D14FF400300AE017E01D49643117
:100CF0002068884202D14FF4001001E04FF00070EC
:100D000018490839486000BF002084F8200000BF5F
:100D1000A06A30B32046A16A884722E094F84010C8
:100D2000082088402840E0B106F00800C8B12068DB
:100D3000006820F00E002168086094F8401001203F
:100D40008840E16B48600120A06384F8210000BF67
:100D5000002084F8200000BF206B10B12046216BDA
:100D6000884770BD080002400146002209B90120F1
:100D70007047164B0868C01A1423B0FBF3F08000CC
:100D8000086412480838C863022081F82100086806
:100D9000026843F6F0708243D1E901031843CB683F
:100DA00018430B6918434B6918438B691843CB6987
:100DB000184302430868026000208863012081F81C
:100DC0002100002081F8200000BFD1E70800024088
:100DD0002DE9F04104460D4616461F464FF0000827
:100DE00000BF94F82000012802D10220BDE8F08164
:100DF000012084F8200000BF94F8210001282CD1A4
:100E0000022084F821000020A0632068006820F000
:100E10000100216808603B46324629462046FFF71C
:100E200031FBE06A30B12068006840F00E002168B4
:100E300008600BE02068006820F00400216808606A
:100E40002068006840F00A00216808602068006897
:100E500040F001002168086006E000BF002084F82F
:100E6000200000BF4FF002084046BFE72DE9F84FD1
:100E700081465A480078012812D100F079FA02F030
:100E8000D3F801F0C1FD01F0A5FD01F05DFD01F019
:100E9000A3FE01F067FE01F08FFA012050490870AF
:100EA00000F054FA04464F490968601A32286FD995
:100EB0004D48C0F8009003224C494D48FFF742FDD1
:100EC00000BF4C48006800F002000028F9D0022062
:100ED0004849486048484089401C47494881434840
:100EE000016845484089401E00EB400242481030EE
:100EF00040F822103D4841683F484089401E00EBC1
:100F000040023D48103000EB8200416002F040FB9F
:100F100039494989491E01EB41023749103101EB3A
:100F20008201886034484089B0F57A7F02DD012073
:100F3000314948812D48D0F808A0504602F044FEBF
:100F40002E49009002F07EFD834602F04FFD0746D9
:100F500000222B4B02F04CFC054602F01BFC2649FC
:100F600008814FF05A30086002F012FB22494860B5
:100F70000020C86008460068496808441E4909897D
:100F800008441D49498908441B49C86000201BE0EA
:100F900022E000EB40021849103151F8222000EB0A
:100FA000400301EB830149680A4400EB4003124906
:100FB000103101EB8301896811440F4AD268114452
:100FC0000D4AD160411C88B20B4949898142E0DC5D
:100FD000094802F08BFB00BFBDE8F88F44000020F9
:100FE000450000204C00002014040140580200205D
:100FF00024080020000002406403002000F07F4528
:101000000000594010B5044604480068204020B153
:10101000024804602046FFF729FF10BD1404014078
:101020002DE9F8470346002294466EE14FF001088F
:1010300008FA02F4D1F8008008EA0400A0427DD149
:10104000DFF8DCA2D1F80480A8EB0A09D0453AD039
:1010500014DCB8F1030F50D009DCB8F1000F31D027
:10106000B8F1010F1CD0B8F1020F49D120E0B8F15E
:10107000110F18D0B8F1120F42D11EE0B9F5881F38
:1010800025D006DCB9F5803F20D0B9F5801F37D1D7
:101090001AE0B9F5001F18D0B9F5041F30D117E0D8
:1010A000D1F80CC02DE0D1F80C8008F1040C28E038
:1010B000D1F80C8008F1080C23E0D1F80C8008F17D
:1010C0000C0C1EE000BF00BF00BF00BF00BF00BF90
:1010D000D1F80880B8F1000F02D14FF0040C0BE0FA
:1010E000D1F80880B8F1010F03D14FF0080C1C6152
:1010F00002E04FF0080C5C6103E04FF0000C00E0F0
:1011000000BF00BFFF2801D8984601E003F10408A2
:101110004646FF2802D84FEA820803E0A2F10808F9
:101120004FEA88084746D6F800804FF00F0909FAC1
:1011300007F928EA09080CFA07F900E088E048EA0C
:101140000908C6F80080D1F8048008F08058B8F18A
:10115000805F7DD100BFDFF8CC81D8F8188048F0DF
:101160000108DFF8C091C9F81880C846D8F818807F
:1011700008F00108CDF8008000BF00BF4FEAB93881
:101180004FEA920958F829504FEA82784FEA1879C5
:101190004FF00F0808FA09F825EA0805DFF88881FA
:1011A000434502D14FF0000816E0DFF88081434547
:1011B00002D14FF001080FE0DFF87481434502D1FE
:1011C0004FF0020808E0DFF86C81434502D14FF090
:1011D000030801E04FF004084FEA82794FEA1979D9
:1011E00008FA09F848EA0505DFF84C814FEA920948
:1011F00048F82950D1F8048008F48018B8F5801F09
:101200000AD1DFF83881D8F8008048EA0008DFF812
:101210002C91C9F8008009E0DFF82081D8F800801F
:1012200028EA0008DFF81491C9F80080D1F804809A
:1012300008F40018B8F5001F10D1DFF8008108F19C
:101240000408D8F8008048EA0008DFF8F09000E0D1
:101250005AE009F10409C9F800800DE0DFF8DC80EC
:1012600008F10408D8F8008028EA0008DFF8CC90DC
:1012700009F10409C9F80080D1F8048008F40038A5
:10128000B8F5003F0ED1DFF8B480A8F10408D8F813
:10129000008048EA0008DFF8A490A9F10409C9F821
:1012A00000800DE0DFF89480A8F10408D8F80080F1
:1012B00028EA0008DFF88490A9F10409C9F8008041
:1012C000D1F8048008F48038B8F5803F0ED1DFF8FB
:1012D0006C80A8F10808D8F8008048EA0008DFF818
:1012E0005C90A9F10809C9F800800DE0DFF84C8096
:1012F000A8F10808D8F8008028EA0008DFF83C9038
:10130000A9F10809C9F80080521CD1F8008028FA18
:1013100002F8B8F1000F7FF489AEBDE8F88700004D
:10132000000011100010024000080140000C0140B4
:101330000010014000140140080001400804014071
:101340000AB1016101E00B040361704701480068C4
:10135000704700005C0000200348006803490978DA
:1013600008440149086070475C00002064000020C8
:1013700010B50848006840F01000064908600320D6
:1013800000F0A8F8002000F007F800F02BF800208B
:1013900010BD00000020024070B504460E480078E1
:1013A0004FF47A71B1FBF0F00C490968B1FBF0F52C
:1013B000284601F00AF808B1012070BD102C07D2B0
:1013C00000222146501E00F047F80548046001E065
:1013D0000120F2E70020F0E7640000205800002020
:1013E0006000002008B500BF1148806940F001008E
:1013F0000F4988610846806900F00100009000BF35
:1014000000BF00BF0846C06940F08050C861084670
:10141000C06900F08050009000BF00BF00BF0549C8
:10142000486820F0E06040F00070486000BF08BDF0
:10143000001002400000014001460846002809DB78
:1014400000F01F0301229A4043099B0003F1E023AF
:10145000C3F8002100BF70472DE9F05F80460D46BC
:101460001646002702F014F8074639462A46334646
:1014700001F00700C0F1070ABAF1040F02D94FF0DA
:10148000040A01E0C0F1070AD14600F1040ABAF1EA
:10149000070F02D24FF0000A01E0A0F1030AD44680
:1014A0004FF0010A0AFA09FAAAF1010A0AEA020A45
:1014B0000AFA0CFA4FF0010B0BFA0CFBABF1010B23
:1014C0000BEA030B4AEA0B042146404601F0E8FF11
:1014D000BDE8F09F00BF00F00702064B19684FF609
:1014E000FF031940044B0B4343EA0221014B1960EF
:1014F00000BF70470CED00E00000FA050120014933
:101500000862704700000E422DE9F04706464FF092
:101510000008002500270024A146012E31D0022E0C
:1015200056D0102E5FD132484468006800F08070B9
:1015300008B33048C4F38341475C04F4803078B189
:101540002B484068C0F340402B4911F8008004F458
:10155000803040B12948B0FBF8F000FB07F502E00D
:10156000274807FB00F52248406800F48000B0F5EA
:10157000800F01D1A94603E068000321B0FBF1F917
:1015800032E01B48046A04F44070B0F5807F05D156
:1015900004F0020010B14FF4004918E004F4407068
:1015A000B0F5007F07D11248406A00F0020010B188
:1015B00049F640490BE004F44070B0F5407F06D195
:1015C0000B48006800F4003008B14FF224490BE0EA
:1015D00000F08CF906494968C1F38131491C490082
:1015E000B0FBF1F900E000BF00BF4846BDE8F0875E
:1015F00000100240DE3C0008EE3C000800127A00B9
:1016000000093D00F8B5044600260025207800F0CA
:10161000010000286BD000274348C06900F08050CB
:1016200070B900BF4048C06940F080503E49C86171
:101630000846C06900F08050009000BF00BF01273D
:101640003A48006800F48070B0B93848006840F447
:10165000807036490860FFF779FE064606E0FFF71E
:1016600075FE801B642801D90320F8BD2F4800684F
:1016700000F480700028F2D02B48006A00F4407516
:101680002DB3A08800F44070A84220D02648006AFC
:1016900020F4407501202649086000200860224897
:1016A000056205F0010090B1FFF750FE064608E024
:1016B000FFF74CFE801B41F28831884201D903209C
:1016C000D3E71948006A00F002000028F0D016485D
:1016D000006A20F440706168084313490862012FD2
:1016E00004D10846C06920F08050C86100BF20784E
:1016F00000F00200022807D10B48406820F4404067
:10170000A168084308494860207800F010001028BC
:1017100007D10548406820F48000E1680843024989
:1017200048600020A1E70000001002400070004067
:101730004004424270B504460D460CB9012070BD0C
:101740005A48006800F00700A8420ED257480068C7
:1017500020F007002843554908600846006800F05B
:101760000700A84201D00120E9E7207800F002003C
:1017700002281DD1207800F00400042805D14C482F
:10178000406840F4E0604A494860207800F0080072
:10179000082805D14648406840F4605044494860F4
:1017A0004348406820F0F000A16808434049486081
:1017B000207800F0010078B36068012806D13C4829
:1017C000006800F4003090B90120B8E76068022892
:1017D00006D13748006800F0007040B90120AEE73C
:1017E0003348006800F0020008B90120A7E730483C
:1017F000406820F00300616808432D494860FFF706
:10180000A5FD064609E0FFF7A1FD801B41F28831E6
:10181000884202D9032092E707E02548406800F09B
:101820000C006168B0EB810FEDD12048006800F03A
:101830000700A8420ED91D48006820F00700284381
:101840001A4908600846006800F00700A84201D065
:10185000012074E7207800F00400042807D1144820
:10186000406820F4E060E16808431149486020784E
:1018700000F00800082808D10D48406820F46050A6
:10188000216940EAC1000A49486000F03FF8084970
:101890004968C1F30311074A515CC8400649086012
:1018A00006480068FFF778FD002048E70020024066
:1018B00000100240B43C00085800002060000020E6
:1018C00001480068704700005800002000B5FFF78D
:1018D000F7FF04494968C1F30221034A515CC8403B
:1018E00000BD000000100240C43C000800B5FFF736
:1018F000E7FF04494968C1F3C221034A515CC8406B
:1019000000BD000000100240C43C000870B500217A
:101910000022002400230020134D696801F00C050B
:10192000F5B1042D02D0082D19D101E00F4819E0BE
:101930000F4DC1F38346AB5D01F4803555B10A4DBF
:101940006D68C5F340450B4E725D084D5D43B5FBB8
:10195000F2F402E0084D03FB05F4204602E000BF6C
:10196000024800BF00BF70BD0010024000127A00A4
:10197000CC3C0008DC3C000800093D00F8B50446FA
:101980000CB90120F8BD207800F00100002878D0C3
:10199000F848406800F00C0004280CD0F548406876
:1019A00000F00C00082811D1F248406800F48030A3
:1019B000B0F5803F0AD1EF48006800F400300028FD
:1019C0005FD0606800285CD10120DBE700BF606861
:1019D000B0F5803F06D1E748006840F48030E54923
:1019E000086028E0606858B9E248006820F4803058
:1019F000E04908600846006820F4802008601AE08A
:101A00006068B0F5A02F0BD1DA48006840F4802060
:101A1000D84908600846006840F4803008600AE051
:101A2000D448006820F48030D24908600846006835
:101A300020F48020086000BF606888B1FFF786FC52
:101A4000054606E0FFF782FC401B642801D903200D
:101A500098E7C848006800F400300028F2D010E091
:101A6000FFF774FC054606E0FFF770FC401B642896
:101A700001D9032086E7BF48006800F40030002841
:101A8000F2D1207800F00200022857D1B94840680E
:101A900000F00C0050B1B748406800F00C00082876
:101AA00018D1B448406800F4803098B9B148006853
:101AB00000F0020020B12069012801D0012061E777
:101AC000AC48006820F0F800616940EAC100A9490B
:101AD000086033E02069E8B10120A7490860FFF7FA
:101AE00035FC054606E0FFF731FC401B022801D912
:101AF000032047E79F48006800F002000028F2D06A
:101B00009C48006820F0F800616940EAC1009949EA
:101B1000086013E0002098490860FFF717FC0546AD
:101B200006E0FFF713FC401B022801D9032029E738
:101B30009048006800F002000028F2D1207800F000
:101B4000080008282DD1A069B8B101208B49086090
:101B5000FFF7FCFB054606E0FFF7F8FB401B0228F9
:101B600001D903200EE78348406A00F002000028F4
:101B7000F2D0012001F076F813E000207F490860E0
:101B8000FFF7E4FB054606E0FFF7E0FB401B0228F9
:101B900001D90320F6E67748406A00F002000028E9
:101BA000F2D1207800F00400042873D10027714896
:101BB000C06900F0805070B900BF6E48C06940F045
:101BC00080506C49C8610846C06900F080500090A0
:101BD00000BF00BF01276A48006800F48070B0B9F8
:101BE0006748006840F4807065490860FFF7AEFB05
:101BF000054606E0FFF7AAFB401B642801D9032035
:101C0000C0E65F48006800F480700028F2D000BF92
:101C1000E068012806D15748006A40F001005549A4
:101C2000086227E0E06858B95248006A20F00100D5
:101C3000504908620846006A20F00400086219E072
:101C4000E06805280BD14B48006A40F00400494980
:101C500008620846006A40F0010008620AE0454850
:101C6000006A20F00100434908620846006A20F03B
:101C70000400086200BFE068A0B1FFF767FB0546FB
:101C800009E0FFF763FB401B41F28831884202D92B
:101C9000032077E622E03748006A00F002000028BF
:101CA000EFD012E0FFF752FB054608E0FFF74EFBCE
:101CB000401B41F28831884201D9032062E62D4859
:101CC000006A00F002000028F0D1012F05D1294858
:101CD000C06920F080502749C86100BFE069C8B3DF
:101CE0002448406800F00C00082860D0E069022811
:101CF00048D1002020490866FFF728FB054606E08A
:101D0000FFF724FB401B022801D903203AE61948BB
:101D1000006800F000700028F2D1206AB0F5803F22
:101D200007D11448406820F40030A16808431149E5
:101D30004860D4E9080108430E49496821F4741148
:101D400008430C49486001200B490866FFF7FEFA7A
:101D5000054607E03DE0FFF7F9FA401B022801D9EC
:101D600003200FE60348006800F000700028F2D05E
:101D70002FE0000000100240000042428004424276
:101D800000700040002014490866FFF7DFFA05469E
:101D900006E0FFF7DBFA401B022801D90320F1E53A
:101DA0000E48006800F000700028F2D111E0E069F0
:101DB000012800D1E6E50948466806F48031206A2A
:101DC000814204D106F47011606A814201D0012081
:101DD000D8E50020D6E50000000042420010024095
:101DE0007047704710B504462068006800F0010095
:101DF000F0B12068406800F00100C8B12068406878
:101E0000C0F3800048B12046FFF7EBFF6FF00400FD
:101E1000216848600420607404E02046FFF7E0FF7A
:101E2000012060742068406820F00100216848604B
:101E300010BDF8B505460C4616460020009005B1C9
:101E40000CB90120F8BD00226946284600F01AF8B6
:101E500008B10120F6E7287B2070E87BE070687B02
:101E60006070A87BA0705EB1E07800F01AFFE070AF
:101E7000607800F016FF6070A07800F012FFA0708C
:101E80000020DFE72DE9F04780460C46914600250B
:101E90000026AA460027B8F1000F00D014B901208F
:101EA000BDE8F087D8F800004068C0F3800008B1B2
:101EB0000120F5E7404600F0D8FF05464FF4616089
:101EC000B5FBF0F7B5FBF0F100FB11503C21B0FB86
:101ED000F1F060704FF46160B5FBF0F100FB115060
:101EE0003C21B0FBF1F201FB1200A070182F39D396
:101EF0001820B7FBF0FAB7FBF0F100FB117020706F
:101F0000404600F0A6FF0646701C18B1AE4201D94B
:101F1000761B01E04FF0FF360AEB4A00C000C0EB31
:101F20004011C1EB0020A5EB00152946404601F009
:101F300032F808B10120B3E7701C38B12E443146A5
:101F4000404601F011F840B10120A9E73146404672
:101F500001F00AF808B10120A2E75146404600F01E
:101F6000ADFE00E02770B9F1000F0BD0207800F033
:101F700098FE2070607800F094FE6070A07800F009
:101F800090FEA07000208BE770B5044600250CB9C8
:101F9000012070BD607C20B900202074204600F034
:101FA00053F802206074204600F0E6F918B10420CE
:101FB00060740120EDE7204600F0DBFE18B104203C
:101FC00060740120E5E72068406820F00700216880
:101FD0004860A06828B11B48006820F0010019493A
:101FE00008601848001F006820F46070A16808436A
:101FF0001449091F08606068401C08B1656809E061
:102000000120FFF781FA05461DB904206074012004
:10201000BFE76D1EC5F3034021688860A8B2216840
:10202000C860204600F0C2FE18B104206074012090
:10203000AFE70021E17301216173A1730120607496
:102040000020A6E7306C004038B504460F492068F0
:1020500088421AD1FFF752FA00BF0D48C06940F01C
:1020600000600B49C8610846C06900F0006000903C
:1020700000BF00BF0120074908600022042103209F
:10208000FFF7EAF90320FFF7D7F938BD0028004031
:10209000001002403C0442422DE9F84304460D463C
:1020A000174600260020009004B115B90120BDE8B4
:1020B000F88300BF207C012801D10220F7E701202E
:1020C000207400BF02206074002269462046FFF79A
:1020D000D9FE08B10120EAE79DF800004FF46161E4
:1020E00048439DF80110C1EB011100EB81009DF800
:1020F000021000EB01085FB928784FF46161484392
:102100006978C1EB011100EB8100A978461812E053
:10211000287800F0BBFD4FF4616100FB01F968789D
:1021200000F0B4FDC0EB001009EB8009A87800F0C6
:10213000ADFD09EB0006464501D21848064431467C
:10214000204600F011FF38B10420607400BF002069
:10215000207400BF0120AAE72068406820F0020038
:10216000216848602068006840F00200216808602B
:102170000B48006840F400300949086008480830FE
:10218000006840F40030064908310860012060749E
:1021900000BF0020207400BF00BF88E7805101000D
:1021A000000401402DE9F04704460D469046002604
:1021B0000027B14604B115B90120BDE8F08700BF82
:1021C000207C012801D10220F7E70120207400BF04
:1021D00002206074B8F1000F06D1E978E1736978E4
:1021E0006173A978A1730BE0E87800F04FFDE0730C
:1021F000687800F04BFD6073A87800F047FDA0738D
:10220000A27B617BE07B00F06DFE2073207B287059
:10221000204600F02AFE06464FF46160B6FBF0F956
:10222000B9F1180F2FD91820B9FBF0F000EB4000DE
:10223000C000C0EB4011C1EB0020A6EB00163146F8
:10224000204600F0A8FE38B10420607400BF0020D2
:10225000207400BF0120B0E7204600F0FAFD0746D9
:10226000781C80B1B7420ED20B480744394620464D
:1022700000F07AFE38B10420607400BF00202074A2
:1022800000BF012099E70120607400BF0020207486
:1022900000BF00BF91E70000805101002DE9F04729
:1022A00004460D4690460026002704B115B90120CA
:1022B000BDE8F08700BF207C012801D10220F7E7AC
:1022C0000120207400BF02206074B8F1000F0BD110
:1022D00028784FF4616148436978C1EB011100EB44
:1022E0008100A978461812E0287800F0CFFC4FF45E
:1022F000616100FB01F9687800F0C8FCC0EB0010D8
:1023000009EB8009A87800F0C1FC09EB0006314612
:10231000204600F040FE38B10420607400BF002069
:10232000207400BF0120C3E72068406820F005004A
:1023300021684860204600F08CFD0746781C80B17B
:10234000B7420ED20B4807443946204600F00CFE37
:1023500038B10420607400BF0020207400BF012049
:10236000A6E70120607400BF0020207400BF00BFFA
:102370009EE700008051010070B5044600250CB9AD
:10238000012070BD2068406820F008002168486086
:10239000FEF7DCFF054607E0FEF7D8FF401BB0F56F
:1023A0007A7F01D90320ECE72068406800F008003C
:1023B0000028F1D00020E4E74FF0E020006940F071
:1023C00002004FF0E0210861704770B504462546D1
:1023D000681EB0F1807F01D301200FE0681E4FF02E
:1023E000E02148610F214FF0FF3001F059F8002043
:1023F0004FF0E021886107200861002070BD704720
:10240000704700002DE9F84F0446206805682068F1
:10241000C668206847694FF00009CA4605F00F09F1
:10242000B9F1000F0AD105F0200038B106F0200004
:1024300020B1204600F090FEBDE8F88FB9F1000F02
:102440007BD007F0010018B906F49070002874D012
:1024500005F0010030B106F4807018B1606C40F0F6
:102460000100606405F0040030B107F0010018B10C
:10247000606C40F00200606405F0020030B107F0CB
:10248000010018B1606C40F00400606405F00800C1
:1024900048B106F0200010B907F0010018B1606CD7
:1024A00040F008006064606C002845D005F0200012
:1024B00028B106F0200010B1204600F04DFE206843
:1024C0004069C0F3801A606C00F0080010B9BAF1DE
:1024D000000F2CD0204600F0F9FD2068406900F084
:1024E000400000B300BF00BF2168143151E8001F55
:1024F00021F040002168143141E80002002AF3D1A4
:1025000000BFE06B50B17748E16B4863E06BFEF7CA
:1025100005FB88B1E06B416B88470DE02046FFF773
:102520006FFF09E009E02046FFF76AFF04E020465C
:10253000FFF766FF002060647EE7206B012877D1FB
:1025400005F01000002873D006F010000028FAD023
:1025500000BF00200090206800680090206840685C
:10256000009000BF00BF2068406900F040000028D4
:102570005FD0E06B006840681FFA80F8B8F1000F88
:1025800055D0A08D404552DDA4F82E80E06B8069C7
:10259000202843D000BF00BF21680C3151E8001F44
:1025A00021F4807021680C3141E80002002AF3D147
:1025B00000BF00BF00BF2168143151E8001F21F0A7
:1025C00001002168143141E80002002AF3D100BF64
:1025D00000BF00BF2168143151E8001F21F0400006
:1025E0002168143141E80002002AF3D100BF202005
:1025F00084F842000020206300BF00BF21680C3136
:1026000051E8001F21F0100021680C3141E8000260
:10261000002AF3D100BFE06BFEF754FA022060639A
:10262000A08DE28D801A81B22046FFF7E8FE03E715
:1026300042E0A08DE18D401A1FFA80F8E08DD0B302
:10264000B8F1000F37D000BF00BF21680C3151E84E
:10265000001F21F4907021680C3141E80002002A2B
:10266000F3D100BF00BF00BF2168143151E8001F43
:1026700021F001002168143141E80002002AF3D161
:1026800000BF202084F842000020206300BF00BF6C
:1026900021680C3151E8001F21F0100021680C3135
:1026A00041E80002002AF3D100BF022060634146E6
:1026B0002046FFF7A4FEBFE605F0800030B106F02B
:1026C000800018B1204600F063FEB5E605F040003A
:1026D00030B106F0400018B1204600F02DFDABE609
:1026E00000BFA9E6B930000810B504460CB90120B6
:1026F00010BDA06900B100E000BF94F8410028B906
:10270000002084F84000204600F02AF8242084F8B5
:1027100041002068C06820F400502168C86020464D
:1027200000F098FD2068006920F49040216808615D
:102730002068406920F02A00216848612068C0684C
:1027400040F400502168C86000206064202084F8B4
:10275000410084F842000020606300BFC8E7000029
:1027600010B586B0044600200290039004900590B6
:102770001E492068884236D100BF1D48806940F458
:1027800080401B4988610846806900F480400190C0
:1027900000BF00BF00BF0846806940F004008861A8
:1027A0000846806900F00400019000BF00BF481592
:1027B0000290022003900320059002A90D48FEF725
:1027C0002FFC4FF48060029000200390049002A937
:1027D0000848FEF725FC002201212520FEF73CFEDB
:1027E0002520FEF729FE06B010BD0000003801408C
:1027F000001002400008014070B504460D46164620
:1028000094F8420020280BD105B10EB9012070BD0B
:102810000020206332462946204600F099FDF6E765
:102820000220F4E710B504461149206888421ED101
:1028300010480178104802780078401C0E4B187040
:102840000E48815418460078401E0C49085C0A283E
:1028500008D118460078C01E085C4B2802D1002021
:1028600019460870012203490548FFF7C5FF10BD4E
:10287000004400400C0000200D0000205801002002
:10288000AC0800202DE9F84F04460E46174699463D
:102890004FF0000A94F84100202850D106B117B932
:1028A0000120BDE8F88F00206064212084F84100F9
:1028B000FEF74CFD8246A784E784A068B0F5805FF0
:1028C00004D1206910B90025B04602E035464FF02A
:1028D00000081EE05346002280212046CDF80090DB
:1028E00000F086FD20B1202084F841000320D8E7C5
:1028F00045B9B8F80000C0F308002168486008F145
:10290000020803E02878216848606D1CE08C401EB6
:10291000E084E08C0028DDD153460022402120468F
:10292000CDF8009000F064FD20B1202084F8410033
:102930000320B6E7202084F841000020B1E7022000
:10294000AFE7704700BFFEE70EB500200090019092
:1029500002901E481E49086081151D4881600121B2
:102960000173002101754FF46021C16100201849F5
:102970004860032116480161FDF7E0FE08B1FDF74C
:102980009DFD0320009001200190002002906946E7
:102990000F48FDF797FD08B1FDF790FD042000906A
:1029A0000220019069460A48FDF78CFD08B1FDF749
:1029B00085FD052000900320019069460448FDF73D
:1029C00081FD08B1FDF77AFD0EBD00000024014035
:1029D0002408002008B500BF0A48406940F0010003
:1029E000084948610846406900F00100009000BFB6
:1029F00000BF002203210B20FEF72EFD0B20FEF767
:102A00001BFD08BD0010024000B585B000200190FC
:102A100002900390049000BF4D48806940F0100080
:102A20004B4988610846806900F01000009000BFA3
:102A300000BF00BF0846806940F02000886108465A
:102A4000806900F02000009000BF00BF00BF084672
:102A5000806940F0040088610846806900F0040045
:102A6000009000BF00BF00BF0846806940F008002A
:102A700088610846806900F00800009000BF00BF30
:102A8000012202213348FEF75BFC00224FF4406133
:102A90003148FEF755FC4FF460400190032002904E
:102AA00001A92E48FEF7BCFA012001902C480290A3
:102AB0000020039001A92748FEF7B2FA02200190F6
:102AC0000120029003900220049001A92148FEF702
:102AD000A7FA49F6C41001900320029001A91D48ED
:102AE000FEF79EFA48F2FF2001900320029001A910
:102AF0001948FEF795FA4FF44060019001200290CA
:102B0000002003900220049001A91348FEF788FAE0
:102B10004FF4E0400190002002900220039001A9B0
:102B20000D48FEF77DFA4FF4807001900C4802903A
:102B30000220039001A90848FEF772FA0022012141
:102B40000620FEF789FC0620FEF776FC05B000BDE6
:102B50000010024000080140000C0140001001403C
:102B6000000011101CB50020019000901848194970
:102B700008604FF0FF304860002116488160FFF781
:102B800003FA08B1FDF79AFC00208DF804008DF8D7
:102B900005008DF80600002201A90E48FFF77EFB14
:102BA00008B1FDF78BFC00208DF8000005208DF8A2
:102BB000010001208DF8020000208DF803000022A2
:102BC00069460448FFF7EEFA08B1FDF777FC1CBD33
:102BD000002800409808002010B50B480B490860F9
:102BE0004FF416504860002108488160C1600161BF
:102BF0000C21416100218161C161FFF775FD08B1C0
:102C0000FDF75CFC10BD000000380140AC0800205E
:102C100000BFFEE71CB5002201A90E48FFF732F9FC
:102C2000002269460B48FFF704F99DF803000A49A2
:102C300008809DF8010048809DF8020088809DF87A
:102C40000400C8809DF8050008819DF806004881B1
:102C50001CBD0000980800201000002000BFFEE707
:102C60007047000008B508490968C9084FF47A722E
:102C7000B1FBF2F14143009100BF00BF00994A1E31
:102C800000920029F9D108BD58000020014600BF7C
:102C9000080900EB8000420001F00F001044C0B2B0
:102CA00070470146002203E0521CA1F10A00C1B2A4
:102CB0000A29F9D2100741EA106070472DE9F04760
:102CC00006468846002700240025A146F77B747B32
:102CD000B57B00BF40E0012C0BD0032C09D0052CA4
:102CE00007D0072C05D0082C03D00A2C01D00C2CBF
:102CF0000CD11F2D01D26D1C2CE00C2C02D0641CB9
:102D0000012527E0012401257F1C23E0042C05D0A8
:102D1000062C03D0092C01D00B2C06D11E2D01D27C
:102D20006D1C17E0641C012514E0022C12D11C2D2F
:102D300001D26D1C0EE01C2D08D1B8B200F070F865
:102D400008B16D1C06E0641C012503E01D2D01D1B6
:102D5000641C012509F10109C145BCD3F7737473E3
:102D6000B573EAB2E1B2384600F0BCF83073BDE8A2
:102D7000F08770B504460025FEF7E8FA054607E03F
:102D8000FEF7E4FA401BB0F57A7F01D9032070BD4D
:102D90002068406800F020000028F1D020684068DA
:102DA00040F01000216848600020F0E770B504464C
:102DB00000252068406820F0100021684860FEF778
:102DC000C5FA054607E0FEF7C1FA401BB0F57A7F69
:102DD00001D9032070BD2068406800F02000002861
:102DE000F1D00020F6E7000010B50A48FEF7FAFF20
:102DF000094802784FF480610848FEF7A1FA0648B6
:102E0000006808B9012000E000200349086000F0D4
:102E100047F810BD9808002054000020000C014025
:102E2000014601F0030008B1002070476420B1FBA7
:102E3000F0F200FB121008B10120F6E74FF4C87061
:102E4000B1FBF0F200FB121008B90120EDE7002001
:102E5000EBE70146002200230868006A82B2086896
:102E6000406A83B243EA0240704730B5014600220F
:102E70000023002400200D68AD69AAB20D68ED6939
:102E8000ACB20D68AD69ABB29A4205D00D68ED6980
:102E900063F31F45284601E044EA024030BD0000CC
:102EA0000EB500208DF808008DF809008DF80A0095
:102EB000002202A90A48FFF7F1F908B1FDF7FEFA6E
:102EC000002001908DF800008DF8010003208DF89E
:102ED0000200002269460248FFF7DEF80EBD00003E
:102EE00098080020F0B504460B460021002504F5A3
:102EF000FA61032B1BD2C3EBC30000EB03100926BE
:102F0000B0FBF6F01044001D4618481E06EB900674
:102F10006427B0FBF7F0361A481EBF00B0FBF7F08D
:102F200030440726B0FBF6F706FB17051AE0C3EBA3
:102F3000C30000EB03100926B0FBF6F01044001D9F
:102F4000084400EB91006426B1FBF6F6801B4FF4B9
:102F5000C876B1FBF6F63044801E0726B0FBF6F7C4
:102F600006FB1705E8B2F0BD70B504460D46002615
:102F70002046FFF7FEFE08B101260AE0280C216872
:102F80000862A8B2216848622046FFF70FFF00B12F
:102F90000126304670BD70B504460D460026204619
:102FA000FFF7E7FE08B101260AE0280C21688861D6
:102FB000A8B22168C8612046FFF7F8FE00B10126DB
:102FC000304670BD7047000010B5FEF7C5F91348D4
:102FD00000684FF4FA71B0FBF1F201FB120088B9FE
:102FE0000E4800684900B0FBF1F201FB120008B185
:102FF000012000E00020044622464FF4006108480A
:10300000FEF79EF905480068401C04490860054821
:103010000078012801D100F01DFB10BD50000020F8
:10302000000C01404600002000B593B0282109A8FB
:10303000FDF7FCF8142104A8FDF7F8F80020009033
:10304000019002900390092009904FF480300A907B
:1030500000200B9001200D900F9002201090C103D2
:1030600011914FF4E011129109A8FEF787FC08B105
:10307000FDF724FA0F20049002200590002006900E
:103080004FF48060079000200890022104A8FEF70A
:1030900051FB08B1FDF712FA032000904FF40070C5
:1030A0000190800102906846FEF7ACFA08B1FDF786
:1030B00005FA13B000BD704770B505466C6A002074
:1030C000E085E0842046FFF79BF970BD00BF00BF9C
:1030D00002680C3252E8002F22F4907102680C3220
:1030E00042E80013002BF3D100BF00BF00BF02680D
:1030F000143252E8002F22F001010268143242E833
:103100000013002BF3D100BF016B01290ED100BFCA
:1031100000BF02680C3252E8002F22F01001026852
:103120000C3242E80013002BF3D100BF202180F8BD
:10313000421000210163704710B504462068C06842
:1031400020F040002168C860202084F8410020461B
:10315000FFF7F7FB002010BDF8B5044694F84200D5
:10316000222875D1A068B0F5805F0CD1206950B9D4
:103170000025A66A20684068C0F308003080A06A75
:10318000801CA06215E0A56A0026A068B0F5805FEB
:1031900003D0A06828B9206918B920684068287051
:1031A00004E02068406800F07F002870A06A401C9E
:1031B000A062E08D401E80B2E085002846D12068E4
:1031C000C06820F020002168C8602068C06820F432
:1031D00080702168C8602068406920F00100216883
:1031E0004861202084F8420000206063206B0128A1
:1031F00026D10020206300BF00BF21680C3151E8B8
:10320000001F21F0100021680C3141E80002002A63
:10321000F3D100BF2068006800F0100010280AD128
:1032200000BF00200090206800680090206840687F
:10323000009000BF00BFA18D2046FFF7E0F802E03C
:103240002046FFF7EFFA0020F8BD01E00020FBE781
:103250000220F9E770B504462168096921F440515C
:10326000E2681143226811612269A1681143626911
:1032700041EA02052168C96841F20C629143294381
:103280002268D1602168496921F44071A269114323
:10329000226851612D4A2168914202D1FEF726FB36
:1032A00001E0FEF713FB00EBC00101EB00116268C7
:1032B0009200B1FBF2F100EBC00202EB0012636876
:1032C0009B00B2FBF3F26423B2FBF3F202EBC20306
:1032D00003EB0212A1EB8201322202EB0111642204
:1032E000B1FBF2F101F0F00100EBC00202EB0012C1
:1032F00063689B00B2FBF3F26423B2FBF3F201EBD1
:10330000021200EBC00101EB001163689B00B1FBEE
:10331000F3F100EBC00303EB00136668B600B3FBE8
:10332000F6F36426B3FBF6F303EBC30606EB0313D5
:10333000A1EB8301322303EB01116423B1FBF3F111
:1033400001F00F0111442268916070BD0038014006
:1033500010B5034699629A85DA85002058642220C8
:1033600083F84200186928B11868C06840F480707A
:103370001C68E0601868406940F001001C686061EA
:103380001868C06840F020001C68E060002010BD94
:10339000014691F84100212828D18868B0F5805F66
:1033A0000BD1086948B90A6A1088C0F308000B6895
:1033B0005860086A801C086205E00B6A581C0862A5
:1033C00018780B685860C88C401E80B2C88458B901
:1033D0000868C06820F080000B68D8600868C06882
:1033E00040F040000B68D860002070470220FCE7E6
:1033F0002DE9F84304460D4617469846089E31E0ED
:10340000701C70B3FDF7A2FFA0EB0800B04200D81B
:1034100016B90320BDE8F8832068C06800F00400F6
:10342000F8B1802D1ED0402D1CD020680068C0F35C
:10343000C000B0B100BF002000902068006800907C
:1034400020684068009000BF00BF2046FFF73EFEA6
:103450000820606400BF002084F8400000BF012005
:10346000D8E7FFE7206800682840A84201D1012082
:1034700000E00020B842C3D00020CBE710B50248DE
:10348000FEF7C0FF10BD0000AC08002000BFFEE743
:1034900002480068C0F30220704700000CED00E015
:1034A00010B5002804DB0A07130E054A135406E082
:1034B0000A07140E034A00F00F031B1FD45410BD5B
:1034C00000E400E018ED00E001461C2070472DE903
:1034D000FC5F0446278894F8029094F803A094F8BF
:1034E00004B060790190A079009000254FF4FD664A
:1034F0000AE0304600F070F810B14FF4B77001E008
:1035000040F26D100544761CBE42F2DB012605E058
:103510003146384600F022F80544761C4E45F7DB6C
:10352000AAF10100054405EB4500C000C0EB001006
:103530008000C0EB00108000CBEB0B118900C1EBC9
:10354000011100EB81010198C0EB001001EB80013B
:10355000009801EB00084046BDE8FC9F30B58DB0F7
:1035600005460C463022094901A8FCF72DFE022C25
:1035700006D1284600F030F810B11D200DB030BD46
:10358000601E01A951F82000F8E70000843C000803
:103590001CB5FFF73FFB0F480088ADF800000D4851
:1035A00080788DF802000B4800798DF803000948F7
:1035B00080798DF804000748007A8DF805000548E9
:1035C000807A8DF806006846FFF781FF04462046A2
:1035D0001CBD00001000002001460A46C81701EB80
:1035E00090708010A1EB800070B9642091FBF0F323
:1035F00000FB131030B94FF4C87091FBF0F300FBDF
:10360000131008B9012070470020FCE7FDF7B0FE59
:10361000FFF70AFD00200C490870FFF7F5F9FFF7E6
:10362000D9F9FFF791F9FFF7D7FAFFF79BFA0120D5
:1036300005490870FFF734FC04E000220349044800
:10364000FEF720FCF9E700004600002047000020BC
:103650009808002010B503221B491C48FDF772F999
:10366000194800881A491B4A126821F812001648A6
:1036700080881949174A126821F8120012480089F7
:103680001649144A126821F8120012480068401CBA
:103690002821B0FBF1F201FB12000E49086010482E
:1036A0000068401C2821B0FBF1F201FB12000C491C
:1036B00008600C480068401C2821B0FBF1F201FBB7
:1036C00012000849086010BD58020020240800209C
:1036D0006800002000000020B80000200801002041
:1036E00004000020080000207047000010B5C2B0A0
:1036F000044601AA02A9204600F014F806A0FFF72C
:10370000F3FF019882B24FF0FF3302A90448FFF79C
:10371000B9F842B010BD000041544F0D0A0000003E
:10372000AC08002070B503460C46154618682060AA
:1037300058686060201D1989218159896181D96883
:10374000E1601022A1185889401E00EB400603F1E9
:10375000100000EB860000680860121DA11858894F
:10376000401E00EB400603F1100000EB86004068AD
:103770000860121DA1185889401E00EB400603F195
:10378000100000EB8600806808601846FFF79CFE7A
:10379000286070BD4FEA1153A3F58063D3F11E0377
:1037A000A8BFD3F1200C08DB4FF0004242EAC1224F
:1037B00052EA505232FA03F0704709420BD4102BF0
:1037C000C4BF0020704703F5787CBCF1FF3F05D0F3
:1037D0004FF0FF3070474FF00000704770B500F0B9
:1037E000B1F800BF4992248000207047F0E7000044
:1037F000DFF848C170B51CEA111E1EBF1CEA131584
:103800009EEA0C0F95EA0C0F00F06F8081EA03042A
:1038100023EA4C134EEAD47E21EA4C1141F4801184
:1038200043F48013AE44A1FB024CA0FB0365AEF150
:103830007F7E361955EB0C05A1FB034C4CF10003C0
:10384000A0FB021C16EB0C06654153F10003094274
:1038500018BF46F0010613F4007F0BD14FEA033185
:103860004FEA0530340341EA155140EA16506FF033
:1038700003020AE04FEAC3214FEAC520F40241EAFD
:10388000555140EA56506FF0020202EB2E4201EB16
:10389000025585EACE710AD05FEA440C18BF24F0C5
:1038A000004450F1000041F1000120EAD47040F2E0
:1038B000FE7C624500D270BDA84214BF4FF0804428
:1038C0004FF04044002E08BF0024BEF1806FA8BF17
:1038D000A1F1C041BDE8704080F282804FF000004D
:1038E00001F1C04101F0004170479EEA0C0F0CEA63
:1038F000131518BF95EA0C0F06D04FF0000081EAAF
:10390000030E0EF0004170BD00F01CF88900013E6E
:1039100000F007B800F009B84FEA430C5FEA5C5CBE
:1039200008D081EA030100F05BB84FEA410C5FEA7E
:103930005C5CF6D14FF00000014970470000FF07C2
:103940000000F87F0EF1020E2EF0030E5EF8046BFD
:10395000364205D4012A43EB030515F5001F12D8A2
:10396000012841EB010C1CF5001F0CD80ED14FEAC9
:10397000D17C15F5001F0CEB4C0C0CF1020C08BFB0
:103980004CEBD37C04E04FF0080C01E04FEAD37C11
:103990000CEB4C0526FA05F606F00706B6F1040C0A
:1039A00006D20EEB860CBDE870404CF0010C60476F
:1039B000DFE80CF0090B02024FF000414FF000006D
:1039C000A1F5002170BD19461046012851EB0104F4
:1039D00018BFD4F5001484BF002001F0004170BD71
:1039E0000808A0F500114FEA3101704743004FEA83
:1039F000D30C4FEA3C0C43401FBF40070CF1605111
:103A000013F0FE4F70471CF0006F03D100200CF044
:103A1000004170470CF0004343EA507010B540EA93
:103A2000CC0000F0E4F800BF000000924FEA000173
:103A3000FFF7D6BF4FF000414FF00000A1F5002185
:103A4000704700004FF47F0C1CEAD0121EBF1CEA26
:103A5000D11392EA0C0F93EA0C0F00F0858090EAE4
:103A6000010F48BF42F4807240F4000C41F40000A2
:103A70002CF07F4120F07F4000B58142A2EB030291
:103A80000FF2081CACEB504EC0F100009EF800E0B5
:103A90004FEA4E0E00FB0EFC38BF49004FEA2C1CCB
:103AA00002F5FA020CFB0EF34FEACE1E4FEA112C80
:103AB0004FEAC1210EEB635E42EB22420EFB0CFC8F
:103AC0004FEA1C5300FB03114FEA112C4FEA01315E
:103AD0000EFB0CFC4FEADC4C00FB0C11C14228BF72
:103AE00009184CEB03335DF804EB10EB410143EB99
:103AF000C250B2F57C0F38BF704729D512F0F00FD5
:103B00001CBF00F1C04000F000407047008182837C
:103B10008485868788898B8C8D8E8F9192939596DC
:103B200097999A9C9D9FA0A2A3A5A7A8AAACAEB066
:103B3000B2B3B5B7B9BCBEC0C2C5C7C9CCCED1D46B
:103B4000D7D9DCDFE2E6E9ECF0F3F7FAFE0000009B
:103B50004FEA400C0CF1807CBCF17E4F28BF7047CF
:103B6000B0F1C04000F089B890EA010F0CEAD1131F
:103B700048BF42F48072624538BF634507D213F4F0
:103B80007F0F16D080EA010000F00040704710B5AA
:103B900000F02DF8097EFC3E00F005B880EA010037
:103BA00000F00040704780EA010000F0004000F0A3
:103BB00064B812F47F0F04BF0248704780EA010026
:103BC00000F05BB80000C07FB0FA80F310FA03F297
:103BD000C3F19D030AD0D90501EB1220530638BF6B
:103BE000704700F1010008BF20F0010070470EF19E
:103BF000020E2EF0030E5EF8044B244204D44FEA6A
:103C00004102B2F17F4F11D84FEA4003B3F17F4F29
:103C10000CD80ED14FEAD07CB2F17F4F0CEB4C0C9C
:103C20000CF1020C08BF4CEBD17C04E04FF0080C07
:103C300001E04FEAD17C0CEB4C0324FA03F404F0CE
:103C40000704B4F1040C06D20EEB840CBDE810405E
:103C50004CF0010C6047DFE80CF0070802024FF05F
:103C60000040A0F5800010BD0846420018BFD2F108
:103C7000807288BF00F0004010BDFF2141EAD050A3
:103C8000C00570471F0000001C0000001F0000005E
:103C90001E0000001F0000001E0000001F000000AA
:103CA0001F0000001E0000001F0000001E0000009A
:103CB0001F000000000000000000000001020304DB
:103CC00006070809000000000102030402030405BE
:103CD000060708090A0B0C0D0E0F10100102020353
:103CE0000405060708090A0B0C0D0E0F101001023F
:103CF000103D0008000000206800000028010008B6
:103D0000783D000868000020F00E00004401000823
:103D100000000000000000000000000000000000A3
:103D200018000B0013000C0014000000000000003D
:103D30000000000000000000000000000000000083
:103D40000000000000000000000000000000000073
:103D50000000000000000000000000000000000063
:103D6000000000000000000000127A0000000000C7
:083D700010000000010000003A
:04000005080000ED02
:00000001FF
