:020000040800F2
:10000000301A00208901000869270008B724000879
:10001000652700087D0300084D300008000000003F
:100020000000000000000000000000007D2B000820
:10003000810300080000000073270008812B0008DE
:10004000A3010008A3010008A3010008A301000800
:10005000A3010008A301000883030008A30100080E
:10006000A3010008A3010008A3010008A3010008E0
:10007000A3010008A3010008A3010008A3010008D0
:10008000A3010008A3010008A3010008A3010008C0
:10009000A3010008A3010008A3010008A3010008B0
:1000A000A3010008A3010008A3010008A3010008A0
:1000B000A3010008A3010008A3010008A301000890
:1000C000A3010008A3010008A3010008A301000880
:1000D000A3010008E52F0008A3010008A301000800
:1000E000A30100089D270008A301000800F002F802
:1000F00000F03AF80AA090E8000C82448344AAF188
:100100000107DA4501D100F02FF8AFF2090EBAE885
:100110000F0013F0010F18BFFB1A43F0010318473B
:10012000FC3300001C340000103A24BF78C878C1AA
:10013000FAD8520724BF30C830C144BF04680C60ED
:10014000704700000023002400250026103A28BF35
:1001500078C1FBD8520728BF30C148BF0B60704739
:100160001FB51FBD10B510BD00F058F81146FFF7C0
:10017000F7FF02F0E7FF00F076F803B4FFF7F2FFB5
:1001800003BC00F07DF8000009488047094800479B
:10019000FEE7FEE7FEE7FEE7FEE7FEE7FEE7FEE737
:1001A000FEE7FEE704480549054A064B7047000094
:1001B0005F2C0008ED00000830140020301A0020E9
:1001C00030160020301600204FF0000200B5134614
:1001D00094469646203922BFA0E80C50A0E80C5067
:1001E000B1F12001BFF4F7AF090728BFA0E80C5018
:1001F00048BF0CC05DF804EB890028BF40F8042B11
:1002000008BF704748BF20F8022B11F0804F18BF7D
:1002100000F8012B7047704770477047754600F033
:100220002BF8AE4605006946534620F00700854688
:1002300018B020B5FFF7B6FFBDE820404FF000062C
:100240004FF000074FF000084FF0000B21F00701BE
:10025000AC46ACE8C009ACE8C009ACE8C009ACE801
:10026000C0098D46704710B50446AFF300802046A4
:10027000BDE81040FFF781BF00487047CC13002055
:1002800001491820ABBEFEE726000200704770B59A
:10029000044600252068806800F0010018B320683B
:1002A000806820F001002168886000F031FE05467A
:1002B00013E000F02DFE401B02280ED92068806854
:1002C00000F0010048B1A06A40F01000A062E06AAE
:1002D00040F00100E062012070BD2068806800F0FD
:1002E00001000028E5D10020F6E7000038B50446FB
:1002F0000025002000902068806800F0010078BB95
:100300002068806840F00100216888601948006812
:100310001949B0FBF1F0009002E00098401E0090F7
:1003200000980028F9D100F0F3FD054619E000F02F
:10033000EFFD401B022814D92068806800F00100FE
:1003400078B9A06A40F01000A062E06A40F00100B5
:10035000E06200BF002084F8240000BF012038BD07
:1003600005E02068806800F001000028DFD0002050
:10037000F5E700004C00002040420F0000BFFEE700
:10038000704710B5012000F017FC10BD72B600BF19
:10039000FEE7000006480068064908600448001DA2
:1003A00000684860024808300068886070470000B4
:1003B000E8F7FF1F34110020F8B50446002600209E
:1003C000009000BF94F82400012801D10220F8BD5C
:1003D000012084F8240000BF2046FFF758FF06469E
:1003E0002046FFF783FF0646002E69D1A06A20F45D
:1003F000885040F00200A062022000F0ADFE3449B7
:100400000968B1FBF0F04000009002E00098401E47
:10041000009000980028F9D12068806840F008001A
:100420002168886000F074FD054616E000F070FD5C
:10043000401B0A2811D92068806800F0080060B1CC
:10044000A06A20F0020040F01000A06200BF00206F
:1004500084F8240000BF0120B9E72068806800F01C
:1004600008000028E2D12068806840F0040021687C
:10047000886000F04DFD054616E000F049FD401B88
:100480000A2811D92068806800F0040060B1A06AD1
:1004900020F0020040F01000A06200BF002084F8AD
:1004A000240000BF012092E72068806800F004006B
:1004B0000028E2D1A06A20F0020040F00100A06212
:1004C00000BF002084F8240000BF30467FE7000012
:1004D0004C00002038B5024600230020009000BFE9
:1004E00092F82400012801D1022038BD012082F8B1
:1004F000240000BF4868072812D21068406B0C79AE
:10050000641E04EB84051F24AC40A0430D796D1ECE
:1005100005EB85050C68AC4020431468606327E058
:1005200048680D2812D21068006B0C79E41F04EBA8
:1005300084051F24AC40A0430D79ED1F05EB850514
:100540000C68AC4020431468206311E01068C06A56
:100550000C790D3C04EB84051F24AC40A0430D79BD
:100560000D3D05EB85050C68AC4020431468E06246
:1005700008680A2812D31068C0680C780A3C04EB9B
:1005800044050724AC40A0430D780A3D05EB450522
:100590008C68AC4020431468E0600FE0106800698C
:1005A0000C7804EB44050724AC40A0430D7805EB20
:1005B00045058C68AC402043146820610868102809
:1005C00002D00868112827D1174C1068A0421ED10C
:1005D0001068806800F40000F0B91068806840F48A
:1005E00000001468A0600868102815D10F48006842
:1005F0000F4CB0FBF4F000EB80004000009002E0F4
:100600000098401E009000980028F9D104E0906AFC
:1006100040F020009062012300BF002082F82400F7
:1006200000BF184661E70000002401404C00002094
:1006300040420F0001460868C06C70472DE9F04148
:100640000446002700250026A84614B90120BDE86D
:10065000F081A06810B1207D00B100BFA06A30B960
:100660000020E06284F82400204600F089F820464B
:10067000FFF70DFE0746A06A00F01000002873D1B6
:10068000002F71D1A06A20F4885040F00200A062CF
:10069000E16960680843217B40EA41000643A068A5
:1006A000B0F5807F02D0A068012802D14FF480709D
:1006B00000E000200543207D012811D1207B38B9BE
:1006C000A069401E4FF4006141EA4030054307E055
:1006D000A06A40F02000A062E06A40F00100E06201
:1006E0002068406820F469402843216848602068F9
:1006F000806821490840304321688860A068B0F5CF
:10070000807F02D0A068012802D14FF4807000E001
:100710000020B0F5807F03D1208A401E4FEA0058A8
:100720002068C06A20F4700040EA08002168C862AE
:100730002068806811490840B04208D10020E0627A
:10074000A06A20F0020040F00100A06211E0A06A5F
:1007500020F0020040F01000A062E06A40F00100CA
:10076000E062012705E0FFE7A06A40F01000A06208
:10077000012738466BE70000FDF7E1FFFE0E1FFF83
:1007800010B586B0044600200290039004900590B6
:1007900014492068884222D100BF1348806940F480
:1007A0000070114988610846806900F4007001906A
:1007B00000BF00BF00BF0846806940F004008861A8
:1007C0000846806900F00400019000BF00BF0C20C3
:1007D00002900320039002A9044800F0FBF906B040
:1007E00010BD00000024014000100240000801403C
:1007F000F8B504460D46002600200090002700F0C2
:1008000087FB06462068806800F4807050B1A06ABB
:1008100040F02000A06200BF002084F8240000BF48
:100820000120F8BD2068406800F4807020BB20687B
:10083000C06A00F47000F8B917E0681CA8B125B1CF
:1008400000F066FB801BA8420FD92068006800F00A
:10085000020050B9A06A40F00400A06200BF00206E
:1008600084F8240000BF0320DBE72068006800F064
:1008700002000028E1D053E0022000F06DFC38496E
:100880000968B1FBF0F021680969364A114091B955
:100890002168C9689211114069B921680969324A11
:1008A000114031B92168C9689211114009B9142168
:1008B00017E0292115E0216809692B4A114021B967
:1008C0002168C9689211114041B121680969274A1C
:1008D000114029B92168C968114009B9542100E0C3
:1008E000FC2100FB01F718E0681C98B125B100F06D
:1008F0000FFB801BA8420DD90098B8420AD2A06A0B
:1009000040F00400A06200BF002084F8240000BF73
:10091000032086E70098401C00900098B842E3D37B
:100920006FF0120021680860A06A40F40070A062B5
:100930002068806800F46020B0F5602F0DD1207B26
:1009400058B9A06A20F48070A062A06A00F48050B8
:1009500018B9A06A40F00100A062002061E7000021
:100960004C000020244992249224491249922400E8
:1009700070B50446002500BF94F82400012801D179
:10098000022070BD012084F8240000BF2046FFF73C
:10099000ADFC0546002D77D1A06A40F201218843C5
:1009A00040F48070A0623C492068884208D13B48EE
:1009B000006800F4702008B9012002E0002000E087
:1009C000012078B1A06A20F48010A06220684068FD
:1009D00000F4806000B3A06A20F4005040F480501E
:1009E000A06219E0A06A40F48010A0622B49091FA0
:1009F0002068884203D028492068884204D12748CB
:100A0000006800F4806000E0002028B1A06A20F4B3
:100A1000005040F48050A062A06A00F4805020B1E1
:100A2000E06A20F00600E06201E00020E06200BF22
:100A3000002084F8240000BFC01E216808602068E0
:100A4000806800F46020B0F5602F16D1124920684C
:100A5000884208D11148006800F4702008B90120CC
:100A600002E0002000E0012038B12068806840F4F6
:100A7000A000216888600CE006E02068806840F4EF
:100A800080102168886004E000BF002084F8240002
:100A900000BF284675E700000028014004240140FB
:100AA0000146002291F82100022808D00420886322
:100AB00000BF002081F8200000BF012070470868B7
:100AC000006820F00E000B6818600868006820F0CD
:100AD00001000B68186091F8403001209840CB6B02
:100AE0005860012081F8210000BF002081F820001B
:100AF00000BF1046E2E7000070B50446002594F8F8
:100B00002100022803D00420A063012548E02068CA
:100B1000006820F00E00216808602068006820F05E
:100B20000100216808601F492068884201D1012026
:100B300026E01C4914312068884201D110201FE0B2
:100B4000184928312068884201D1801518E01549DC
:100B50003C312068884201D1801411E011495031A4
:100B60002068884202D14FF4803009E00D49643199
:100B70002068884202D14FF4801001E04FF080706D
:100B8000084908394860012084F8210000BF00208E
:100B900084F8200000BF606B10B12046616B88476D
:100BA000284670BD08000240012802D10121014AF7
:100BB000117070471800002010B504460448006802
:100BC000204020B1024804602046FFF7EDFF10BD31
:100BD000140401402DE9F8470346002294466EE1D3
:100BE0004FF0010808FA02F4D1F8008008EA040086
:100BF000A0427DD1DFF8DCA2D1F80480A8EB0A097D
:100C0000D0453AD014DCB8F1030F50D009DCB8F16C
:100C1000000F31D0B8F1010F1CD0B8F1020F49D14B
:100C200020E0B8F1110F18D0B8F1120F42D11EE038
:100C3000B9F5881F25D006DCB9F5803F20D0B9F57D
:100C4000801F37D11AE0B9F5001F18D0B9F5041F7D
:100C500030D117E0D1F80CC02DE0D1F80C8008F1AC
:100C6000040C28E0D1F80C8008F1080C23E0D1F83E
:100C70000C8008F10C0C1EE000BF00BF00BF00BFDD
:100C800000BF00BFD1F80880B8F1000F02D14FF0CB
:100C9000040C0BE0D1F80880B8F1010F03D14FF03C
:100CA000080C1C6102E04FF0080C5C6103E04FF09F
:100CB000000C00E000BF00BFFF2801D8984601E00B
:100CC00003F104084646FF2802D84FEA820803E0F1
:100CD000A2F108084FEA88084746D6F800804FF08E
:100CE0000F0909FA07F928EA09080CFA07F900E0E0
:100CF00088E048EA0908C6F80080D1F8048008F0C6
:100D00008058B8F1805F7DD100BFDFF8CC81D8F882
:100D1000188048F00108DFF8C091C9F81880C8466B
:100D2000D8F8188008F00108CDF8008000BF00BF97
:100D30004FEAB9384FEA920958F829504FEA8278B9
:100D40004FEA18794FF00F0808FA09F825EA080564
:100D5000DFF88881434502D14FF0000816E0DFF844
:100D60008081434502D14FF001080FE0DFF8748124
:100D7000434502D14FF0020808E0DFF86C8143459B
:100D800002D14FF0030801E04FF004084FEA8279E6
:100D90004FEA197908FA09F848EA0505DFF84C81A5
:100DA0004FEA920948F82950D1F8048008F48018D5
:100DB000B8F5801F0AD1DFF83881D8F8008048EAFA
:100DC0000008DFF82C91C9F8008009E0DFF82081E5
:100DD000D8F8008028EA0008DFF81491C9F80080EC
:100DE000D1F8048008F40018B8F5001F10D1DFF81E
:100DF000008108F10408D8F8008048EA0008DFF80C
:100E0000F09000E05AE009F10409C9F800800DE013
:100E1000DFF8DC8008F10408D8F8008028EA000830
:100E2000DFF8CC9009F10409C9F80080D1F80480FA
:100E300008F40038B8F5003F0ED1DFF8B480A8F10F
:100E40000408D8F8008048EA0008DFF8A490A9F167
:100E50000409C9F800800DE0DFF89480A8F10408C7
:100E6000D8F8008028EA0008DFF88490A9F1040986
:100E7000C9F80080D1F8048008F48038B8F5803FC4
:100E80000ED1DFF86C80A8F10808D8F8008048EA95
:100E90000008DFF85C90A9F10809C9F800800DE0AE
:100EA000DFF84C80A8F10808D8F8008028EA00088C
:100EB000DFF83C90A9F10809C9F80080521CD1F86C
:100EC000008028FA02F8B8F1000F7FF489AEBDE87F
:100ED000F8870000000011100010024000080140D7
:100EE000000C0140001001400014014008000140C6
:100EF00008040140024693680B400BB1012000E05A
:100F0000002070470AB1016101E00B0403617047E2
:100F10000148006870470000500000200348006846
:100F200003490978084401490860704750000020CF
:100F30005800002010B50848006840F0100006492D
:100F40000860032000F0A8F8002000F007F800F087
:100F50002BF8002010BD00000020024070B50446B0
:100F60000E4800784FF47A71B1FBF0F00C49096833
:100F7000B1FBF0F5284601F01EF808B1012070BD64
:100F8000102C07D200222146501E00F047F80548D9
:100F9000046001E00120F2E70020F0E758000020A3
:100FA0004C0000205400002008B500BF11488069A3
:100FB00040F001000F4988610846806900F0010097
:100FC000009000BF00BF00BF0846C06940F08050DD
:100FD000C8610846C06900F08050009000BF00BFA3
:100FE00000BF0549486820F0E06040F000704860AC
:100FF00000BF08BD00100240000001400146084645
:10100000002809DB00F01F0301229A4043099B00DE
:1010100003F1E023C3F8002100BF70472DE9F05F22
:1010200080460D461646002702F012F8074639465C
:101030002A46334601F00700C0F1070ABAF1040F4F
:1010400002D94FF0040A01E0C0F1070AD14600F1CD
:10105000040ABAF1070F02D24FF0000A01E0A0F132
:10106000030AD4464FF0010A0AFA09FAAAF1010A62
:101070000AEA020A0AFA0CFA4FF0010B0BFA0CFB0F
:10108000ABF1010B0BEA030B4AEA0B042146404685
:1010900001F0E6FFBDE8F09F00BF00F00702064B3D
:1010A00019684FF6FF031940044B0B4343EA022132
:1010B000014B196000BF70470CED00E00000FA051D
:1010C000002190FAA0F2B2FA82F2034B03EB820203
:1010D000C2F880107047000000000E420120014954
:1010E0000862704700000E42012190FAA0F2B2FAA5
:1010F00082F2034B03EB8202C2F8801070470000BB
:1011000000000E4270B504460D461148006820F0FC
:1011100002000F4908600846006820F001002043E3
:1011200008600C48006840F004000A490860012D7E
:1011300001D130BF04E040BF01F018FB01F016FB05
:101140000448006820F004000249086070BD0000F7
:101150000070004010ED00E02DE9F04706464FF02A
:101160000008002500270024A146012E31D0022EC0
:1011700056D0102E5FD132484468006800F080706D
:1011800008B33048C4F38341475C04F4803078B13D
:101190002B484068C0F340402B4911F8008004F40C
:1011A000803040B12948B0FBF8F000FB07F502E0C1
:1011B000274807FB00F52248406800F48000B0F59E
:1011C000800F01D1A94603E068000321B0FBF1F9CB
:1011D00032E01B48046A04F44070B0F5807F05D10A
:1011E00004F0020010B14FF4004918E004F440701C
:1011F000B0F5007F07D11248406A00F0020010B13C
:1012000049F640490BE004F44070B0F5407F06D148
:101210000B48006800F4003008B14FF224490BE09D
:1012200000F08CF906494968C1F38131491C490035
:10123000B0FBF1F900E000BF00BF4846BDE8F08711
:1012400000100240EE340008FE34000800127A005C
:1012500000093D00F8B5044600260025207800F07E
:10126000010000286BD000274348C06900F080507F
:1012700070B900BF4048C06940F080503E49C86125
:101280000846C06900F08050009000BF00BF0127F1
:101290003A48006800F48070B0B93848006840F4FB
:1012A000807036490860FFF733FE064606E0FFF718
:1012B0002FFE801B642801D90320F8BD2F48006849
:1012C00000F480700028F2D02B48006A00F44075CA
:1012D0002DB3A08800F44070A84220D02648006AB0
:1012E00020F440750120264908600020086022484B
:1012F000056205F0010090B1FFF70AFE064608E01E
:10130000FFF706FE801B41F28831884201D9032095
:10131000D3E71948006A00F002000028F0D0164810
:10132000006A20F440706168084313490862012F85
:1013300004D10846C06920F08050C86100BF207801
:1013400000F00200022807D10B48406820F440401A
:10135000A168084308494860207800F01000102870
:1013600007D10548406820F48000E168084302493D
:1013700048600020A1E7000000100240007000401B
:101380004004424270B504460D460CB9012070BDC0
:101390005A48006800F00700A8420ED2574800687B
:1013A00020F007002843554908600846006800F00F
:1013B0000700A84201D00120E9E7207800F00200F0
:1013C00002281DD1207800F00400042805D14C48E3
:1013D000406840F4E0604A494860207800F0080026
:1013E000082805D14648406840F4605044494860A8
:1013F0004348406820F0F000A16808434049486035
:10140000207800F0010078B36068012806D13C48DC
:10141000006800F4003090B90120B8E76068022845
:1014200006D13748006800F0007040B90120AEE7EF
:101430003348006800F0020008B90120A7E73048EF
:10144000406820F00300616808432D494860FFF7B9
:101450005FFD064609E0FFF75BFD801B41F2883126
:10146000884202D9032092E707E02548406800F04F
:101470000C006168B0EB810FEDD12048006800F0EE
:101480000700A8420ED91D48006820F00700284335
:101490001A4908600846006800F00700A84201D019
:1014A000012074E7207800F00400042807D11448D4
:1014B000406820F4E060E168084311494860207802
:1014C00000F00800082808D10D48406820F460505A
:1014D000216940EAC1000A49486000F03FF8084924
:1014E0004968C1F30311074A515CC84006490860C6
:1014F00006480068FFF732FD002048E70020024060
:1015000000100240C43400084C00002054000020A9
:1015100001480068704700004C00002000B5FFF74C
:10152000F7FF04494968C1F30221034A515CC840EE
:1015300000BD000000100240D434000800B5FFF7E1
:10154000E7FF04494968C1F3C221034A515CC8401E
:1015500000BD000000100240D434000870B5002126
:101560000022002400230020134D696801F00C05BF
:10157000F5B1042D02D0082D19D101E00F4819E072
:101580000F4DC1F38346AB5D01F4803555B10A4D73
:101590006D68C5F340450B4E725D084D5D43B5FB6C
:1015A000F2F402E0084D03FB05F4204602E000BF20
:1015B000024800BF00BF70BD0010024000127A0058
:1015C000DC340008EC34000800093D00F8B504469E
:1015D0000CB90120F8BD207800F00100002878D077
:1015E000F848406800F00C0004280CD0F54840682A
:1015F00000F00C00082811D1F248406800F4803057
:10160000B0F5803F0AD1EF48006800F400300028B0
:101610005FD0606800285CD10120DBE700BF606814
:10162000B0F5803F06D1E748006840F48030E549D6
:10163000086028E0606858B9E248006820F480300B
:10164000E04908600846006820F4802008601AE03D
:101650006068B0F5A02F0BD1DA48006840F4802014
:10166000D84908600846006840F4803008600AE005
:10167000D448006820F48030D249086008460068E9
:1016800020F48020086000BF606888B1FFF740FC4C
:10169000054606E0FFF73CFC401B642801D9032007
:1016A00098E7C848006800F400300028F2D010E045
:1016B000FFF72EFC054606E0FFF72AFC401B6428D6
:1016C00001D9032086E7BF48006800F400300028F5
:1016D000F2D1207800F00200022857D1B9484068C2
:1016E00000F00C0050B1B748406800F00C0008282A
:1016F00018D1B448406800F4803098B9B148006807
:1017000000F0020020B12069012801D0012061E72A
:10171000AC48006820F0F800616940EAC100A949BE
:10172000086033E02069E8B10120A7490860FFF7AD
:10173000EFFB054606E0FFF7EBFB401B022801D953
:10174000032047E79F48006800F002000028F2D01D
:101750009C48006820F0F800616940EAC10099499E
:10176000086013E0002098490860FFF7D1FB0546A8
:1017700006E0FFF7CDFB401B022801D9032029E733
:101780009048006800F002000028F2D1207800F0B4
:10179000080008282DD1A069B8B101208B49086044
:1017A000FFF7B6FB054606E0FFF7B2FB401B022839
:1017B00001D903200EE78348406A00F002000028A8
:1017C000F2D0012000F0D6FF13E000207F4908602E
:1017D000FFF79EFB054606E0FFF79AFB401B022839
:1017E00001D90320F6E67748406A00F0020000289D
:1017F000F2D1207800F00400042873D1002771484A
:10180000C06900F0805070B900BF6E48C06940F0F8
:1018100080506C49C8610846C06900F08050009053
:1018200000BF00BF01276A48006800F48070B0B9AB
:101830006748006840F4807065490860FFF768FBFE
:10184000054606E0FFF764FB401B642801D903202E
:10185000C0E65F48006800F480700028F2D000BF46
:10186000E068012806D15748006A40F00100554958
:10187000086227E0E06858B95248006A20F0010089
:10188000504908620846006A20F00400086219E026
:10189000E06805280BD14B48006A40F00400494934
:1018A00008620846006A40F0010008620AE0454804
:1018B000006A20F00100434908620846006A20F0EF
:1018C0000400086200BFE068A0B1FFF721FB0546F5
:1018D00009E0FFF71DFB401B41F28831884202D925
:1018E000032077E622E03748006A00F00200002873
:1018F000EFD012E0FFF70CFB054608E0FFF708FB0E
:10190000401B41F28831884201D9032062E62D480C
:10191000006A00F002000028F0D1012F05D129480B
:10192000C06920F080502749C86100BFE069C8B392
:101930002448406800F00C00082860D0E0690228C4
:1019400048D1002020490866FFF7E2FA054606E084
:10195000FFF7DEFA401B022801D903203AE61948B6
:10196000006800F000700028F2D1206AB0F5803FD6
:1019700007D11448406820F40030A1680843114999
:101980004860D4E9080108430E49496821F47411FC
:1019900008430C49486001200B490866FFF7B8FA74
:1019A000054607E03DE0FFF7B3FA401B022801D9E6
:1019B00003200FE60348006800F000700028F2D012
:1019C0002FE000000010024000004242800442422A
:1019D00000700040002014490866FFF799FA054698
:1019E00006E0FFF795FA401B022801D90320F1E534
:1019F0000E48006800F000700028F2D111E0E069A4
:101A0000012800D1E6E50948466806F48031206ADD
:101A1000814204D106F47011606A814201D0012034
:101A2000D8E50020D6E50000000042420010024048
:101A30007047000010B5044620680068C0F34000FD
:101A400068B120684068C0F3400040B12046FFF70D
:101A5000EFFF2068406820F00200216848604FF4E2
:101A60000030024908600120607410BD1404014078
:101A70002DE9F04780460C46914600250026AA46EF
:101A80000027B8F1000F00D014B90120BDE8F0879D
:101A9000D8F800004068C0F3800008B10120F5E7E5
:101AA000404600F096FF05464FF46160B5FBF0F745
:101AB000B5FBF0F100FB11503C21B0FBF1F0607080
:101AC0004FF46160B5FBF0F100FB11503C21B0FB1D
:101AD000F1F201FB1200A070182F39D31820B7FBC8
:101AE000F0FAB7FBF0F100FB11702070404600F0F7
:101AF00064FF0646701C18B1AE4201D9761B01E0A6
:101B00004FF0FF360AEB4A00C000C0EB4011C1EBBA
:101B10000020A5EB00152946404601F018F808B151
:101B20000120B3E7701C38B12E443146404600F026
:101B3000F7FF40B10120A9E73146404600F0F0FF31
:101B400008B10120A2E75146404600F053FE00E0F4
:101B50002770B9F1000F0BD0207800F03EFE207006
:101B6000607800F03AFE6070A07800F036FEA07059
:101B700000208BE770B5044600250CB9012070BD2C
:101B8000607C20B900202074204600F053F8022029
:101B90006074204600F0E6F918B10420607401205A
:101BA000EDE7204600F081FE18B1042060740120AA
:101BB000E5E72068406820F0070021684860A068D9
:101BC00028B11B48006820F0010019490860184836
:101BD000001F006820F46070A16808431449091FC1
:101BE00008606068401C08B1656809E00120FFF7E3
:101BF000B3FA05461DB9042060740120BFE76D1ECD
:101C0000C5F3034021688860A8B22168C8602046F7
:101C100000F068FE18B1042060740120AFE70021D5
:101C2000E17301216173A173012060740020A6E7B4
:101C3000306C004038B504460F49206888421AD1FC
:101C4000FFF74CFA00BF0D48C06940F000600B4937
:101C5000C8610846C06900F00060009000BF00BF86
:101C6000012007490860002201212920FFF7D6F949
:101C70002920FFF7C3F938BD0028004000100240BA
:101C80003C0442422DE9F84304460D46174600261F
:101C90000020009004B115B90120BDE8F88300BF11
:101CA000207C012801D10220F7E70120207400BF29
:101CB00002206074002269462046FFF7D9FE08B171
:101CC0000120EAE79DF800004FF4616148439DF868
:101CD0000110C1EB011100EB81009DF8021000EB37
:101CE00001085FB928784FF4616148436978C1EB16
:101CF000011100EB8100A978461812E0287800F065
:101D000061FD4FF4616100FB01F9687800F05AFD54
:101D1000C0EB001009EB8009A87800F053FD09EB37
:101D20000006464501D2184806443146204600F0D8
:101D3000F7FE38B10420607400BF0020207400BF9B
:101D40000120AAE72068406820F00200216848606E
:101D50002068006840F00200216808600B480068B5
:101D600040F400300949086008480830006840F431
:101D700000300649083108600120607400BF00206F
:101D8000207400BF00BF88E78051010000040140BB
:101D90002DE9F04704460D46904600260027B1463F
:101DA00004B115B90120BDE8F08700BF207C0128EF
:101DB00001D10220F7E70120207400BF02206074E7
:101DC000B8F1000F06D1E978E17369786173A978F9
:101DD000A1730BE0E87800F0F5FCE073687800F0A0
:101DE000F1FC6073A87800F0EDFCA073A27B617B2E
:101DF000E07B00F053FE2073207B2870204600F02B
:101E0000E8FD06464FF46160B6FBF0F9B9F1180F32
:101E10002FD91820B9FBF0F000EB4000C000C0EB58
:101E20004011C1EB0020A6EB00163146204600F021
:101E30008EFE38B10420607400BF0020207400BF03
:101E40000120B0E7204600F0B8FD0746781C80B1BD
:101E5000B7420ED20B4807443946204600F060FED8
:101E600038B10420607400BF0020207400BF01203E
:101E700099E70120607400BF0020207400BF00BFFC
:101E800091E70000805101002DE9F04704460D461E
:101E900090460026002704B115B90120BDE8F0875F
:101EA00000BF207C012801D10220F7E70120207427
:101EB00000BF02206074B8F1000F0BD128784FF4F6
:101EC000616148436978C1EB011100EB8100A97899
:101ED000461812E0287800F075FC4FF4616100FBB1
:101EE00001F9687800F06EFCC0EB001009EB800986
:101EF000A87800F067FC09EB00063146204600F0A8
:101F000026FE38B10420607400BF0020207400BF9A
:101F10000120C3E72068406820F005002168486080
:101F2000204600F04AFD0746781C80B1B7420ED229
:101F30000B4807443946204600F0F2FD38B1042032
:101F4000607400BF0020207400BF0120A6E70120BC
:101F5000607400BF0020207400BF00BF9EE7000037
:101F60008051010070B5044600250CB9012070BDF8
:101F70002068406820F0080021684860FEF7C8FF2C
:101F8000054607E0FEF7C4FF401BB0F57A7F01D994
:101F90000320ECE72068406800F008000028F1D03A
:101FA0000020E4E74FF0E020006940F002004FF02D
:101FB000E0210861704770B504462546681EB0F1FF
:101FC000807F01D301200FE0681E4FF0E0214861BF
:101FD0000F214FF0FF3001F043F800204FF0E021D7
:101FE000886107200861002070BD4FF0E020006983
:101FF00020F002004FF0E021086170477047704701
:102000002DE9F84F0446206805682068C6682068F6
:1020100047694FF00009CA4605F00F09B9F1000FF2
:102020000AD105F0200038B106F0200020B120468A
:1020300000F066FEBDE8F88FB9F1000F7BD007F025
:10204000010018B906F49070002874D005F0010062
:1020500030B106F4807018B1606C40F0010060642B
:1020600005F0040030B107F0010018B1606C40F0D9
:102070000200606405F0020030B107F0010018B101
:10208000606C40F00400606405F0080048B106F0A0
:10209000200010B907F0010018B1606C40F0080092
:1020A0006064606C002845D005F0200028B106F07F
:1020B000200010B1204600F023FE20684069C0F3E4
:1020C000801A606C00F0080010B9BAF1000F2CD033
:1020D000204600F0CFFD2068406900F0400000B3CA
:1020E00000BF00BF2168143151E8001F21F04000FB
:1020F0002168143141E80002002AF3D100BFE06BEF
:1021000050B17748E16B4863E06BFEF7F5FC88B1AE
:10211000E06B416B88470DE02046FFF770FF09E058
:1021200009E02046FFF76BFF04E02046FFF767FF5A
:10213000002060647EE7206B012877D105F0100055
:10214000002873D006F010000028FAD000BF00204D
:10215000009020680068009020684068009000BFF0
:1021600000BF2068406900F0400000285FD0E06BAD
:10217000006840681FFA80F8B8F1000F55D0A08DB4
:10218000404552DDA4F82E80E06B8069202843D0C2
:1021900000BF00BF21680C3151E8001F21F480709E
:1021A00021680C3141E80002002AF3D100BF00BFD2
:1021B00000BF2168143151E8001F21F0010021689F
:1021C000143141E80002002AF3D100BF00BF00BF74
:1021D0002168143151E8001F21F0400021681431BA
:1021E00041E80002002AF3D100BF202084F8420019
:1021F0000020206300BF00BF21680C3151E8001FA0
:1022000021F0100021680C3141E80002002AF3D1CE
:1022100000BFE06BFEF744FC02206063A08DE28DFE
:10222000801A81B22046FFF7E9FE03E742E0A08D65
:10223000E18D401A1FFA80F8E08DD0B3B8F1000F9D
:1022400037D000BF00BF21680C3151E8001F21F4D6
:10225000907021680C3141E80002002AF3D100BFE0
:1022600000BF00BF2168143151E8001F21F00100B8
:102270002168143141E80002002AF3D100BF202078
:1022800084F842000020206300BF00BF21680C31A9
:1022900051E8001F21F0100021680C3141E80002D4
:1022A000002AF3D100BF0220606341462046FFF7B9
:1022B000A5FEBFE605F0800030B106F0800018B141
:1022C000204600F019FEB5E605F0400030B106F0FA
:1022D000400018B1204600F003FDABE600BFA9E6C0
:1022E000612C000810B504460CB9012010BDA0698E
:1022F00000B100E000BF94F8410028B9002084F844
:102300004000204600F02AF8242084F8410020688C
:10231000C06820F400502168C860204600F06EFDBF
:102320002068006920F490402168086120684069B5
:1023300020F02A00216848612068C06840F40050FD
:102340002168C86000206064202084F8410084F87F
:1023500042000020606300BFC8E7000010B586B0EF
:102360000446002002900390049005901E492068C6
:10237000884236D100BF1D48806940F480401B4927
:1023800088610846806900F48040019000BF00BF6A
:1023900000BF0846806940F00400886108468069F3
:1023A00000F00400019000BF00BF48150290022019
:1023B00003900320059002A90D48FEF70BFC4FF493
:1023C0008060029000200390049002A90848FEF764
:1023D00001FC002201212520FEF720FE2520FEF72A
:1023E0000DFE06B010BD0000003801400010024094
:1023F0000008014070472DE9F84F04460E46174685
:1024000099464FF0000A94F84100202850D106B1B7
:1024100017B90120BDE8F88F00206064212084F8FE
:102420004100FEF775FD8246A784E784A068B0F5F9
:10243000805F04D1206910B90025B04602E035461E
:102440004FF000081EE05346002280212046CDF8C0
:10245000009000F081FD20B1202084F8410003208D
:10246000D8E745B9B8F80000C0F308002168486013
:1024700008F1020803E02878216848606D1CE08CB0
:10248000401EE084E08C0028DDD15346002240212C
:102490002046CDF8009000F05FFD20B1202084F8A8
:1024A00041000320B6E7202084F841000020B1E776
:1024B0000220AFE7704700BFFEE700000EB5002026
:1024C0000090019002901A481A4908608115194835
:1024D0008160002101730121017581614FF4602148
:1024E000C161002013494860022112480161FEF7D2
:1024F000A5F808B1FDF74AFF0220009001200190E5
:102500000020029069460B48FDF7E4FF08B1FDF793
:102510003DFF032000900220019069460548FDF729
:10252000D9FF08B1FDF732FF0248FDF745FF0EBDA8
:10253000002401404011002000B585B0002001902A
:1025400002900390049000BF5248806940F0100050
:10255000504988610846806900F01000009000BF73
:1025600000BF00BF0846806940F02000886108462F
:10257000806900F02000009000BF00BF00BF084647
:10258000806940F0040088610846806900F004001A
:10259000009000BF00BF00BF0846806940F00800FF
:1025A00088610846806900F00800009000BF00BF05
:1025B000012202213848FEF7A5FC00224FF44061B9
:1025C0003648FEF79FFC4FF46040019003200290D4
:1025D00001A93348FEF7FEFA01200190314802902C
:1025E0000020039001A92C48FEF7F4FA0220019084
:1025F0000120029003900220049001A92648FEF7D2
:10260000E9FA49F6D01001900320029001A922486E
:10261000FEF7E0FA20200190224802900220039069
:1026200001A91D48FEF7D6FA48F2FF2001900320C9
:10263000029001A91948FEF7CDFA4FF440600190CD
:1026400001200290002003900220049001A9134869
:10265000FEF7C0FA4FF4E040019000200290022003
:10266000039001A90D48FEF7B5FA4FF48070019070
:102670000C4802900220039001A90848FEF7AAFA2C
:10268000002201210620FEF7C9FC0620FEF7B6FC59
:1026900005B000BD0010024000080140000C0140E0
:1026A00000100140000011101CB50120FEF754FD80
:1026B0001B4908600020019000901A481A490860E0
:1026C0004FF0FF3048604FF4807117488160FFF78A
:1026D00051FA08B1FDF75AFE00208DF804008DF87C
:1026E00005008DF80600002201A90F48FFF7CCFB7A
:1026F00008B1FDF74BFE00208DF8000006208DF894
:10270000010001208DF8020000208DF80300002256
:1027100069460548FFF73CFB08B1FDF737FE1CBDD5
:102720003C000020002800407011002010B50B482C
:102730000B4908604FF4165048600021084881603A
:10274000C16001610C21416100218161C161FFF71C
:10275000C9FD08B1FDF71AFE10BD000000380140A8
:102760008413002000BFFEE700BFFEE720BF00BFCC
:102770007047704708B508490968C9084FF47A726C
:10278000B1FBF2F14143009100BF00BF00994A1E26
:1027900000920029F9D108BD4C00002010B5054871
:1027A000FFF748F90120044908700448006804490B
:1027B000086010BD701100201100002050000020A2
:1027C00014000020014600BF080900EB8000420011
:1027D00001F00F001044C0B270470146002203E030
:1027E000521CA1F10A00C1B20A29F9D2100741EA2C
:1027F000106070472DE9F047064688460027002400
:102800000025A146F77B747BB57B00BF40E0012C1F
:102810000BD0032C09D0052C07D0072C05D0082C91
:1028200003D00A2C01D00C2C0CD11F2D01D26D1C11
:102830002CE00C2C02D0641C012527E0012401258A
:102840007F1C23E0042C05D0062C03D0092C01D0DA
:102850000B2C06D11E2D01D26D1C17E0641C012526
:1028600014E0022C12D11C2D01D26D1C0EE01C2D87
:1028700008D1B8B200F088F808B16D1C06E0641CFD
:10288000012503E01D2D01D1641C012509F1010979
:10289000C145BCD3F7737473B573EAB2E1B238467D
:1028A00000F0FCF83073BDE8F08770B504460025F1
:1028B000FEF72EFB054607E0FEF72AFB401BB0F5AE
:1028C0007A7F01D9032070BD2068406800F02000A5
:1028D0000028F1D02068406840F01000216848606E
:1028E0000020F0E770B5044600252068406820F01D
:1028F000100021684860FEF70BFB054607E0FEF775
:1029000007FB401BB0F57A7F01D9032070BD20681A
:10291000406800F020000028F1D00020F6E7000019
:10292000F8B500BF002269461448FFF7A1F89DF8EA
:1029300002009DF80110C1EB011100EB81009DF830
:102940000010C1EB4112C2EB012100EB01144FF466
:102950007A7044430A4800680949091F096840EA37
:10296000014508480068401B4FF47A714843054907
:102970000968B0FBF1F6A019F8BD00007011002045
:10298000142800403C000020014601F0030008B17B
:10299000002070476420B1FBF0F200FB121008B178
:1029A0000120F6E74FF4C870B1FBF0F200FB121003
:1029B00008B90120EDE70020EBE7014600220023E3
:1029C0000868006A82B20868406A83B243EA02403B
:1029D000704730B5014600220023002400200D6816
:1029E000AD69AAB20D68ED69ACB20D68AD69ABB264
:1029F0009A4205D00D68ED6963F31F45284601E052
:102A000044EA024030BD00000EB5002202A90E4883
:102A1000FFF72EF84FF4617102A800F017F80020BC
:102A200001909DF808008DF800009DF809008DF8D0
:102A300001009DF80A008DF8020000226946024854
:102A4000FFF720F90EBD00007011002070B50122C3
:102A50000123012445F26045A94200DD294685781D
:102A60006A183C2592FBF5F54678AB193C2593FB9B
:102A7000F5F50678AC193C2592FBF5F605FB162515
:102A800085703C2593FBF5F605FB1635457018253A
:102A900094FBF5F605FB1645057070BDF0B50446D0
:102AA0000B460021002504F5FA61032B1BD2C3EB72
:102AB000C30000EB03100926B0FBF6F01044001D24
:102AC0004618481E06EB90066427B0FBF7F0361A4E
:102AD000481EBF00B0FBF7F030440726B0FBF6F706
:102AE00006FB17051AE0C3EBC30000EB0310092631
:102AF000B0FBF6F01044001D084400EB9100642682
:102B0000B1FBF6F6801B4FF4C876B1FBF6F6304405
:102B1000801E0726B0FBF6F706FB1705E8B2F0BDEE
:102B200070B504460D4600262046FFF7BEFE08B1EC
:102B300001260AE0280C21680862A8B221684862D0
:102B40002046FFF7CFFE00B10126304670BD70B5BC
:102B500004460D4600262046FFF7A7FE08B10126D1
:102B60000AE0280C21688861A8B22168C861204663
:102B7000FFF7B8FE00B10126304670BD7047000077
:102B800010B5FEF7CBF9104800684FF4FA71B0FBAE
:102B9000F1F201FB120088B90B4800684900B0FB54
:102BA000F1F201FB120008B1012000E00020044610
:102BB00022464FF400610548FEF7A4F90248006878
:102BC000401C0149086010BD48000020000C014075
:102BD00000B593B0282109A8FDF7F6FA142104A83E
:102BE000FDF7F2FA00200090019002900390092076
:102BF00009904FF480300A9000200B9001200D9036
:102C00000F9002201090C10311914FF4E011129126
:102C100009A8FEF7DBFC08B1FDF7B8FB0F20049014
:102C200002200590002006904FF48060079000205D
:102C30000890022104A8FEF7A5FB08B1FDF7A6FB4A
:102C4000032000904FF400700190800102906846CC
:102C5000FEF700FB08B1FDF799FB13B000BD70470C
:102C600070B505466C6A0020E085E0842046FFF7D9
:102C7000C6F970BD00BF00BF02680C3252E8002FD9
:102C800022F4907102680C3242E80013002BF3D159
:102C900000BF00BF00BF0268143252E8002F22F0CC
:102CA00001010268143242E80013002BF3D100BF87
:102CB000016B01290ED100BF00BF02680C3252E83F
:102CC000002F22F0100102680C3242E80013002BA2
:102CD000F3D100BF202180F842100021016370472A
:102CE00010B504462068C06820F040002168C86024
:102CF000202084F841002046FFF7DCFB002010BDB7
:102D0000F8B5044694F84200222875D1A068B0F5C1
:102D1000805F0CD1206950B90025A66A2068406800
:102D2000C0F308003080A06A801CA06215E0A56A8C
:102D30000026A068B0F5805F03D0A06828B920699C
:102D400018B920684068287004E02068406800F0E6
:102D50007F002870A06A401CA062E08D401E80B2F7
:102D6000E085002846D12068C06820F02000216856
:102D7000C8602068C06820F480702168C86020683E
:102D8000406920F0010021684861202084F8420059
:102D900000206063206B012826D10020206300BF43
:102DA00000BF21680C3151E8001F21F0100021689C
:102DB0000C3141E80002002AF3D100BF206800680E
:102DC00000F0100010280AD100BF002000902068F9
:102DD0000068009020684068009000BF00BFA18D8F
:102DE0002046FFF70BF902E02046FFF703FB002027
:102DF000F8BD01E00020FBE70220F9E770B50446CA
:102E00002168096921F44051E26811432268116187
:102E10002269A1681143626941EA02052168C96813
:102E200041F20C62914329432268D16021684969CB
:102E300021F44071A2691143226851612D4A216831
:102E4000914202D1FEF77AFB01E0FEF767FB00EB4F
:102E5000C00101EB001162689200B1FBF2F100EBDE
:102E6000C00202EB001263689B00B2FBF3F2642322
:102E7000B2FBF3F202EBC20303EB0212A1EB8201FD
:102E8000322202EB01116422B1FBF2F101F0F001F8
:102E900000EBC00202EB001263689B00B2FBF3F28E
:102EA0006423B2FBF3F201EB021200EBC00101EB71
:102EB000001163689B00B1FBF3F100EBC00303EB6F
:102EC00000136668B600B3FBF6F36426B3FBF6F3B3
:102ED00003EBC30606EB0313A1EB8301322303EBE1
:102EE00001116423B1FBF3F101F00F0111442268D9
:102EF000916070BD00380140014691F841002128E1
:102F000028D18868B0F5805F0BD1086948B90A6A92
:102F10001088C0F308000B685860086A801C0862BB
:102F200005E00B6A581C086218780B685860C88C5A
:102F3000401E80B2C88458B90868C06820F080007C
:102F40000B68D8600868C06840F040000B68D86023
:102F5000002070470220FCE72DE9F84304460D46A7
:102F600017469846089E31E0701C70B3FDF7D0FFFD
:102F7000A0EB0800B04200D816B90320BDE8F883E2
:102F80002068C06800F00400F8B1802D1ED0402DEC
:102F90001CD020680068C0F3C000B0B100BF0020A2
:102FA000009020680068009020684068009000BF92
:102FB00000BF2046FFF75EFE0820606400BF0020CF
:102FC00084F8400000BF0120D8E7FFE720680068D0
:102FD0002840A84201D1012000E00020B842C3D01F
:102FE0000020CBE710B51448FFF70AF81348006833
:102FF00000F0200020281DD1104A121D1268D1B205
:103000000F4A1288521CC2F308000E4A12689042FE
:1030100004D00D4A11540A4A10600AE00A4A1154B9
:10302000074A1060074A1288521CC2F30802054B77
:103030001A6000BF10BD000084130020003801405A
:1030400044000020400000208411002000BFFEE763
:1030500002480068C0F30220704700000CED00E059
:1030600010B5002804DB0A07130E054A135406E0C6
:103070000A07140E034A00F00F031B1FD45410BD9F
:1030800000E400E018ED00E0002112480068114A59
:10309000528A10440F4AD26810440E4A128A1044D1
:1030A0000C4A526810440B4A9268104401440020B4
:1030B00009E0094A52F83020074B03EBC0035B6874
:1030C0001A441144401C034A528A8242F1DC0846E9
:1030D00070470000FC0000201401002010B500F033
:1030E0001BF810BDF0B503460C46002040EA04066C
:1030F00043EA00075640304600F0DEF80546384601
:1031000000F0DAF845400348B5FBF0F100FB115040
:10311000F0BD000040420F0010B5074807490860A5
:1031200000208860C8600882486148824FF480515E
:103130000348FDF749F810BD55AA55AAFC00002028
:1031400014010020FDF7F6FEFFF742FD00204D4977
:103150000870FFF7F1F9FFF7B1F9FFF7E7FAFFF7AA
:10316000A3FA012047490870FFF74EFCFFF7D4FF90
:10317000FDF710F9444B9A6859681868FFF7B2FFD9
:10318000424908600846006800EB80004000086083
:1031900076E0FFF7C5FB3E4908603E48007801280D
:1031A0005BD13D48006808B1012000E000200246E4
:1031B0004FF400613948FDF7A5FE3748006808B9AB
:1031C000012000E000203449086000BF4FF4805126
:1031D0003248FDF78FFE08B1012000E000200028F2
:1031E000F4D04FF480512D48FDF784FE08B1012042
:1031F00000E0002080B1002000F088F8FFF790FB8D
:10320000044621462648008800F0DEF8FFF7FCFB64
:1032100000202049087020E02248006822490968FF
:10322000401A4EF6602188420AD3002202211F482C
:10323000FDF768FE012202211C48FDF763FE0CE049
:103240001848006818490968401A1949884204D387
:10325000FFF7DAFB00200F4908701648007860B9C4
:103260000C48007848B900F0E1F800F01FF9114867
:103270000078012801D100F049F800200D490870BC
:1032800087E7000010000020341100202C000020EF
:10329000340000201100002038000020000C014004
:1032A0000C00002050000020140000200008014005
:1032B000C0D401001800002080EA104004494843AF
:1032C00080EA50300349484380EA104070470000CC
:1032D0006BCAEB8535AEB2C20A4A528AB2F5007F9C
:1032E0000EDA084A528A084B43F83200054A528ADD
:1032F00003EBC2025160034A528A521C014B5A82AC
:1033000070470000FC0000201401002070B5054645
:1033100000240EE02448FDF72BFB64212248FDF732
:1033200067FA28B92048FDF785F9204941F82400BB
:10333000641C022CEEDB1D4840681D4908601B48D8
:10334000006864214843C0F30F301A4908803DB13A
:10335000FFF7E6FA0446214615480068FFF7BCFF70
:10336000124800881449154A126821F812000F48C3
:1033700080881349134A126821F812000F48006828
:10338000401C2821B0FBF1F201FB12000B49086040
:103390000C480068401C2821B0FBF1F201FB120030
:1033A0000849086070BD0000401100201411002081
:1033B000080000200C0000205C000020000000201D
:1033C000AC0000200400002070B504460D461348F0
:1033D0000482C56012480068104948600846408A67
:1033E000182101EBC0000D498860FFF74DFE0B4925
:1033F0004861642318220B48FEF7FDFF0748408A06
:10340000002808DD0548408AC004020C64230649F0
:103410000448FEF7F0FFFFF761FE70BDFC000020DE
:103420002C000020841300201401002008B500BFE8
:103430001A48C06940F080501849C8610846C06900
:1034400000F08050009000BF00BF00BF0846C06978
:1034500040F00060C8610846C06900F0006000905C
:1034600000BF00BF8815FDF72BFE0D48006840F037
:1034700004000B49086001200A4908700002FDF7AA
:1034800033FEFEF7B2FD002202210748FDF73AFDA8
:1034900001210846FDF736FE08BD0000001002407D
:1034A00000700040190000200008014010B5FFF72F
:1034B0008FFBFFF741F8FFF701F8FFF737F9FEF749
:1034C00071FD10BD000000000000000001020304B7
:1034D00006070809000000000102030402030405B6
:1034E000060708090A0B0C0D0E0F1010010202034B
:1034F0000405060708090A0B0C0D0E0F1010010237
:1035000041542B4346554E3D312C310D0A000000ED
:1035100041544F0D0A0000002B2B2B003C350008B6
:10352000000000205C000000280100089835000819
:103530005C000020D41900004401000800000000D5
:10354000000000000000000000000000000000007B
:103550000000000000000000000000001835000816
:1035600000350008103500080000000000000000D1
:103570000000000001000000010000000000000049
:10358000000000000000000000127A0000000000AF
:08359000100000000100000022
:04000005080000ED02
:00000001FF
