:020000040800F2
:10000000500E00209901000801350008E531000874
:1000100095340008E50B0008093E000800000000C8
:10002000000000000000000000000000F937000898
:10003000390C00080000000005350008FB370008F7
:10004000B3010008B3010008B3010008B3010008C0
:10005000B3010008B3010008B3010008B3010008B0
:10006000B3010008B3010008B3010008FD0B00084C
:10007000B3010008B3010008B3010008B301000890
:10008000B3010008B3010008690A0008B3010008C1
:10009000B3010008B3010008B30100083B0C0008DD
:1000A000B3010008B3010008B3010008B301000860
:1000B000B3010008B3010008B3010008B301000850
:1000C000B3010008B3010008B3010008B301000840
:1000D000B3010008593C0008B3010008B30100084F
:1000E000B301000831350008B301000800F002F840
:1000F00000F043F80AA090E8000C82448344AAF17F
:100100000107DA4501D100F038F8AFF2090EBAE87C
:100110000F0013F0010F18BFFB1A43F0010318473B
:10012000DC440000FC440000103A24BF78C878C1C9
:10013000FAD8520724BF30C830C144BF04680C60ED
:10014000704700000023002400250026103A28BF35
:1001500078C1FBD8520728BF30C148BF0B60704739
:100160001FB500F035FC04000020002103F082FFE1
:10017000401C60601FBD10B510BD00F0EDFB1146C6
:10018000FFF7EEFF03F000FF00F014FC03B4FFF7ED
:10019000F2FF03BC00F060FC0948804709480047B3
:1001A000FEE7FEE7FEE7FEE7FEE7FEE7FEE7FEE727
:1001B000FEE7FEE704480549054A064B7047000084
:1001C00091380008ED00000850080020500E002073
:1001D000500A0020500A00200FB400B58DB010A9BD
:1001E000099000910B904FF0FF300A9000200C9086
:1001F000064878440690064878446A4607900F9966
:1002000009A800F0B5F90DB05DF814FB9B030000E0
:10021000B30300002DE9FF5F1D464FF0FF3B914601
:100220004FF000085F46D5E90146A96901987F1C97
:100230008847296A824688470028F6D1BAF1FF3FED
:100240000CD0002E24F4C06419DD600614D5BAF178
:100250002B0F09D0BAF12D0F0ED103E0584604B090
:10026000BDE8F09F44F48064A96901987F1C884729
:10027000761E8246002E02DDBAF1300F03D0B9F1AE
:10028000000F26D032E0A969761E01987F1C44F445
:1002900000748847002E824605DDBAF1780F06D03B
:1002A000BAF1580F03D0B9F1000F10D01EE0B9F128
:1002B000000F02D0B9F1100F18D1A969761E01986C
:1002C0007F1C24F4007488478246102002E0082036
:1002D00000E00A20814609E0A96908FB0908761EAA
:1002E00001987F1C44F4007488478246002E05DD87
:1002F0004946504600F028F90028EDDAE9690198EE
:100300008847A00502D46FF00100A8E7E00725D1D7
:10031000600613D5600502D5C8F1000000E0404634
:1003200029680A1D2A600968220501D5087015E0B0
:10033000220701D5088011E008600FE02868011D40
:1003400029600068210502D580F8008006E02107B9
:1003500002D5A0F8008001E0C0F8008038467EE7B2
:1003600030B505460B462A4613F8014B12F8010B2F
:1003700008B1A042F8D01CB1002802D06D1CF1E7F2
:10038000284630BD10B5431C02E010F8011B71B1C6
:100390008107FAD14FF0013202C88C1A8C4314EA5B
:1003A000C211F9D0C01A0A0603D0C01E10BDC01A6F
:1003B00010BD0A0401D0801E10BD0902FCD0401EF1
:1003C00010BD032A40F2308010F0030C00F01580BD
:1003D00011F8013BBCF1020F624498BF11F801CB48
:1003E00000F8013B38BF11F8013BA2F1040298BFAD
:1003F00000F801CB38BF00F8013B11F0030300F017
:100400002580083AC0F0088051F8043B083A51F8BA
:1004100004CBA0E80810F5E7121D5CBF51F8043BBF
:1004200040F8043BAFF30080D20724BF11F8013B32
:1004300011F801CB48BF11F8012B24BF00F8013B94
:1004400000F801CB48BF00F8012B704710B5203AE7
:10045000C0F00B80B1E81850203AA0E81850B1E87D
:100460001850A0E81850BFF4F5AF5FEA027C24BF33
:10047000B1E81850A0E8185044BF18C918C0BDE82A
:1004800010405FEA827C24BF51F8043B40F8043BF3
:1004900008BF7047D20728BF31F8023B48BF11F8A8
:1004A000012B28BF20F8023B48BF00F8012B704702
:1004B0004FF000020429C0F0128010F0030C00F08D
:1004C0001B80CCF1040CBCF1020F18BF00F8012B0B
:1004D000A8BF20F8022BA1EB0C0100F00DB85FEAD9
:1004E000C17C24BF00F8012B00F8012B48BF00F8A5
:1004F000012B70474FF0000200B513469446964614
:10050000203922BFA0E80C50A0E80C50B1F1200126
:10051000BFF4F7AF090728BFA0E80C5048BF0CC0D4
:100520005DF804EB890028BF40F8042B08BF704732
:1005300048BF20F8022B11F0804F18BF00F8012BA4
:1005400070477047704770473A2800D2303820F023
:100550002002412A01D3A2F13700884201D34FF093
:10056000FF307047026811441378016018467047E5
:10057000D1600549794451610449794411620021EF
:100580001161114600F02EB8EDFFFFFF530000008F
:10059000426842B1016811F8013B23B1521EC0E923
:1005A0000012184670470121C160881E70474268DA
:1005B0005AB1C368016843B983688B4205D0491EAC
:1005C000521CC0E90012002070474FF0FF30704706
:1005D00010B5044600F0E6F90068005D00F0010087
:1005E00010BD00002DE9F34F4FF0000A0C465646AF
:1005F0008DB001200C9001F10C000B9062690B98FA
:1006000001219047051E2DD0252D2CD0216A884729
:10061000C0B162690B9801219047216A8847002880
:10062000F7D16269411E0B98904700E0761CA169E2
:100630000D988847216A88470028F7D1E1690D980D
:100640008847DBE7A1690D988847A842074601D192
:10065000761CD3E7E1690D9888477F1C02D1BAF177
:10066000000F6FD06BE162690B9800273D46394659
:1006700090472A2804D162690B98012190470125EF
:10068000DFF8D08262690B9801219047A0F1300118
:100690000A290AD24745E5DC07EB870100EB410751
:1006A000303FDFD445F01005ECE7E90601D46FF0E8
:1006B00000476C280AD04C2814D0682815D06A2826
:1006C0000DD074281CD07A281AD01DE062690B98CE
:1006D000012190476C2802D045F0040514E045F054
:1006E00002050DE045F020050AE062690B98012142
:1006F0009047682802D045F0080505E045F40065FC
:1007000062690B9801219047C4E9015765283DD0E3
:1007100019DC58287AD00CDC452837D004DC252891
:1007200026D041289ED131E046282FD0472899D1A4
:100730002CE05B2877D0612828D063287CD06428FF
:1007400023D15AE0F6E06F2848D008DC66281DD097
:1007500067281BD0692821D06E2816D127E0702881
:1007600045D0732868D0752847D078280DD14DE042
:10077000A1690D988847252805463FF469AFE169CE
:100780000D9888476D1C3FF46AAFD8E00D99234659
:100790006A466FF00100AFF30080C5E045F040000D
:1007A00023464FF000026060A80736D43EE0E80719
:1007B0007FF447AF2068011D21600068290501D53D
:1007C00006701BE7290701D5068017E7A90703D59F
:1007D000F117C0E9006111E706600FE745F040003E
:1007E00023464FF008026060A80716D41EE040F6CA
:1007F0000E0125EA0100606016E045F04000234646
:100800004FF00A026060A80707D40FE045F04000EF
:100810006060A80708D5234610220D996FF00100EB
:10082000AFF3008080E007E0102223460D996FF0BF
:100830000100FFF7EFFC77E04FF0000963284F4617
:10084000C8464B46CB4602D05B2806D038E0E806C7
:1008500001D40120A060012732E06269D4F80CB015
:100860000B98012190475E2807D14FF001094946B6
:100870006269D4F80CB00B989047216939B900210E
:100880000A4603AB43F82120491C0829FADBD8B3F8
:10089000216949B308F1010862690B980121904769
:1008A0005D28F4D1B9F1000F09D0002003A951F857
:1008B0002020D24341F82020401C0828F7DB03AB5E
:1008C0002069002820794FEA40701ED05B462246FE
:1008D000CDF80080CDE901970D9900286FF0010057
:1008E00020DAAFF300801FE0C11703AA00EBD1614B
:1008F0004B1121F01F0102EB8302411A1368012002
:10090000884003431360C7E719E00D992246002889
:100910006FF00100009702DAAFF3008004E0AFF35C
:10092000008001E0AFF3008000280ADA401C06D105
:100930000C9820B14FF0FF300FB0BDE8F08F50465B
:10094000FAE7E90701D10AF1010A064400200C90F8
:1009500054E60000CCCCCC0C754600F035F8AE4621
:1009600005006946534620F00700854618B020B5BB
:10097000FFF720FCBDE820404FF000064FF00007D5
:100980004FF000084FF0000B21F00701AC46ACE837
:10099000C009ACE8C009ACE8C009ACE8C0098D46A4
:1009A0007047000010B500F013F8001D10BD00BF27
:1009B000C536000010B50446AFF300802046BDE800
:1009C0001040FFF7E3BB000000487047EC07002031
:1009D000004870470C0800204FF0013C50F8042BF1
:1009E00051F8043B9A4221D1A2EB0C03934313EA42
:1009F000CC1317D150F8042B51F8043B9A4215D16F
:100A0000A2EB0C03934313EACC130BD150F8042B45
:100A100051F8043B9A4209D1A2EB0C03934313EA29
:100A2000CC13DBD04FF00000704700BFD01A01BAE2
:100A3000B1FA81F101F0180122FA01F0CB40C1F1C5
:100A40002001DBB2C0B2C01A2CFA01F3D11A9143D3
:100A500011EAC311E6D1704701491820ABBEFEE789
:100A6000260002007047000010B5024800F01BFA93
:100A700010BD00001C07002070B50446002520684A
:100A8000806800F0010018B32068806820F0010041
:100A90002168886001F0AEF8054613E001F0AAF87D
:100AA000401B02280ED92068806800F0010048B180
:100AB000A06A40F01000A062E06A40F00100E0622D
:100AC000012070BD2068806800F001000028E5D199
:100AD0000020F6E770B505466C6AA06A00F0500089
:100AE000E0B9A06A40F40070A0622068806800F459
:100AF0006020B0F5602F0DD1207B58B9A06A20F49A
:100B00008070A062A06A00F4805018B9A06A40F01A
:100B10000100A062204600F0C3F903E0206A016BE7
:100B20002846884770BD70B505466C6AA06A40F0DB
:100B30004000A062E06A40F00400E062204600F05D
:100B4000B1F970BD70B50446656A284600F0A9F990
:100B500070BD000038B504460025002000902068D4
:100B6000806800F0010078BB2068806840F00100D8
:100B700021688860194800681949B0FBF1F00090BD
:100B800002E00098401E009000980028F9D101F082
:100B900031F8054619E001F02DF8401B022814D960
:100BA0002068806800F0010078B9A06A40F0100069
:100BB000A062E06A40F00100E06200BF002084F81B
:100BC000240000BF012038BD05E02068806800F0E7
:100BD00001000028DFD00020F5E700004C000020D5
:100BE00040420F0000BFFEE710B54FF4807102488D
:100BF000FFF75EFC10BD00005000002010B5024859
:100C000000F022FC10BD00004C07002030B590F829
:100C100040500124AC40C56B6C600468636044685C
:100C2000102C04D10468A2600468E16003E0046849
:100C3000A1600468E26030BD704710B54FF4807069
:100C400000F034FE10BD72B600BFFEE71FB527A04E
:100C500003F0ACF927A003F0A9F907E0FFF7C4FF00
:100C600022A003F0A3F923A003F0A0F924A002F02E
:100C700037FC0128F2D12348C0785428EED1112244
:100C800020490A312048FFF79CFB20482049214A8F
:100C9000214BCDE90032CDE90210204B204A21A1A1
:100CA0001948FFF799FA06281FD118480068184913
:100CB0000968CDE90010174803681748026817480B
:100CC00001681748006802F0CFFF1048006810491B
:100CD0000968CDE900100F4803680F4802680F4803
:100CE00001680F48006803F037F81FBD2B2B2B0D50
:100CF0000A00000041542B54494D450D0A000000E4
:100D00004F4B0000500000205C0100202400002018
:100D1000200000201C0000201000002014000020F3
:100D2000180000202532642F2532642F2532642CD0
:100D30002532643A2532643A253264007047000057
:100D400038B5024600230020009000BF92F824002E
:100D5000012801D1022038BD012082F8240000BF03
:100D60004868072812D21068406B0C79641E04EBA7
:100D700084051F24AC40A0430D796D1E05EB85054D
:100D80000C68AC4020431468606327E048680D2875
:100D900012D21068006B0C79E41F04EB84051F2449
:100DA000AC40A0430D79ED1F05EB85050C68AC4008
:100DB00020431468206311E01068C06A0C790D3C70
:100DC00004EB84051F24AC40A0430D790D3D05EBD9
:100DD00085050C68AC4020431468E06208680A2866
:100DE00012D31068C0680C780A3C04EB4405072451
:100DF000AC40A0430D780A3D05EB45058C68AC403E
:100E000020431468E0600FE0106800690C7804EB80
:100E100044050724AC40A0430D7805EB45058C68DC
:100E2000AC402043146820610868102802D008688C
:100E3000112827D1174C1068A0421ED11068806875
:100E400000F40000F0B91068806840F400001468F5
:100E5000A0600868102815D10F4800680F4CB0FB3F
:100E6000F4F000EB80004000009002E00098401E8B
:100E7000009000980028F9D104E0906A40F020002A
:100E80009062012300BF002082F8240000BF1846B2
:100E900061E70000002401404C00002040420F00A8
:100EA00070477047704770B5044620680568206831
:100EB000466806F0200020282DD105F00200022807
:100EC00029D1A06A00F0100018B9A06A40F400709F
:100ED000A0622068806800F46020B0F5602F13D114
:100EE000207B88B92068406820F020002168486095
:100EF000A06A20F48070A062A06A00F4805018B943
:100F0000A06A40F00100A0622046FFF7C9FF6FF021
:100F100012002168086006F08000802839D105F0B1
:100F20000400042835D1A06A00F0100018B9A06AA6
:100F300040F40050A0622068806800F4E040B0F502
:100F4000E04F0DD02068406800F48060D0B9206880
:100F5000806800F46020B0F5602F13D1207B88B941
:100F60002068406820F0800021684860A06A20F472
:100F70008050A062A06A00F4807018B9A06A40F0A6
:100F80000100A0622046FFF7D9FE6FF00C00216837
:100F9000086006F0400040280DD105F0010050B176
:100FA000A06A40F48030A062204600F0A7F86FF0FD
:100FB00001002168086070BD2DE9F041044600275A
:100FC00000250026A84614B90120BDE8F081A068DC
:100FD00010B1207D00B100BFA06A30B90020E062EE
:100FE00084F82400204600F08BF82046FFF744FDEB
:100FF0000746A06A00F01000002873D1002F71D1BD
:10100000A06A20F4885040F00200A062E1696068A4
:101010000843217B40EA41000643A068B0F5807F89
:1010200002D0A068012802D14FF4807000E00020B7
:101030000543207D012811D1207B38B9A069401ECD
:101040004FF4006141EA4030054307E0A06A40F0F8
:101050002000A062E06A40F00100E0622068406881
:1010600020F469402843216848602068806821494D
:101070000840304321688860A068B0F5807F02D0C6
:10108000A068012802D14FF4807000E00020B0F584
:10109000807F03D1208A401E4FEA00582068C06A32
:1010A00020F4700040EA08002168C8622068806867
:1010B00011490840B04208D10020E062A06A20F047
:1010C000020040F00100A06211E0A06A20F00200DE
:1010D00040F01000A062E06A40F00100E0620127E9
:1010E00005E0FFE7A06A40F01000A0620127384643
:1010F0006BE70000FDF7E1FFFE0E1FFF70470000E9
:1011000010B586B00446002002900390049005902C
:1011100026492068884246D100BF2548806940F4AE
:101120000070234988610846806900F400700190CE
:1011300000BF00BF00BF0846806940F0040088611E
:101140000846806900F00400019000BF00BF38200D
:1011500002900320039002A9164800F0B5FB164840
:1011600016490860002048600021144881608021F1
:10117000C160890001618900416120218161C9014B
:10118000C16100F02FFA08B1FFF75DFD00BF0B4809
:101190002062446200BF00220121122000F0B0FD55
:1011A000122000F09DFD06B010BD0000002401409B
:1011B0000010024000080140080002404C070020D7
:1011C0002DE9F04104460D46164600275749206890
:1011D000884203D056492068884205D15348001DF3
:1011E000006800F4702000E0002000287ED100BFDD
:1011F00094F82400012802D10220BDE8F0810120EA
:1012000084F8240000BF2046FFF7A4FC0746002F07
:101210006DD1A06A40F60161884340F48070A062FD
:1012200043492068884209D14048001D006800F405
:10123000702008B9012002E0002000E0012078B110
:10124000A06A20F48010A0622068406800F48060EA
:1012500000B3A06A20F4005040F48050A06219E06E
:10126000A06A40F48010A06230492068884203D010
:101270002F492068884205D12C48001D006800F4E1
:10128000806000E0002028B1A06A20F4005040F403
:101290008050A062A06A00F4805020B1E06A20F083
:1012A0000600E06201E00020E06200BF002084F858
:1012B000240000BF1F48216A88621F48216AC86253
:1012C0001E48216A08636FF00200216808602068E8
:1012D000806840F4807021688860226802F14C01C7
:1012E00033462A46206A00F0B1F901E01AE014E022
:1012F0002068806800F46020B0F5602F06D1206877
:10130000806840F4A000216888600CE02068806854
:1013100040F480102168886005E000BF002084F858
:10132000240000E00127384667E700000024014060
:1013300000280140D50A0008450B0008270B0008CB
:101340000146002291F82100022808D00420886379
:1013500000BF002081F8200000BF0120704708680E
:10136000006820F00E000B6818600868006820F024
:1013700001000B68186091F8403001209840CB6B59
:101380005860012081F8210000BF002081F8200072
:1013900000BF1046E2E7000070B50446002594F84F
:1013A0002100022803D00420A063012548E0206822
:1013B000006820F00E00216808602068006820F0B6
:1013C0000100216808601F492068884201D101207E
:1013D00026E01C4914312068884201D110201FE00A
:1013E000184928312068884201D1801518E0154934
:1013F0003C312068884201D1801411E011495031FC
:101400002068884202D14FF4803009E00D496431F0
:101410002068884202D14FF4801001E04FF08070C4
:10142000084908394860012084F8210000BF0020E5
:1014300084F8200000BF606B10B12046616B8847C4
:10144000284670BD0800024070B50446E06B056890
:101450002068066894F8401004208840284000283E
:1014600046D006F00400002842D02068006800F052
:10147000200028B92068006820F004002168086076
:1014800057492068884201D1042027E0544914318B
:101490002068884201D1402020E05149283120684D
:1014A000884201D1001519E04D493C31206888423D
:1014B00002D14FF4804011E0494950312068884200
:1014C00002D14FF4802009E0454964312068884208
:1014D00002D14FF4800001E04FF0806040490839AC
:1014E0004860E06A00287AD02046E16A884776E0C2
:1014F00094F84010022088402840A0B306F0020073
:1015000088B32068006800F0200040B920680068B7
:1015100020F00A0021680860012084F82100304989
:101520002068884201D1022028E02D49143120682A
:10153000884201D1202021E02949283120688842B1
:1015400001D140151AE026493C312068884202D179
:101550004FF4005012E0224950312068884203D1F4
:101560004FF400300AE017E01D49643120688842DA
:1015700002D14FF4001001E04FF000701849083913
:10158000486000BF002084F8200000BFA06A30B38C
:101590002046A16A884722E094F84010082088403D
:1015A0002840E0B106F00800C8B12068006820F0CB
:1015B0000E002168086094F8401001208840E16B1B
:1015C00048600120A06384F8210000BF002084F857
:1015D000200000BF206B10B12046216B884770BDF2
:1015E000080002400146002209B901207047164B4D
:1015F0000868C01A1423B0FBF3F080000864124896
:101600000838C863022081F821000868026843F6A0
:10161000F0708243D1E901031843CB6818430B698A
:1016200018434B6918438B691843CB69184302432D
:101630000868026000208863012081F821000020F2
:1016400081F8200000BFD1E7080002402DE9F041F9
:1016500004460D4616461F464FF0000800BF94F89A
:101660002000012802D10220BDE8F081012084F889
:10167000200000BF94F8210001282CD1022084F81A
:1016800021000020A0632068006820F0010021688C
:1016900008603B46324629462046FFF7B7FAE06A23
:1016A00030B12068006840F00E00216808600BE04F
:1016B0002068006820F00400216808602068006845
:1016C00040F00A00216808602068006840F00100CE
:1016D0002168086006E000BF002084F8200000BFF9
:1016E0004FF002084046BFE770B5044600F082FAAA
:1016F00006462546681C10B104480078054400BF22
:1017000000F078FA801BA842FAD370BD4800002090
:101710002DE9F84F81465B480078012812D100F08E
:101720007BFA02F06EF801F0BFFD01F0A3FD01F0BD
:101730005BFD01F093FE01F03FFE01F08DFA012008
:101740005149087000F056FA044650490968601A79
:10175000322871D94D4804604D48C0F800900322EA
:101760004C494D48FFF72CFD00BF4C48006800F085
:1017700002000028F9D002204849486048484089C2
:10178000401C474948814348016845484089401EFC
:1017900000EB40024248103040F822103D484168BA
:1017A0003F484089401E00EB40023D48103000EBAE
:1017B0008200416002F0AAFB39494989491E01EBC8
:1017C00041023749103101EB820188603448408979
:1017D000B0F57A7F02DD0120314948812D48D0F8EB
:1017E00008A0504602F076FE2E49009002F0B0FDAF
:1017F000834602F081FD074600222B4B02F07EFC5F
:10180000054602F04DFC264908814FF05A30086029
:1018100002F07CFB224948600020C860084600684E
:10182000496808441E49098908441D4949890844F2
:101830001B49C86000201BE022E000EB4002184971
:10184000103151F8222000EB400301EB830149687D
:101850000A4400EB40031249103101EB830189680F
:1018600011440F4AD26811440D4AD160411C88B21C
:101870000B4949898142E0DC094802F0A7FB00BF1F
:10188000BDE8F88F38000020390000203C0000201F
:1018900014040140500100201C07002000000240F9
:1018A0005C02002000F07F450000594010B504465E
:1018B00004480068204020B1024804602046FFF739
:1018C00027FF10BD140401402DE9F847034600220C
:1018D00094466EE14FF0010808FA02F4D1F8008056
:1018E00008EA0400A0427DD1DFF8DCA2D1F8048030
:1018F000A8EB0A09D0453AD014DCB8F1030F50D058
:1019000009DCB8F1000F31D0B8F1010F1CD0B8F1EB
:10191000020F49D120E0B8F1110F18D0B8F1120F21
:1019200042D11EE0B9F5881F25D006DCB9F5803F0D
:1019300020D0B9F5801F37D11AE0B9F5001F18D0B3
:10194000B9F5041F30D117E0D1F80CC02DE0D1F863
:101950000C8008F1040C28E0D1F80C8008F1080C88
:1019600023E0D1F80C8008F10C0C1EE000BF00BF92
:1019700000BF00BF00BF00BFD1F80880B8F1000F62
:1019800002D14FF0040C0BE0D1F80880B8F1010F40
:1019900003D14FF0080C1C6102E04FF0080C5C61B1
:1019A00003E04FF0000C00E000BF00BFFF2801D8AB
:1019B000984601E003F104084646FF2802D84FEAA2
:1019C000820803E0A2F108084FEA88084746D6F8E3
:1019D00000804FF00F0909FA07F928EA09080CFA04
:1019E00007F900E088E048EA0908C6F80080D1F865
:1019F000048008F08058B8F1805F7DD100BFDFF827
:101A0000CC81D8F8188048F00108DFF8C091C9F8F7
:101A10001880C846D8F8188008F00108CDF8008072
:101A200000BF00BF4FEAB9384FEA920958F8295071
:101A30004FEA82784FEA18794FF00F0808FA09F850
:101A400025EA0805DFF88881434502D14FF00008F8
:101A500016E0DFF88081434502D14FF001080FE026
:101A6000DFF87481434502D14FF0020808E0DFF847
:101A70006C81434502D14FF0030801E04FF00408A8
:101A80004FEA82794FEA197908FA09F848EA050518
:101A9000DFF84C814FEA920948F82950D1F80480C8
:101AA00008F48018B8F5801F0AD1DFF83881D8F81B
:101AB000008048EA0008DFF82C91C9F8008009E0AE
:101AC000DFF82081D8F8008028EA0008DFF81491B8
:101AD000C9F80080D1F8048008F40018B8F5001F98
:101AE00010D1DFF8008108F10408D8F8008048EA36
:101AF0000008DFF8F09000E05AE009F10409C9F8A5
:101B000000800DE0DFF8DC8008F10408D8F80080E0
:101B100028EA0008DFF8CC9009F10409C9F8008030
:101B2000D1F8048008F40038B8F5003F0ED1DFF892
:101B3000B480A8F10408D8F8008048EA0008DFF86B
:101B4000A490A9F10409C9F800800DE0DFF89480A1
:101B5000A8F10408D8F8008028EA0008DFF884908B
:101B6000A9F10409C9F80080D1F8048008F480388C
:101B7000B8F5803F0ED1DFF86C80A8F10808D8F8DE
:101B8000008048EA0008DFF85C90A9F10809C9F86C
:101B900000800DE0DFF84C80A8F10808D8F800803C
:101BA00028EA0008DFF83C90A9F10809C9F800808C
:101BB000521CD1F8008028FA02F8B8F1000F7FF427
:101BC00089AEBDE8F8870000000011100010024047
:101BD00000080140000C01400010014000140140C9
:101BE00008000140080401400AB1016101E00B0452
:101BF0000361704701480068704700004000002002
:101C0000034800680349097808440149086070479F
:101C1000400000204800002010B50848006840F04F
:101C2000100006490860032000F0A8F8002000F02A
:101C300007F800F02BF8002010BD00000020024043
:101C400070B504460E4800784FF47A71B1FBF0F09D
:101C50000C490968B1FBF0F5284601F006F808B117
:101C6000012070BD102C07D200222146501E00F02A
:101C700047F80548046001E00120F2E70020F0E7A2
:101C8000480000204C0000204400002008B500BFA0
:101C90001148806940F001000F4988610846806959
:101CA00000F00100009000BF00BF00BF0846C069FF
:101CB00040F08050C8610846C06900F08050009034
:101CC00000BF00BF00BF0549486820F0E06040F059
:101CD0000070486000BF08BD0010024000000140D5
:101CE00001460846002809DB00F01F0301229A4044
:101CF00043099B0003F1E023C3F8002100BF7047B4
:101D00002DE9F05F80460D461646002702F07EF86A
:101D1000074639462A46334601F00700C0F1070A54
:101D2000BAF1040F02D94FF0040A01E0C0F1070A2A
:101D3000D14600F1040ABAF1070F02D24FF0000AAF
:101D400001E0A0F1030AD4464FF0010A0AFA09FAA9
:101D5000AAF1010A0AEA020A0AFA0CFA4FF0010B88
:101D60000BFA0CFBABF1010B0BEA030B4AEA0B0479
:101D70002146404602F052F8BDE8F09F00BF00F057
:101D80000702064B19684FF6FF031940044B0B433B
:101D900043EA0221014B196000BF70470CED00E0DF
:101DA0000000FA05012001490862704700000E4258
:101DB0002DE9F04706464FF00008002500270024D3
:101DC000A146012E31D0022E56D0102E5FD13248BE
:101DD0004468006800F0807008B33048C4F3834161
:101DE000475C04F4803078B12B484068C0F3404031
:101DF0002B4911F8008004F4803040B12948B0FB31
:101E0000F8F000FB07F502E0274807FB00F5224841
:101E1000406800F48000B0F5800F01D1A94603E0CE
:101E200068000321B0FBF1F932E01B48046A04F4B6
:101E30004070B0F5807F05D104F0020010B14FF47E
:101E4000004918E004F44070B0F5007F07D1124853
:101E5000406A00F0020010B149F640490BE004F47A
:101E60004070B0F5407F06D10B48006800F40030A8
:101E700008B14FF224490BE000F08CF9064949689B
:101E8000C1F38131491C4900B0FBF1F900E000BF0A
:101E900000BF4846BDE8F08700100240D245000868
:101EA000E245000800127A0000093D00F8B504463A
:101EB00000260025207800F0010000286BD00027C4
:101EC0004348C06900F0805070B900BF4048C06905
:101ED00040F080503E49C8610846C06900F080501B
:101EE000009000BF00BF01273A48006800F48070EE
:101EF000B0B93848006840F4807036490860FFF790
:101F000079FE064606E0FFF775FE801B642801D9BE
:101F10000320F8BD2F48006800F480700028F2D03C
:101F20002B48006A00F440752DB3A08800F440707F
:101F3000A84220D02648006A20F440750120264996
:101F40000860002008602248056205F0010090B199
:101F5000FFF750FE064608E0FFF74CFE801B41F2FB
:101F60008831884201D90320D3E71948006A00F07C
:101F700002000028F0D01648006A20F44070616822
:101F8000084313490862012F04D10846C06920F0B4
:101F90008050C86100BF207800F00200022807D1FD
:101FA0000B48406820F44040A16808430849486055
:101FB000207800F01000102807D10548406820F470
:101FC0008000E1680843024948600020A1E7000062
:101FD00000100240007000404004424270B50446C8
:101FE0000D460CB9012070BD5A48006800F007008A
:101FF000A8420ED25748006820F0070028435549F0
:1020000008600846006800F00700A84201D00120DF
:10201000E9E7207800F0020002281DD1207800F0C6
:102020000400042805D14C48406840F4E0604A4967
:102030004860207800F00800082805D1464840682C
:1020400040F46050444948604348406820F0F00044
:10205000A168084340494860207800F0010078B347
:102060006068012806D13C48006800F4003090B94F
:102070000120B8E76068022806D13748006800F000
:10208000007040B90120AEE73348006800F002005C
:1020900008B90120A7E73048406820F003006168D4
:1020A00008432D494860FFF7A5FD064609E0FFF704
:1020B000A1FD801B41F28831884202D9032092E7BA
:1020C00007E02548406800F00C006168B0EB810F24
:1020D000EDD12048006800F00700A8420ED91D4845
:1020E000006820F0070028431A4908600846006885
:1020F00000F00700A84201D0012074E7207800F02A
:102100000400042807D11448406820F4E060E16826
:10211000084311494860207800F00800082808D1D9
:102120000D48406820F46050216940EAC1000A4926
:10213000486000F03FF808494968C1F30311074AB5
:10214000515CC8400649086006480068FFF778FD02
:10215000002048E70020024000100240E44500084B
:102160004C00002044000020014800687047000037
:102170004C00002000B5FFF7F7FF04494968C1F3A0
:102180000221034A515CC84000BD0000001002401B
:10219000F445000800B5FFF7E7FF04494968C1F3BB
:1021A000C221034A515CC84000BD0000001002403B
:1021B000F445000870B5002100220024002300200F
:1021C000134D696801F00C05F5B1042D02D0082DFE
:1021D00019D101E00F4819E00F4DC1F38346AB5D03
:1021E00001F4803555B10A4D6D68C5F340450B4E7D
:1021F000725D084D5D43B5FBF2F402E0084D03FB50
:1022000005F4204602E000BF024800BF00BF70BDD9
:102210000010024000127A00C0450008D0450008B6
:1022200000093D00F8B504460CB90120F8BD20783E
:1022300000F00100002878D0F848406800F00C0059
:1022400004280CD0F548406800F00C00082811D193
:10225000F248406800F48030B0F5803F0AD1EF4882
:10226000006800F4003000285FD0606800285CD16E
:102270000120DBE700BF6068B0F5803F06D1E7488A
:10228000006840F48030E549086028E0606858B98B
:10229000E248006820F48030E049086008460068A1
:1022A00020F4802008601AE06068B0F5A02F0BD100
:1022B000DA48006840F48020D84908600846006881
:1022C00040F4803008600AE0D448006820F4803090
:1022D000D24908600846006820F48020086000BFEA
:1022E000606888B1FFF786FC054606E0FFF782FCD0
:1022F000401B642801D9032098E7C848006800F40F
:1023000000300028F2D010E0FFF774FC054606E02C
:10231000FFF770FC401B642801D9032086E7BF4803
:10232000006800F400300028F2D1207800F00200AC
:10233000022857D1B948406800F00C0050B1B748A6
:10234000406800F00C00082818D1B448406800F438
:10235000803098B9B148006800F0020020B12069CF
:10236000012801D0012061E7AC48006820F0F800A6
:10237000616940EAC100A949086033E02069E8B119
:102380000120A7490860FFF735FC054606E0FFF786
:1023900031FC401B022801D9032047E79F48006811
:1023A00000F002000028F2D09C48006820F0F800FD
:1023B000616940EAC1009949086013E0002098492A
:1023C0000860FFF717FC054606E0FFF713FC401B0B
:1023D000022801D9032029E79048006800F0020094
:1023E0000028F2D1207800F0080008282DD1A0693B
:1023F000B8B101208B490860FFF7FCFB054606E0F9
:10240000FFF7F8FB401B022801D903200EE78348A1
:10241000406A00F002000028F2D0012001F074F8B8
:1024200013E000207F490860FFF7E4FB054606E063
:10243000FFF7E0FB401B022801D90320F6E67748AE
:10244000406A00F002000028F2D1207800F0040079
:10245000042873D100277148C06900F0805070B91A
:1024600000BF6E48C06940F080506C49C8610846A2
:10247000C06900F08050009000BF00BF01276A488B
:10248000006800F48070B0B96748006840F480705C
:1024900065490860FFF7AEFB054606E0FFF7AAFBBB
:1024A000401B642801D90320C0E65F48006800F49F
:1024B00080700028F2D000BFE068012806D157489C
:1024C000006A40F001005549086227E0E06858B909
:1024D0005248006A20F00100504908620846006A2C
:1024E00020F00400086219E0E06805280BD14B4891
:1024F000006A40F00400494908620846006A40F05A
:10250000010008620AE04548006A20F001004349E2
:1025100008620846006A20F00400086200BFE06814
:10252000A0B1FFF767FB054609E0FFF763FB401B1F
:1025300041F28831884202D9032077E622E0374809
:10254000006A00F002000028EFD012E0FFF752FB13
:10255000054608E0FFF74EFB401B41F288318842F8
:1025600001D9032062E62D48006A00F0020000282D
:10257000F0D1012F05D12948C06920F080502749AA
:10258000C86100BFE069C8B32448406800F00C008F
:10259000082860D0E069022848D100202049086658
:1025A000FFF728FB054606E0FFF724FB401B022847
:1025B00001D903203AE61948006800F000700028AD
:1025C000F2D1206AB0F5803F07D11448406820F46A
:1025D0000030A168084311494860D4E90801084364
:1025E0000E49496821F4741108430C4948600120E0
:1025F0000B490866FFF7FEFA054607E03DE0FFF7E6
:10260000F9FA401B022801D903200FE603480068AD
:1026100000F000700028F2D02FE00000001002400F
:1026200000004242800442420070004000201449F1
:102630000866FFF7DFFA054606E0FFF7DBFA401B06
:10264000022801D90320F1E50E48006800F000706F
:102650000028F2D111E0E069012800D1E6E509483F
:10266000466806F48031206A814204D106F4701174
:10267000606A814201D00120D8E50020D6E5000043
:1026800000004242001002400121014A11707047CF
:102690003400002010B5044620680068C0F34000F4
:1026A00068B120684068C0F3400040B12046FFF7A1
:1026B000EBFF2068406820F00200216848604FF47A
:1026C0000030024908600120607410BD140401400C
:1026D000F8B505460C4616460020009005B10CB929
:1026E0000120F8BD00226946284600F01AF808B11A
:1026F0000120F6E7287B2070E87BE070687B607043
:10270000A87BA0705EB1E07800F025FFE0706078F3
:1027100000F021FF6070A07800F01DFFA070002085
:10272000DFE72DE9F04780460C469146002500265C
:10273000AA460027B8F1000F00D014B90120BDE867
:10274000F087D8F800004068C0F3800008B101208D
:10275000F5E7404600F0C6FF05464FF46160B5FB63
:10276000F0F7B5FBF0F100FB11503C21B0FBF1F0AC
:1027700060704FF46160B5FBF0F100FB11503C213B
:10278000B0FBF1F201FB1200A070182F39D3182012
:10279000B7FBF0FAB7FBF0F100FB11702070404678
:1027A00000F094FF0646701C18B1AE4201D9761BAA
:1027B00001E04FF0FF360AEB4A00C000C0EB4011C9
:1027C000C1EB0020A5EB00152946404600F0FDFFB7
:1027D00008B10120B3E7701C38B12E4431464046A1
:1027E00000F0DCFF40B10120A9E73146404600F08F
:1027F000D5FF08B10120A2E75146404600F0B8FEDF
:1028000000E02770B9F1000F0BD0207800F0A3FE94
:102810002070607800F09FFE6070A07800F09BFE52
:10282000A07000208BE7000070B5044600250CB9AD
:10283000012070BD607C20B900202074204600F08B
:1028400053F802206074204600F0E6F918B1042025
:1028500060740120EDE7204600F0E5FE18B1042089
:1028600060740120E5E72068406820F007002168D7
:102870004860A06828B11B48006820F00100194991
:1028800008601848001F006820F46070A1680843C1
:102890001449091F08606068401C08B1656809E0B8
:1028A0000120FFF785FA05461DB904206074012058
:1028B000BFE76D1EC5F3034021688860A8B2216898
:1028C000C860204600F0CCFE18B1042060740120DE
:1028D000AFE70021E17301216173A17301206074EE
:1028E0000020A6E7306C004038B504460F49206848
:1028F00088421AD1FFF756FA00BF0D48C06940F070
:1029000000600B49C8610846C06900F00060009093
:1029100000BF00BF0120074908600022114629209E
:10292000FFF7EEF92920FFF7DBF938BD002800405A
:10293000001002403C0442422DE9F84304460D4693
:10294000174600260020009004B115B90120BDE80B
:10295000F88300BF207C012801D10220F7E7012085
:10296000207400BF02206074002269462046FFF7F1
:10297000D8FE08B10120EAE79DF800004FF461613C
:1029800048439DF80110C1EB011100EB81009DF857
:10299000021000EB01085FB928784FF461614843E9
:1029A0006978C1EB011100EB8100A978461812E0AB
:1029B000287800F0C5FD4FF4616100FB01F96878EB
:1029C00000F0BEFDC0EB001009EB8009A87800F014
:1029D000B7FD09EB0006464501D2184806443146CA
:1029E000204600F0DBFE38B10420607400BF0020F8
:1029F000207400BF0120AAE72068406820F0020090
:102A0000216848602068006840F002002168086082
:102A10000B48006840F40030094908600848083055
:102A2000006840F4003006490831086001206074F5
:102A300000BF0020207400BF00BF88E78051010064
:102A4000000401402DE9F04704460D46904600265B
:102A50000027B14604B115B90120BDE8F08700BFD9
:102A6000207C012801D10220F7E70120207400BF5B
:102A700002206074B8F1000F06D1E978E17369783B
:102A80006173A978A1730BE0E87800F059FDE07359
:102A9000687800F055FD6073A87800F051FDA073D0
:102AA000A27B617BE07B00F037FE2073207B2870E7
:102AB000204600F017FE06464FF46160B6FBF0F9C1
:102AC000B9F1180F2FD91820B9FBF0F000EB400036
:102AD000C000C0EB4011C1EB0020A6EB0016314650
:102AE000204600F072FE38B10420607400BF002060
:102AF000207400BF0120B0E7204600F0E7FD074644
:102B0000781C80B1B7420ED20B48074439462046A4
:102B100000F044FE38B10420607400BF002020742F
:102B200000BF012099E70120607400BF00202074DD
:102B300000BF00BF91E70000805101002DE9F04780
:102B400004460D4690460026002704B115B9012021
:102B5000BDE8F08700BF207C012801D10220F7E703
:102B60000120207400BF02206074B8F1000F0BD167
:102B700028784FF4616148436978C1EB011100EB9B
:102B80008100A978461812E0287800F0D9FC4FF4AB
:102B9000616100FB01F9687800F0D2FCC0EB001025
:102BA00009EB8009A87800F0CBFC09EB0006314660
:102BB000204600F00AFE38B10420607400BF0020F7
:102BC000207400BF0120C3E72068406820F00500A2
:102BD00021684860204600F079FD0746781C80B1E6
:102BE000B7420ED20B4807443946204600F0D6FDC6
:102BF00038B10420607400BF0020207400BF0120A1
:102C0000A6E70120607400BF0020207400BF00BF51
:102C10009EE700008051010070B5044600250CB904
:102C2000012070BD2068406820F0080021684860DD
:102C3000FEF7E0FF054607E0FEF7DCFF401BB0F5BE
:102C40007A7F01D90320ECE72068406800F0080093
:102C50000028F1D00020E4E74FF0E020006940F0C8
:102C600002004FF0E0210861704770B50446254628
:102C7000681EB0F1807F01D301200FE0681E4FF085
:102C8000E02148610F214FF0FF3001F0C7F800202C
:102C90004FF0E021886107200861002070BD704777
:102CA000704700002DE9F84F044620680568206849
:102CB000C668206847694FF00009CA4605F00F0949
:102CC000B9F1000F0AD105F0200038B106F020005C
:102CD00020B1204600F02DFEBDE8F88FB9F1000FBD
:102CE0007BD007F0010018B906F49070002874D06A
:102CF00005F0010030B106F4807018B1606C40F04E
:102D00000100606405F0040030B107F0010018B163
:102D1000606C40F00200606405F0020030B107F022
:102D2000010018B1606C40F00400606405F0080018
:102D300048B106F0200010B907F0010018B1606C2E
:102D400040F008006064606C002845D005F0200069
:102D500028B106F0200010B1204600F0EAFD2068FE
:102D60004069C0F3801A606C00F0080010B9BAF135
:102D7000000F2CD0204600F096FD2068406900F03E
:102D8000400000B300BF00BF2168143151E8001FAC
:102D900021F040002168143141E80002002AF3D1FB
:102DA00000BFE06B50B17748E16B4863E06BFEF722
:102DB000F3FA88B1E06B416B88470DE02046FFF7DE
:102DC0006FFF09E009E02046FFF76AFF04E02046B4
:102DD000FFF766FF002060647EE7206B012877D153
:102DE00005F01000002873D006F010000028FAD07B
:102DF00000BF0020009020680068009020684068B4
:102E0000009000BF00BF2068406900F0400000282B
:102E10005FD0E06B006840681FFA80F8B8F1000FDF
:102E200055D0A08D404552DDA4F82E80E06B80691E
:102E3000202843D000BF00BF21680C3151E8001F9B
:102E400021F4807021680C3141E80002002AF3D19E
:102E500000BF00BF00BF2168143151E8001F21F0FE
:102E600001002168143141E80002002AF3D100BFBB
:102E700000BF00BF2168143151E8001F21F040005D
:102E80002168143141E80002002AF3D100BF20205C
:102E900084F842000020206300BF00BF21680C318D
:102EA00051E8001F21F0100021680C3141E80002B8
:102EB000002AF3D100BFE06BFEF742FA0220606304
:102EC000A08DE28D801A81B22046FFF7E8FE03E76D
:102ED00042E0A08DE18D401A1FFA80F8E08DD0B35A
:102EE000B8F1000F37D000BF00BF21680C3151E8A6
:102EF000001F21F4907021680C3141E80002002A83
:102F0000F3D100BF00BF00BF2168143151E8001F9A
:102F100021F001002168143141E80002002AF3D1B8
:102F200000BF202084F842000020206300BF00BFC3
:102F300021680C3151E8001F21F0100021680C318C
:102F400041E80002002AF3D100BF0220606341463D
:102F50002046FFF7A4FEBFE605F0800030B106F082
:102F6000800018B1204600F001FEB5E605F04000F3
:102F700030B106F0400018B1204600F0CAFCABE6C4
:102F800000BFA9E69338000810B504460CB901202B
:102F900010BDA06900B100E000BF94F8410028B95D
:102FA000002084F84000204600F02AF8242084F80D
:102FB00041002068C06820F400502168C8602046A5
:102FC00000F036FD2068006920F490402168086117
:102FD0002068406920F02A00216848612068C068A4
:102FE00040F400502168C86000206064202084F80C
:102FF000410084F842000020606300BFC8E7000081
:1030000010B586B00446002002900390049005900D
:103010001E492068884236D100BF1D48806940F4AF
:1030200080401B4988610846806900F48040019017
:1030300000BF00BF00BF0846806940F004008861FF
:103040000846806900F00400019000BF00BF4815E9
:103050000290022003900320059002A90D48FEF77C
:1030600033FC4FF48060029000200390049002A98A
:103070000848FEF729FC002211462520FEF740FEF5
:103080002520FEF72DFE06B010BD000000380140DF
:10309000001002400008014070B504460D46164677
:1030A00094F8420020280BD105B10EB9012070BD63
:1030B0000020206332462946204600F037FDF6E71F
:1030C0000220F4E710B504461149206888421ED159
:1030D00010480178104802780078401C0E4B187098
:1030E0000E48815418460078401E0C49085C0A2896
:1030F00008D118460078C01E085C4B2802D1002079
:1031000019460870012203490548FFF7C5FF10BDA5
:103110000038014000000020010000205000002085
:10312000A40700202DE9F84F04460E46174699469D
:103130004FF0000A94F84100202850D106B117B989
:103140000120BDE8F88F00206064212084F8410050
:10315000FEF750FD8246A784E784A068B0F5805F43
:1031600004D1206910B90025B04602E035464FF081
:1031700000081EE05346002280212046CDF8009032
:1031800000F024FD20B1202084F841000320D8E77E
:1031900045B9B8F80000C0F308002168486008F19C
:1031A000020803E02878216848606D1CE08C401E0E
:1031B000E084E08C0028DDD15346002240212046E7
:1031C000CDF8009000F002FD20B1202084F84100ED
:1031D0000320B6E7202084F841000020B1E7022058
:1031E000AFE7704700BFFEE70EB5002000900190EA
:1031F00002901E481E49086081151D48816001210A
:103200000173002101754FF46021C161002018494C
:103210004860032116480161FDF7CEFE08B1FDF7B5
:1032200012FD0320009001200190002002906946C9
:103230000F48FDF785FD08B1FDF705FD042000905E
:103240000220019069460A48FDF77AFD08B1FDF7B2
:10325000FAFC052000900320019069460448FDF720
:103260006FFD08B1FDF7EFFC0EBD0000002401402A
:103270001C07002008B500BF0A48406940F0010063
:10328000084948610846406900F00100009000BF0D
:1032900000BF002211460B20FEF732FD0B20FEF787
:1032A0001FFD08BD0010024000B585B00020019050
:1032B00002900390049000BF3B48806940F01000EA
:1032C000394988610846806900F01000009000BF0D
:1032D00000BF00BF0846806940F0200088610846B2
:1032E000806900F02000009000BF00BF00BF0846CA
:1032F000806940F0040088610846806900F004009D
:10330000009000BF00BF00BF0846806940F0080081
:1033100088610846806900F00800009000BF00BF87
:10332000012202212148FEF75FFC00224FF4406198
:103330001F48FEF759FC02200190012002900390E3
:103340000220049001A91948FEF7BEFA4FF440602C
:10335000019001200290002003900220049001A916
:103360001348FEF7B1FA4FF4E040019000200290BC
:103370000220039001A90E48FEF7A6FA4FF48070D0
:1033800001900C4802900220039001A90848FEF722
:103390009BFA002211461720FEF7B2FC1720FEF719
:1033A0009FFC05B000BD0000001002400008014075
:1033B000000C0140000011101FB500200390029086
:1033C000009001902348244908604FF0FF30486086
:1033D0004FF4807120488160FFF726FA08B1FDF7AD
:1033E00032FC18208DF80C0014208DF80D00002000
:1033F0008DF80E00012203A91748FFF79FFB08B1C3
:10340000FDF721FC02208DF8080012208DF809003C
:1034100010208DF80A0024208DF80B00012202A94B
:103420000D48FFF70FFB08B1FDF70DFC18208DF8D4
:10343000000015208DF8010000208DF80200019099
:10344000012269460448FFF777FA08B1FDF7FBFB54
:103450001FBD0000002800409007002010B50B4859
:103460000B4908604FF416504860002108488160FD
:10347000C16001610C21416100218161C161FFF7DF
:1034800083FD08B1FDF7DFFB10BD000000380140EF
:10349000A407002000BFFEE71CB5002201A90E48CA
:1034A000FFF73FF9002269460B48FFF711F99DF835
:1034B00003000A4908809DF8010048809DF8020039
:1034C00088809DF80400C8809DF8050008819DF85B
:1034D000060048811CBD0000900700200400002069
:1034E00010B504466420FEF7FFF821460348FCF7B8
:1034F00037FF08B1012010BD0020FCE7500000207C
:1035000000BFFEE77047000008B508490968C90810
:103510004FF47A72B1FBF2F14143009100BF00BF5A
:1035200000994A1E00920029F9D108BD4C000020E4
:1035300010B50248FFF7AEF810BD0000900700205C
:10354000014600BF080900EB8000420001F00F00B7
:103550001044C0B270470146002203E0521CA1F1A2
:103560000A00C1B20A29F9D2100741EA1060704777
:103570002DE9F04706468846002700240025A1468D
:10358000F77B747BB57B00BF40E0012C0BD0032C94
:1035900009D0052C07D0072C05D0082C03D00A2C05
:1035A00001D00C2C0CD11F2D01D26D1C2CE00C2C49
:1035B00002D0641C012527E0012401257F1C23E0A3
:1035C000042C05D0062C03D0092C01D00B2C06D1DD
:1035D0001E2D01D26D1C17E0641C012514E0022C85
:1035E00012D11C2D01D26D1C0EE01C2D08D1B8B2D9
:1035F00000F053F808B16D1C06E0641C012503E0DF
:103600001D2D01D1641C012509F10109C145BCD35F
:10361000F7737473B573EAB2E1B2384600F07CF820
:103620003073BDE8F08770B504460025FEF7E2FA76
:10363000054607E0FEF7DEFA401BB0F57A7F01D9B8
:10364000032070BD2068406800F020000028F1D001
:103650002068406840F01000216848600020F0E7D2
:1036600070B5044600252068406820F010002168ED
:103670004860FEF7BFFA054607E0FEF7BBFA401BBD
:10368000B0F57A7F01D9032070BD2068406800F052
:1036900020000028F1D00020F6E7014601F00300E9
:1036A00008B1002070476420B1FBF0F200FB12105B
:1036B00008B10120F6E74FF4C870B1FBF0F200FB4F
:1036C000121008B90120EDE70020EBE701460022C7
:1036D00000230868006A82B20868406A83B243EA3D
:1036E0000240704730B5014600220023002400202C
:1036F0000D68AD69AAB20D68ED69ACB20D68AD692F
:10370000ABB29A4205D00D68ED6963F31F452846B8
:1037100001E044EA024030BDF0B504460B4600210A
:10372000002504F5FA61032B1BD2C3EBC30000EBA9
:1037300003100926B0FBF6F01044001D4618481E81
:1037400006EB90066427B0FBF7F0361A481EBF0060
:10375000B0FBF7F030440726B0FBF6F706FB170581
:103760001AE0C3EBC30000EB03100926B0FBF6F030
:103770001044001D084400EB91006426B1FBF6F6EE
:10378000801B4FF4C876B1FBF6F63044801E072646
:10379000B0FBF6F706FB1705E8B2F0BD70B50446BE
:1037A0000D4600262046FFF73EFF08B101260AE03D
:1037B000280C21680862A8B2216848622046FFF7F9
:1037C0004FFF00B10126304670BD70B504460D466E
:1037D00000262046FFF727FF08B101260AE0280C43
:1037E00021688861A8B22168C8612046FFF738FFC8
:1037F00000B10126304670BD704710B5FEF700FAE3
:1038000010BD00B593B0282109A8FCF773FE142160
:1038100004A8FCF76FFE0020009001900290039036
:10382000092009904FF480300A9000200B9001206D
:103830000D900F9002201090C10311914FF4E011F0
:10384000129109A8FEF7EEFC08B1FDF7FCF90F2074
:10385000049002200590002006904FF480600790AD
:1038600000200890022104A8FEF7B8FB08B1FDF77C
:10387000EAF9032000904FF400700190800102905B
:103880006846FEF713FB08B1FDF7DDF913B000BD84
:10389000704770B505466C6A0020E085E0842046DC
:1038A000FFF7FEF970BD00BF00BF02680C3252E89E
:1038B000002F22F4907102680C3242E80013002BB2
:1038C000F3D100BF00BF00BF0268143252E8002FDE
:1038D00022F001010268143242E80013002BF3D1F8
:1038E00000BF016B01290ED100BF00BF02680C327E
:1038F00052E8002F22F0100102680C3242E8001357
:10390000002BF3D100BF202180F842100021016379
:10391000704710B504462068C06820F04000216858
:10392000C860202084F841002046FFF75AFC0020A0
:1039300010BDF8B5044694F84200222875D1A0685D
:10394000B0F5805F0CD1206950B90025A66A2068C7
:103950004068C0F308003080A06A801CA06215E0B7
:10396000A56A0026A068B0F5805F03D0A06828B9DA
:10397000206918B920684068287004E02068406811
:1039800000F07F002870A06A401CA062E08D401EFD
:1039900080B2E085002846D12068C06820F0200071
:1039A0002168C8602068C06820F480702168C86001
:1039B0002068406920F0010021684861202084F8D7
:1039C000420000206063206B012826D10020206384
:1039D00000BF00BF21680C3151E8001F21F010002A
:1039E00021680C3141E80002002AF3D100BF2068B1
:1039F000006800F0100010280AD100BF00200090DD
:103A000020680068009020684068009000BF00BFF8
:103A1000A18D2046FFF743F902E02046FFF752FB55
:103A20000020F8BD01E00020FBE70220F9E70000DC
:103A300070B504462168096921F44051E2681143D8
:103A4000226811612269A1681143626941EA020595
:103A50002168C96841F20C62914329432268D16010
:103A60002168496921F44071A269114322685161BA
:103A70002D4A2168914202D1FEF78CFB01E0FEF74E
:103A800079FB00EBC00101EB001162689200B1FB11
:103A9000F2F100EBC00202EB001263689B00B2FB84
:103AA000F3F26423B2FBF3F202EBC20303EB021264
:103AB000A1EB8201322202EB01116422B1FBF2F18F
:103AC00001F0F00100EBC00202EB001263689B0002
:103AD000B2FBF3F26423B2FBF3F201EB021200EB50
:103AE000C00101EB001163689B00B1FBF3F100EB37
:103AF000C00303EB00136668B600B3FBF6F364265D
:103B0000B3FBF6F303EBC30606EB0313A1EB830150
:103B1000322303EB01116423B1FBF3F101F00F0138
:103B200011442268916070BD0038014010B5034611
:103B300099629A85DA8500205864222083F8420031
:103B4000186928B11868C06840F480701C68E0608B
:103B50001868406940F001001C6860611868C0681E
:103B600040F020001C68E060002010BD014691F884
:103B70004100212828D18868B0F5805F0BD1086901
:103B800048B90A6A1088C0F308000B685860086AD0
:103B9000801C086205E00B6A581C086218780B68E4
:103BA0005860C88C401E80B2C88458B90868C06884
:103BB00020F080000B68D8600868C06840F04000C2
:103BC0000B68D860002070470220FCE72DE9F8431D
:103BD00004460D4617469846089E31E0701C70B3A7
:103BE000FEF708F8A0EB0800B04200D816B9032091
:103BF000BDE8F8832068C06800F00400F8B1802DAB
:103C00001ED0402D1CD020680068C0F3C000B0B1A9
:103C100000BF002000902068006800902068406885
:103C2000009000BF00BF2046FFF73DFE0820606403
:103C300000BF002084F8400000BF0120D8E7FFE764
:103C4000206800682840A84201D1012000E000203F
:103C5000B842C3D00020CBE710B50248FFF722F8E6
:103C600010BD0000A40700202DE9FC47044689464A
:103C700015461E46DDE90A78002001900090344880
:103C8000344908604FF0FF3048604FF4807131488C
:103C90008160FEF7C9FD08B1FCF7D5FF0A2096FB4D
:103CA000F0F100FB11600A2196FBF1F140EA0110EE
:103CB000C0B28DF804000A2097FBF0F100FB1170F0
:103CC0000A2197FBF1F140EA0110C0B28DF805001E
:103CD0000A2098FBF0F100FB11800A2198FBF1F11A
:103CE00040EA0110C0B28DF80600012201A919486E
:103CF000FEF724FF08B1FCF7A6FF02208DF80000B4
:103D000011208DF801000A2095FBF0F100FB115005
:103D10000A2195FBF1F140EA0110C0B28DF80200D2
:103D20000A2094FBF0F100FB11400A2194FBF1F111
:103D300040EA0110C0B28DF803000122694605482F
:103D4000FEF780FE08B1FCF77EFFBDE8FC870000AF
:103D500000280040900700202DE9FE4380460E46D3
:103D600017461C46DDE90A59002000900190002208
:103D700002A92448FEF7D5FC6D1C3C2D12DB3C3D0E
:103D8000641C182C0EDB183C7F1C3146404600F0AA
:103D9000A3F8B84206DA0127761C0C2E02DD0126B4
:103DA00008F101080A2094FBF0F100FB11400A2100
:103DB00094FBF1F140EA0110C0B28DF800000A2036
:103DC00095FBF0F100FB11500A2195FBF1F140EA5F
:103DD0000110C0B28DF801000A2099FBF0F100FB40
:103DE00011900A2199FBF1F140EA0110C0B28DF85F
:103DF000020000200190012269460248FEF79CFD66
:103E0000BDE8FE839007002000BFFEE7024800687F
:103E1000C0F30220704700000CED00E010B5002850
:103E200004DB0A07130E054A135406E00A07140EB2
:103E3000034A00F00F031B1FD45410BD00E400E040
:103E400018ED00E001461C2070472DE9FC5F044698
:103E5000278894F8029094F803A094F804B060794D
:103E60000190A079009000254FF4FD660AE03046ED
:103E700000F070F810B14FF4B77001E040F26D102F
:103E80000544761CBE42F2DB012605E03146384689
:103E900000F022F80544761C4E45F7DBAAF101003C
:103EA000054405EB4500C000C0EB00108000C0EBEE
:103EB00000108000CBEB0B118900C1EB011100EB6E
:103EC00081010198C0EB001001EB8001009801EB2B
:103ED00000084046BDE8FC9F30B58DB005460C4655
:103EE0003022094901A8FCF7B1FA022C06D1284674
:103EF00000F030F810B11D200DB030BD601E01A9DA
:103F000051F82000F8E70000904500081CB5FFF7C5
:103F1000C3FA0F480088ADF800000D4880788DF88E
:103F200002000B4800798DF80300094880798DF86C
:103F300004000748007A8DF805000548807A8DF85E
:103F400006006846FFF781FF044620461CBD0000BE
:103F50000400002001460A46C81701EB907080104B
:103F6000A1EB800070B9642091FBF0F300FB13100B
:103F700030B94FF4C87091FBF0F300FB131008B98F
:103F8000012070470020FCE7FDF746FEFFF739FCF3
:103F9000FFF78AF9FFF76EF9FFF726F9FFF75EFAE8
:103FA000FFF70AFAFCF752FE00BFFEE770B50446C1
:103FB0002046FCF7E7F985B24FF0FF332A46214649
:103FC0000148FFF7AFF870BDA407002010B5C2B0DC
:103FD000044601AA02A9204600F014F806A0FFF743
:103FE000E5FF019882B24FF0FF3302A90448FFF7C2
:103FF00099F842B010BD000041544F0D0A00000076
:10400000A407002070B503460C46154618682060CA
:1040100058686060201D1989218159896181D9689A
:10402000E1601022A1185889401E00EB400603F100
:10403000100000EB860000680860121DA118588966
:10404000401E00EB400603F1100000EB86004068C4
:104050000860121DA1185889401E00EB400603F1AC
:10406000100000EB8600806808601846FFF7EAFE43
:10407000286070BD10B500290AD00878002807D044
:1040800005487844FCF7A8FC002801D0002010BDAA
:104090000248784410BD00009A0500009205000017
:1040A0004FEA1153A3F58063D3F11E03A8BFD3F1E8
:1040B000200C08DB4FF0004242EAC12252EA505283
:1040C00032FA03F0704709420BD4102BC4BF002012
:1040D000704703F5787CBCF1FF3F05D04FF0FF300F
:1040E00070474FF00000704770B500F0B1F800BFA6
:1040F0004992248000207047F0E70000DFF848C1B3
:1041000070B51CEA111E1EBF1CEA13159EEA0C0FA7
:1041100095EA0C0F00F06F8081EA030423EA4C1348
:104120004EEAD47E21EA4C1141F4801143F480130D
:10413000AE44A1FB024CA0FB0365AEF17F7E3619B5
:1041400055EB0C05A1FB034C4CF10003A0FB021C3A
:1041500016EB0C06654153F10003094218BF46F007
:10416000010613F4007F0BD14FEA03314FEA05300B
:10417000340341EA155140EA16506FF003020AE099
:104180004FEAC3214FEAC520F40241EA555140EA03
:1041900056506FF0020202EB2E4201EB025585EA07
:1041A000CE710AD05FEA440C18BF24F0004450F1ED
:1041B000000041F1000120EAD47040F2FE7C62452B
:1041C00000D270BDA84214BF4FF080444FF040446D
:1041D000002E08BF0024BEF1806FA8BFA1F1C0412E
:1041E000BDE8704080F282804FF0000001F1C041D4
:1041F00001F0004170479EEA0C0F0CEA131518BF3E
:1042000095EA0C0F06D04FF0000081EA030E0EF085
:10421000004170BD00F01CF88900013E00F007B8B5
:1042200000F009B84FEA430C5FEA5C5C08D081EA11
:10423000030100F05BB84FEA410C5FEA5C5CF6D129
:104240004FF00000014970470000FF070000F87FB1
:104250000EF1020E2EF0030E5EF8046B364205D40A
:10426000012A43EB030515F5001F12D8012841EB85
:10427000010C1CF5001F0CD80ED14FEAD17C15F5AE
:10428000001F0CEB4C0C0CF1020C08BF4CEBD37C68
:1042900004E04FF0080C01E04FEAD37C0CEB4C0536
:1042A00026FA05F606F00706B6F1040C06D20EEB68
:1042B000860CBDE870404CF0010C6047DFE80CF064
:1042C000090B02024FF000414FF00000A1F5002160
:1042D00070BD19461046012851EB010418BFD4F5F2
:1042E000001484BF002001F0004170BD0808A0F553
:1042F00000114FEA3101704743004FEAD30C4FEAF7
:104300003C0C43401FBF40070CF1605113F0FE4FBF
:1043100070471CF0006F03D100200CF00041704783
:104320000CF0004343EA507010B540EACC0000F0B6
:10433000E4F800BF000000924FEA0001FFF7D6BF8B
:104340004FF000414FF00000A1F500217047000040
:104350004FF47F0C1CEAD0121EBF1CEAD11392EA64
:104360000C0F93EA0C0F00F0858090EA010F48BF14
:1043700042F4807240F4000C41F400002CF07F41C4
:1043800020F07F4000B58142A2EB03020FF2081C2F
:10439000ACEB504EC0F100009EF800E04FEA4E0E2C
:1043A00000FB0EFC38BF49004FEA2C1C02F5FA0254
:1043B0000CFB0EF34FEACE1E4FEA112C4FEAC1213F
:1043C0000EEB635E42EB22420EFB0CFC4FEA1C53E9
:1043D00000FB03114FEA112C4FEA01310EFB0CFCDC
:1043E0004FEADC4C00FB0C11C14228BF09184CEB12
:1043F00003335DF804EB10EB410143EBC250B2F51F
:104400007C0F38BF704729D512F0F00F1CBF00F1A8
:10441000C04000F000407047008182838485868719
:1044200088898B8C8D8E8F919293959697999A9C73
:104430009D9FA0A2A3A5A7A8AAACAEB0B2B3B5B7E2
:10444000B9BCBEC0C2C5C7C9CCCED1D4D7D9DCDFB8
:10445000E2E6E9ECF0F3F7FAFE0000004FEA400C68
:104460000CF1807CBCF17E4F28BF7047B0F1C0409A
:1044700000F089B890EA010F0CEAD11348BF42F46A
:104480008072624538BF634507D213F47F0F16D0A0
:1044900080EA010000F00040704710B500F02DF8F0
:1044A000097EFC3E00F005B880EA010000F0004003
:1044B000704780EA010000F0004000F064B812F498
:1044C0007F0F04BF0248704780EA010000F05BB82C
:1044D0000000C07FB0FA80F310FA03F2C3F19D032D
:1044E0000AD0D90501EB1220530638BF704700F1FE
:1044F000010008BF20F0010070470EF1020E2EF0FF
:10450000030E5EF8044B244204D44FEA4102B2F198
:104510007F4F11D84FEA4003B3F17F4F0CD80ED133
:104520004FEAD07CB2F17F4F0CEB4C0C0CF1020C3B
:1045300008BF4CEBD17C04E04FF0080C01E04FEADF
:10454000D17C0CEB4C0324FA03F404F00704B4F11F
:10455000040C06D20EEB840CBDE810404CF0010CAC
:104560006047DFE80CF0070802024FF00040A0F5BA
:10457000800010BD0846420018BFD2F1807288BF8B
:1045800000F0004010BDFF2141EAD050C005704747
:104590001F0000001C0000001F0000001E000000A3
:1045A0001F0000001E0000001F0000001F00000090
:1045B0001E0000001F0000001E0000001F00000081
:1045C00002030405060708090A0B0C0D0E0F101054
:1045D000010202030405060708090A0B0C0D0E0F61
:1045E000101001020000000000000000010203049E
:1045F0000607080900000000010203042C47000818
:104600000000002050000000280100087C4700083E
:1046100050000020000E00004401000810010000BE
:1046200043000000F8FFFFFF004040404040404092
:104630004040414141414140404040404040404075
:104640004040404040404040400502020202020219
:104650000202020202020202022020202020202068
:10466000202020020202020202029090909090907C
:10467000101010101010101010101010101010103A
:1046800010101010020202020202888888888888AE
:10469000080808080808080808080808080808089A
:1046A00008080808020202024000000000000000A2
:1046B00000000000000000000000000000000000FA
:1046C00000000000000000000000000000000000EA
:1046D00000000000000000000000000000000000DA
:1046E00000000000000000000000000000000000CA
:1046F00000000000000000000000000000000000BA
:1047000000000000000000000000000000000000A9
:104710000000000000000000000000000000000099
:104720000000000000000000000000000000000089
:1047300018000B0013000C00140000000000000023
:104740000000000000000000000000000000000069
:104750000000000000000000000000000000000059
:104760000000000000000000000000000000000049
:0C477000100000000100000000127A00A0
:04000005080000ED02
:00000001FF
