:020000040800F2
:10000000E00D002091010008052C0008A325000840
:1000100085280008A50600083D3200080000000001
:10002000000000000000000000000000972D000804
:10003000F106000800000000072C0008992D0008B8
:10004000AB010008AB010008AB010008AB010008E0
:10005000AB010008AB010008AB010008AB010008D0
:10006000AB010008AB010008AB010008B9060008AD
:10007000AB010008AB010008AB010008AB010008B0
:10008000AB010008AB01000851050008AB010008F6
:10009000AB010008AB010008AB010008F306000843
:1000A000AB010008AB010008AB010008AB01000880
:1000B000252E0008AB010008AB010008AB010008C9
:1000C000AB010008AB010008AB010008AB01000860
:1000D000AB0100081932000825320008313200084F
:1000E000AB010008AB010008AB01000800F002F80A
:1000F00000F03FF80AA090E8000C82448344AAF183
:100100000107DA4501D100F034F8AFF2090EBAE880
:100110000F0013F0010F18BFFB1A43F0010318473B
:100120002C3300004C330000103A24BF78C878C14B
:10013000FAD8520724BF30C830C144BF04680C60ED
:10014000704700000023002400250026103A28BF35
:1001500078C1FBD8520728BF30C148BF0B60704739
:10016000752900F08380002070471FB51FBD10B5B2
:1001700010BD00F0B2F91146FFF7F7FF03F070F879
:1001800000F0D0F903B4FFF7F2FF03BC00F0D8F998
:100190000948804709480047FEE7FEE7FEE7FEE71B
:1001A000FEE7FEE7FEE7FEE7FEE7FEE70448054957
:1001B000054A064B70470000232E0008ED0000089A
:1001C000E0070020E00D0020E0090020E009002009
:1001D0000FB41CB50C0007AA009001D02044401EAB
:1001E000074B7B4469460190069800F056F9002CB5
:1001F00003D06946002000F063F91CBC5DF814FBD5
:10020000E50200002DE9F0410E4604460020206280
:100210002046E168884730B3252805D0D4E901217C
:100220009047206A401CF2E7E16820460027884793
:10023000050018D0A5F14100192802D820354FF447
:1002400000673246294620462760FFF789FF40B104
:10025000012804D0F61D26F007060836D8E7361D1B
:10026000D6E72846DAE7206ABDE8F0812DE9F041BB
:100270000646002410687529314616A510D0AFF344
:100280000080002802DA404213A507E031688A079F
:1002900001D512A502E0490704D511A5012401E00A
:1002A000AFF3008000210A2206F1240709E0B0FB29
:1002B000F2FCB0FBF2F302FB1C003030785418461D
:1002C000491C0028F3D123462A463046BDE8F041B8
:1002D00000F085B8000000002D0000002B00000099
:1002E0002000000030B505460B462A4613F8014BA6
:1002F00012F8010B08B1A042F8D01CB1002802D0BE
:100300006D1CF1E7284630BD10B5431C02E010F823
:10031000011B71B18107FAD14FF0013202C88C1A6A
:100320008C4314EAC211F9D0C01A0A0603D0C01EC9
:1003300010BDC01A10BD0A0401D0801E10BD0902F4
:10034000FCD0401E10BD4FF000020429C0F0128006
:1003500010F0030C00F01B80CCF1040CBCF1020F78
:1003600018BF00F8012BA8BF20F8022BA1EB0C014D
:1003700000F00DB85FEAC17C24BF00F8012B00F843
:10038000012B48BF00F8012B70474FF0000200B569
:10039000134694469646203922BFA0E80C50A0E8A8
:1003A0000C50B1F12001BFF4F7AF090728BFA0E856
:1003B0000C5048BF0CC05DF804EB890028BF40F822
:1003C000042B08BF704748BF20F8022B11F0804F64
:1003D00018BF00F8012B70477047704770472DE930
:1003E000F0470D4699469246044600F124080168FC
:1003F000880604D5E06921F01001216000E00120A9
:10040000A84201DD471B00E00027A1697A1902EB31
:100410000900081AA0612078C00602D42046AFF374
:100420000080002608E0D4E901211AF80600904770
:10043000206A401C761C20624E45F4DB2078C00602
:100440000AD52046AFF3008006E0D4E90121302030
:100450009047206A401C2062381EA7F10107F4DC97
:1004600007E0D4E9012118F805009047206A401CF4
:100470002062281EA5F10105F3DC2046AFF30080C1
:100480002078000602D50220BDE8F0870120FBE7B6
:1004900001694A1C02610878704700B58FB0CDE948
:1004A00001310021059105497944CDE90310114638
:1004B0006846FFF7A7FE0FB000BD0000E5FFFFFF95
:1004C0000A6802F8010B0A607047D1E900239A42DA
:1004D00002D2531C0B6010707047754600F02CF868
:1004E000AE4605006946534620F00700854618B021
:1004F00020B5FFF75BFEBDE820404FF000064FF04F
:1005000000074FF000084FF0000B21F00701AC4648
:10051000ACE8C009ACE8C009ACE8C009ACE8C00967
:100520008D46704710B50446AFF300802046BDE805
:100530001040FFF727BE00000048704780070020EA
:1005400001491820ABBEFEE72600020070470000FC
:10055000014800F05CB90000D805002070B50446E1
:1005600020688168C943C90716D1816821F001015B
:10057000816000F00DFE054609E000F009FE401B19
:10058000022804D920688068C043C00706D02068CC
:100590008068C043C007F0D0002070BDA06A40F062
:1005A0001000A062E06A40F00100E062012070BD2E
:1005B00010B50146486A826A12F0500F05D0006AF1
:1005C000026BBDE8104008461047816A41F4007193
:1005D000816201688968C1F3424107290CD1017B1E
:1005E00051B9816A21F480718162816AC90403D49E
:1005F000816A41F00101816200F006F910BD10B579
:10060000406A816A41F040018162C16A41F004019F
:10061000C16200F0FBF810BD10B5406A00F0F5F8BB
:1006200010BD0000F8B504460026009620688168D9
:10063000C943C9072FD0816841F001018160174883
:1006400017490068B0FBF1F0009002E00098401EEE
:10065000009000980028F9D100F09AFD054615E0B9
:1006600000F096FD401B022810D920688068C04326
:10067000C0070BD0A06A40F01000A062E06A40F012
:100680000100E06284F824600120F8BD20688068E1
:10069000C043C007E4D10020F8BD000018000020CE
:1006A00040420F00FEE700004FF480710148FFF761
:1006B0004ABE00001C000020014800F0F5BA00000E
:1006C0000806002030B590F840500124AC40C56BBE
:1006D0006C60046863604368102B04D00368996001
:1006E0000068C26030BD03689A600068C16030BDB8
:1006F00070474FF4807000F03FBC72B6FEE7704761
:10070000F8B500230025009590F82420012A12D086
:10071000012280F824204A681F26072A0DD2046887
:10072000676B521E02EB82029640B7430E689640FA
:10073000374367631AE00220F8BD0D2A0BD2046824
:10074000276BD21F02EB82029640B7430E68964099
:10075000374327630AE00468E76A0D3A02EB820236
:100760009640B7430E6896403743E7620A6807260B
:100770000A2A0BD30468E7680A3A02EB4202964061
:10078000B7438E6896403743E76009E004682769FD
:1007900002EB42029640B7438E689640374327618A
:1007A0000A68102A01D0112A23D1144C0268A242EF
:1007B0001AD1946824021CD4946844F40004946010
:1007C0000968102915D10E490E4A0968B1FBF2F1EA
:1007D00001EB81014900009102E00099491E00915E
:1007E00000990029F9D104E0816A41F02001816279
:1007F000012380F824501846F8BD00000024014071
:100800001800002040420F0070477047704770B5D5
:100810000446206805684668B10625D5A90723D592
:10082000A16AC90603D4A16A41F40071A16281687A
:10083000C1F34241072910D1217B71B9416821F0F0
:1008400020014160A06A20F48070A062A06AC00408
:1008500003D4A06A40F00100A0622046FFF7D4FF55
:1008600021686FF01200086030062ED568072CD57D
:10087000A06AC00603D4A06A40F40050A0622068B9
:100880008168C1F30231072909D04168490515D4AF
:100890008168C1F34241072910D1217B71B94168B8
:1008A00021F080014160A06A20F48050A062A06A1B
:1008B000C00503D4A06A40F00100A0622046FFF703
:1008C0001EFF21686FF00C00086070060CD5E80769
:1008D0000AD0A06A40F48030A062204600F092F86E
:1008E00021686FF00100086070BD00002DE9F04143
:1008F000044600270025002C03D0A06A002618B16A
:1009000008E00120BDE8F081E66284F8246020461A
:1009100000F07AF82046FFF721FEA16AC90600D44C
:1009200028B1A06A40F01000A0620120EAE7A16AA5
:1009300021F4885141F00201A1626268E169237BE0
:100940000A4347EA43010A43A1684FF48077B9425A
:1009500008D0012906D0002194F814C0BCF1010F81
:1009600002D00AE03946F7E7F3B1A36A43F0200367
:10097000A362E36A43F00103E3622368D3F804C08F
:100980002CF4694C4CEA010CC3F804C021688B6854
:10099000DFF868C003EA0C0313438B60A168B94217
:1009A00009D0012907D009E0A3695B1E41EA433160
:1009B00041F40061E1E7218A491E0D052168CB6AF7
:1009C00023F470032B43CB62216889680C4B1940D8
:1009D000914207D1E662A16A21F0020141F00101D2
:1009E000A1628FE7A06A20F0020040F01000A06230
:1009F000E06A40F00100E062012083E7FDF7E1FFDB
:100A0000FE0E1FFF7047000070B586B0064600243A
:100A100002940394049405941E493068884237D1A7
:100A20001D49886940F400708861886900F400708D
:100A30000190886940F004008861886900F0040032
:100A40000190E02002900320039002A9134800F0D7
:100A50009FFA144D124828606C60AC608020E860FA
:100A600080002861800068612020A861C001E861E1
:100A7000284600F0CDF908B1FFF73FFE35626E62FF
:100A800000221146122000F0F1FB122000F0E0FBE2
:100A900006B070BD00240140001002400008014073
:100AA00008000240080600202DE9F0470446894668
:100AB0009246DFF8008120683F4F08F10406404568
:100AC00001D0B84207D1306810F4702F03D001254F
:100AD0002846BDE8F08794F8240001280BD00120B7
:100AE00084F824002046FFF79DFD0546002125B12E
:100AF00084F82410ECE70220EBE7A06A40F60162DC
:100B0000904340F48070A0622068B84218D13268E7
:100B100012F4702F14D0A26A42F48012A2623068DC
:100B2000400505D5A06A20F4005040F48050A06232
:100B3000A06AC00412D5E06A20F00600E0620EE070
:100B4000A26A22F48012A26240684005F0D5A06A31
:100B500020F4005040F48050A062E9E7E16284F89C
:100B60002410216A15488862216A1548C862216AE2
:100B70001448086321686FF00200086020688168EB
:100B800041F480718160216853464C314A46206AA5
:100B900000F070F920688168C1F34241072904D050
:100BA000816841F48011816092E7816841F4A0017D
:100BB00081608DE70024014000280140B105000854
:100BC00019060008FF05000810B590F82110002252
:100BD000022905D00421816380F82020012010BD66
:100BE00001680B6823F00E030B6001680B6823F0AB
:100BF00001030B6090F84030C46B012101FA03F34C
:100C0000636080F8211080F82020104610BD00009D
:100C100010B5002490F82110022903D0042181632B
:100C200001243DE001680A6822F00E020A600168B2
:100C30000A6822F001020A601A4A0168914201D151
:100C4000012121E0174A1432914201D110211BE009
:100C5000144A2832914201D1891515E0114A3C32DB
:100C6000914201D189140FE00E4A5032914202D1D3
:100C70004FF4803108E00B4A6432914202D14FF4C4
:100C8000801101E04FF08071064A083A516001215D
:100C900080F82110002180F82010416B01B18847B5
:100CA000204610BD080002402DE9F05FC16B0A68C4
:100CB00001680B68046C4FF0040A0AFA04FA4E4DFE
:100CC0004E4E4F4FDFF83CC1DFF83C81DFF83C91DE
:100CD0001AEA020F31D05FEA437A2ED50A689206EB
:100CE00003D40A6822F004020A600168A94201D113
:100CF000042119E0B14201D1402115E0B94202D1ED
:100D00004FF4806110E0614502D14FF480410BE067
:100D1000414502D14FF4802106E0494502D14FF40C
:100D2000800101E04FF08061334A083A5160C16AA6
:100D300000295FD0BDE8F05F08474FF0020E0EFAC1
:100D400004FE1EEA020F4FF0000A4FF0010B35D0EF
:100D50005FEA837E32D50A68920605D40A6822F0DB
:100D60000A020A6080F821B00168A94201D102217B
:100D700019E0B14201D1202115E0B94202D14FF46E
:100D8000007110E0614502D14FF400510BE0414584
:100D900002D14FF4003106E0494502D14FF4001171
:100DA00001E04FF00071144A083A516080F820A029
:100DB000816A00291ED0BDE8F05F08470825A540DC
:100DC000154217D01A0715D50A6822F00E020A60DC
:100DD00090F84010C26B0BFA01F15160C0F838B0C6
:100DE00080F821B080F820A0016B002902D0BDE876
:100DF000F05F0847BDE8F09F080002401C00024079
:100E00003000024044000240580002406C000240A2
:100E100030B5002827D0001D144A50F8041C1423B4
:100E20000A44B2FBF3F29200C263114A82630222C7
:100E300042770A6843F6F0739A43D0E900342343BB
:100E4000D0E902452C4323430469234344692343E7
:100E50008469234313430B600021416301224277DD
:100E60000177002030BD012030BD0000F8FFFDBF3C
:100E70000000024070B50446002594F820000128C7
:100E80000CD0012084F8200094F821600020012E6D
:100E900006D084F820000225284670BD022070BDCF
:100EA000022684F82160A0632068066826F0010607
:100EB00006602046FFF706FCE06A28B1206801685A
:100EC00041F00E01016009E02068016821F0040191
:100ED00001602068016841F00A0101602068016832
:100EE00041F001010160D7E770B5044600F050F908
:100EF0000546601C02D004480078044400F048F91C
:100F0000401BA042FAD370BD0C00002010B5032294
:100F100015491648FFF7C8FD154801688907FCD533
:100F200002214160104803684168826840F6E4404D
:100F30004343180B40F6E4435943090B5A43120B41
:100F400002F01EFA0B4C607864280CD2064900EBC4
:100F500040000C3101EB800103220448FFF7A4FD9F
:100F60006078401C607010BD1C010020D805002076
:100F7000000002400400002010B504490A68024243
:100F800002D00860FFF7C2FF10BD0000140401404A
:100F90002DE9F84F00240023DFF8C4914FF00F082B
:100FA000A9F1040B09F1040AABF1040ED1E0012709
:100FB000A7403A40BA4275D1DFF8A8C14D68A5EB09
:100FC0000C0665452BD00DDC032D34D005DC35B384
:100FD000012D19D0022D2FD11BE0112D16D0122D6D
:100FE0002AD119E0B6F5881F19D006DCB6F5803F86
:100FF00015D0B6F5801F1FD111E0B6F5001F0ED039
:10100000B6F5041F18D10AE0CB6815E0CB681B1DAC
:1010100012E0CB6808330FE0CB680C330CE08B6830
:1010200023B1012B04D00823476105E0042303E02A
:101030000823076100E00023FF2A01D8054601E0EC
:1010400000F1040502D84FEA840603E0A4F1080683
:101050004FEA86062F6808FA06FC27EA0C0703FA0F
:1010600006F647EA06072F604D68ED0070D53E4D45
:10107000AE6946F00106AE61AD6905F00105009567
:101080003A4D24F003067719BE68A5072D0F08FA1C
:1010900005FC26EA0C06DFF8D8C0604503D14FF006
:1010A000000C17E054E0DFF8CCC0604502D14FF0EF
:1010B000010C0FE0DFF8C0C0604502D14FF0020C18
:1010C00008E0DFF8B8C0604502D14FF0030C01E042
:1010D0004FF0040C0CFA05FC4CEA060CC7F808C0EB
:1010E0004D68ED0205D5D9F800501543C9F80050F8
:1010F00004E0D9F800509543C9F800504D68AD029E
:1011000005D5DAF800501543CAF8005004E0DAF8C3
:1011100000509543CAF800504D68AD0305D5DBF883
:1011200000501543CBF8005004E0DBF80050954325
:10113000CBF800504D68ED0305D5DEF8005015439F
:10114000CEF8005004E0DEF800509543CEF8005091
:10115000641C0A6832FA04F57FF429AFBDE8F88F01
:10116000080401400000111000100240000001407E
:1011700000080140000C0140001001400014014033
:10118000002A01D001617047090401617047000025
:1011900001488068704700000C0000200248816808
:1011A00002781144816070470C00002010B5074898
:1011B000016841F010010160032000F077F80F2072
:1011C00000F006F800F026F8002010BD00200240D4
:1011D00070B504460D4D4FF47A712878B1FBF0F0EC
:1011E0000B490968B1FBF0F000F05EFD08B1012089
:1011F00070BD102C07D200222146501E00F036F898
:101200006C60002070BD012070BD00000C0000204B
:101210001800002008B50C48816941F00101816186
:10122000816901F001010091C16941F08051C16102
:10123000C06900F0805000900449486820F0E060E8
:1012400040F00070486008BD0010024000000140FE
:10125000002809DB00F01F020121914040098000B5
:1012600000F1E020C0F8001170470000F0B40D4616
:101270000D4B1B68C3F30223C3F10704042C00D9F0
:101280000424191D072901D2002300E0DB1E0126DA
:1012900006FA04F1491E294099409E40761E1640E8
:1012A0003143F0BC01F0CBBF0CED00E000F00701D2
:1012B000054A10684FF6FF03184040EA0120034931
:1012C00008431060704700000CED00E00000FA05D4
:1012D000014901200862704700000E4210B5014626
:1012E0000020244C012922D0022939D010291DD1F7
:1012F00061682268D20119D51F48C1F38342805C1E
:10130000C9030AD561681C4AC1F34041921E515C71
:101310001A4AB2FBF1F1484301E0194948436168B8
:10132000490203D440000321B0FBF1F010BD226A52
:10133000C2F30121012903D1920701D5C80310BDD1
:10134000022905D1626A920702D549F6404010BDD4
:101350000329FCD121688903F9D54FF2244010BD3F
:1013600000F056F96168C1F38131491C4900B0FBB6
:10137000F1F010BD001002402434000800127A0081
:1013800000093D002DE9F8430446DFF8F880207895
:10139000C0075FD00027D8F81C00C0000BD4D8F8D5
:1013A0001C0040F08050C8F81C00D8F81C0000F069
:1013B000805000900127344D2868C00512D4286859
:1013C00040F480702860FFF7E3FE064607E0FFF771
:1013D000DFFE801B642802D90320BDE8F88328685B
:1013E000C005F4D5D8F8200000F4407010B3A188EF
:1013F00001F4407181421DD0D8F8200020F44070E3
:10140000224901220A6000220A60C8F82000C007B1
:1014100010D0FFF7BDFE054641F2883606E0FFF723
:10142000B7FE401BB04201D90320D6E7D8F8200010
:101430008007F4D5D8F82000616820F44070084394
:10144000C8F82000012F05D1D8F81C0020F08050EA
:10145000C8F81C002078800707D5D8F80400A168D8
:1014600020F440400843C8F804002078C00607D59F
:10147000D8F80400E16820F480000843C8F80400AC
:101480000020AAE7001002400070004040044242E1
:101490002DE9F04704460D46002C17D0DFF83081C7
:1014A000D8F8000000F00700A84211D2D8F80000D8
:1014B00020F007002843C8F80000D8F8000000F02A
:1014C0000700A84204D00120BDE8F0870120FBE717
:1014D0002068404E810712D5400703D5706840F45C
:1014E000E06070602078000703D5706840F46050B9
:1014F00070607068A16820F0F00008437060207888
:10150000C0072CD06068012806D0022809D03168B5
:1015100089070BD40120D7E73168890306D401205D
:10152000D2E73168890101D40120CDE7716821F04B
:10153000030101437160FFF72BFE074641F2883932
:1015400006E0FFF725FEC01B484501D90320BBE795
:101550007068616800F00C00B0EB810FF1D1D8F831
:10156000000000F00700A8420ED9D8F8000020F0D3
:1015700007002843C8F80000D8F8000000F0070072
:10158000A84201D001209FE72078400705D5706868
:10159000E16820F4E060084370602078000706D519
:1015A0007068216920F4605040EAC100706000F06A
:1015B0003FF87168084AC1F30311515CC8400749FC
:1015C000086007480068FFF703FE00207CE7000082
:1015D00000200240001002403434000818000020AF
:1015E000100000200148006870470000180000202B
:1015F00000B5FFF7F7FF04494968044AC1F3022127
:10160000515CC84000BD0000001002404434000896
:1016100000B5FFF7E7FF04494968044AC1F3C22156
:10162000515CC84000BD0000001002404434000876
:101630000E4B59680E4801F00C02042A11D0082AFA
:101640000FD10C48C1F38342805CC9030AD55968A5
:10165000084AC1F34041921E515C054A5043B0FB19
:10166000F1F0704704494843704700000010024001
:1016700000127A001234000800093D002DE9F84FED
:101680000446002C0ED02078D94DC0075ED0686883
:10169000C0F3810001280BD06868C0F381000228E4
:1016A00003D00CE00120BDE8F88F6868C00306D5C0
:1016B000286880034AD56068A8BB0120F3E760680A
:1016C000B0F5803F11D0A8B1B0F5A02F1BD028688D
:1016D00020F480302860286820F48020286060682A
:1016E00030B3FFF755FD06461EE0286840F4803011
:1016F0002860F4E7286820F480302860286820F407
:1017000080202860EBE7286840F480202860286863
:1017100040F480302860E2E7FFF73AFD801B642840
:1017200002D90320BFE711E028688003F4D50DE05B
:10173000FFF72EFD064606E0FFF72AFD801B642812
:1017400001D90320AFE728688003F5D42078DFF8BB
:10175000A48280074FF0010A4FF0000945D5686860
:1017600010F00C0F07D06868C0F38100022812D176
:101770006868C0030FD42868800704D52069012851
:1017800001D001208FE72868616920F0F80040EA65
:10179000C100286029E02069B8B1C8F800A0FFF7AF
:1017A000F7FC064606E0FFF7F3FC801B022801D990
:1017B000032078E728688007F5D52868616920F05C
:1017C000F80040EAC10028600FE0C8F80090FFF779
:1017D000DFFC064606E0FFF7DBFC801B022801D990
:1017E000032060E728688007F5D42078000726D515
:1017F0008148A16999B1C0F800A0FFF7C9FC06466D
:1018000006E0FFF7C5FC801B022801D903204AE748
:10181000686A8007F5D5012001F0F6F90FE0C0F8FD
:101820000090FFF7B5FC064606E0FFF7B1FC801B11
:10183000022801D9032036E7686A8007F5D42078AA
:10184000400773D50026E869C00008D4E86940F075
:101850008050E861E86900F0805000900126DFF8D0
:101860009CB1DBF80000C00514D4DBF8000040F4A4
:101870008070CBF80000FFF78BFC074606E0FFF70F
:1018800087FCC01B642801D903200CE7DBF80000AB
:10189000C005F4D5E068012812D0B0B105281DD0EC
:1018A000286A20F001002862286A20F004002862DB
:1018B000E06841F2883B28B3FFF76AFC07461DE069
:1018C000286A40F001002862F2E7286A20F001004F
:1018D0002862286A20F004002862E9E7286A40F0BC
:1018E00004002862286A40F001002862E0E7FFF760
:1018F0004FFCC01B584501D90320D4E6286A800755
:10190000F5D50DE0FFF744FC074606E0FFF740FC85
:10191000C01B584501D90320C5E6286A8007F5D4C5
:10192000012E03D1E86920F08050E861E069A0B39E
:101930006968C1F38101022946D0022805D0C8F8A0
:101940006090FFF725FC04463AE0C8F86090FFF786
:101950001FFC064606E0FFF71BFC801B022801D98E
:101960000320A0E628688001F5D4206AB0F5803F06
:1019700005D16868A16820F4003008436860D4E9A4
:1019800008010843696821F4741108436860C8F8C5
:1019900060A0FFF7FDFB044607E026E0FFF7F8FB39
:1019A000001B022801D903207DE628688001F5D5B7
:1019B0001BE0FFF7EDFB001B022801D9032072E6B4
:1019C00028688001F5D410E001280CD06868226AEC
:1019D00000F48031914204D1616A00F470108842B1
:1019E00003D001205FE601205DE600205BE60000F9
:1019F0000010024000004242800442420070004059
:101A000070B50446002C03D0607C002610B105E0C0
:101A1000012070BD2674204600F048F80220607452
:101A2000204600F023F9042510B16574012070BD33
:101A3000204601F004F910B16574012070BD2068E2
:101A4000416821F007014160A06820B11648016893
:101A500021F0010101601448001F0168A26821F40F
:101A60006071114301606068411C04D10120FFF7DF
:101A700035FC70B1401E2268C0F3034191602168BB
:101A800080B2C860204601F0F4F828B165740120E6
:101A900070BD6574012070BDE67301206073A07392
:101AA0006074002070BD0000306C004008B5006814
:101AB000084988420DD1FFF70BFC0748C16941F086
:101AC0000061C161C06900F000600090034901201D
:101AD000086008BD00280040001002403C0442425B
:101AE0002DE9F04104460D46002C3FD0E5B3207CA3
:101AF00001283DD00126267402206074AAB3E8783C
:101B000001F094F8E073687801F090F86073A878B9
:101B100001F08CF8A073A27B617BE07B01F0DAF826
:101B200020732870204601F0C5F84FF46161B0FBC6
:101B3000F1F10025182936D91822B1FBF2F1A1EBF9
:101B4000011101EB4101C1EB011100EBC117394655
:101B5000204601F009F94FF0040890B184F8118093
:101B600025740120BDE8F08100E003E00120F9E7E1
:101B70000220F7E7E878E07368786073A878A073CC
:101B8000C9E7204601F08FF8411C0CD0B8420AD2B8
:101B900007490144204601F0D0F820B184F81180B3
:101BA00025740120DEE7667425740020DAE7000062
:101BB000805101002DE9F04104460D46002C28D04B
:101BC0003DB3207C012826D00126267402206074B3
:101BD0001AB3287801F02AF84FF4616100FB01F78D
:101BE000687801F023F8C0EB001007EB8007A878B5
:101BF00001F01CF83D182946204601F0B5F80027F1
:101C00004FF00408A8B184F8118027740120BDE8C2
:101C1000F0810120FBE70220F9E729784FF46160A9
:101C200041436878C0EB001001EB8000A9784518AB
:101C3000E1E72068416821F005014160204601F09C
:101C400032F8411C0CD0A8420AD207490144204670
:101C500001F073F820B184F8118027740120D6E7D1
:101C6000667427740020D2E78051010070B50446E5
:101C7000002C0AD02068416821F008014160FFF77C
:101C800087FA05464FF47A7608E0012070BDFFF729
:101C90007FFA401BB04201D9032070BD2068406824
:101CA0000007F4D5002070BD10B5401EB0F1807F54
:101CB00001D3012010BD4FF0E02460610F216017B7
:101CC00001F0BDFA0020A06107202061002010BDB6
:101CD0007047704770B590F83C20012A25D0012646
:101CE00080F83C60022280F83D20026854689368C6
:101CF00024F070050C682C4354600D4C0268A2421D
:101D000008D0B2F1804F05D00A4CA24202D00A4C52
:101D1000A24204D123F080034968194391603C300A
:101D2000467000210170002070BD022070BD0000CF
:101D3000002C0140000400400008004010B504469B
:101D4000002C03D094F83D0010B107E0012010BD35
:101D5000002084F83C00204600F016F8022084F8A9
:101D60003D00211D206801F063F801203D346072C0
:101D70006070A070E07020716071A071E0712072DD
:101D80002070002010BD000008B50068B0F1804F41
:101D900012D10A48C16941F00101C161C06900F076
:101DA00001000090002211461C20FFF75FFABDE8F9
:101DB00008401C20FFF74CBA08BD0000001002408C
:101DC00090F83D10012901D001207047022180F8D0
:101DD0003D100168CA6842F00102CA6000680E49FD
:101DE000884208D0B0F1804F05D00C49884202D01B
:101DF0000B49884209D1816801F00701062908D002
:101E0000016841F00101016003E0016841F0010156
:101E10000160002070470000002C014000040040D9
:101E20000008004070B50446002594F83C000128E5
:101E300017D0012684F83C60022084F83D00206819
:101E4000826822F0770222F47F428260086850287C
:101E500038D00DDC202853D005DC90B3102811D1E8
:101E60004EE0022070BD30284AD040280AD13DE023
:101E7000602831D070280CD0B0F5805F03D0B0F569
:101E8000005F12D001253C34667000202070284687
:101E900070BDCB68D1E90121206801F005F8206808
:101EA000816841F077018160EDE7CB68D1E90121DC
:101EB000206800F0F9FF2068816841F4804181606A
:101EC000E1E71DE0CA684968206800F0FFFF502183
:101ED000206800F0F3FFD6E7CA684968206801F07F
:101EE00006F86021206800F0E9FFCCE7CA6849687D
:101EF000206800F0EBFF4021206800F0DFFFC2E720
:101F000022680146104600F0D9FFBCE770472DE972
:101F1000F04104462068C56806694FF00007B10724
:101F200014D5A90712D5F91E016101202077206878
:101F30008069800703D02046FFF7E8FF05E02046D0
:101F400000F081F8204600F07FF82777700717D55A
:101F5000680715D521686FF004000861022020771A
:101F60002068806910F4407F03D02046FFF7CEFF41
:101F700005E0204600F067F8204600F065F8277776
:101F8000300716D5280714D521686FF008000861BE
:101F9000042020772068C069800703D02046FFF71F
:101FA000B5FF05E0204600F04EF8204600F04CF862
:101FB0002777F00617D5E80615D521686FF01000D1
:101FC0000861082020772068C06910F4407F03D0A2
:101FD0002046FFF79BFF05E0204600F034F820463E
:101FE00000F032F82777F00708D0E80706D021681C
:101FF0006FF001000861204600F028F8300608D58F
:10200000280606D521686FF0800008612046FFF79A
:102010005FFE700608D5680606D521686FF040009F
:102020000861204600F026F8B0060AD5A80608D5B3
:1020300021686FF0200008612046BDE8F041FFF7FD
:1020400048BEBDE8F0817047704700000068B0F1FD
:10205000804F0BD106484168491C41604168B1F589
:10206000167F03D10121817000214160704700007B
:10207000040000207047704770470000F8B5044620
:1020800022681068D168536900F00F06002E08D14D
:10209000850606D58D0604D52046BDE8F84000F03B
:1020A00074BF0025002E66D003F0010601F490777E
:1020B000374360D0C20705D0CA0503D5626C42F031
:1020C00001026264420705D5DA0703D0626C42F070
:1020D00002026264820705D5DA0703D0626C42F01F
:1020E00004026264020707D501F02002324303D0E4
:1020F000626C42F008026264626C002A31D0800691
:1021000004D5880602D5204600F03FFF20684069CC
:10211000C0F38010616C090700D438B3204600F08A
:1021200000FF2068406940061CD52068143050E844
:10213000001F21F0400140E80012002AF5D1E06BB9
:1021400060B159494163E06BFEF762FD002808D099
:10215000E06B416B01B0BDE8F04008472046FFF757
:102160008BFFF8BD2046FFF787FFF8BD2046FFF73D
:1021700083FF6564F8BD236B012B7DD1C3067BD53E
:10218000CB067ED510685068009050694FF0200350
:1021900040064FF0020643D5E16B0868406880B204
:1021A0000028E7D0A28D8242E4D9E0858869202802
:1021B0002DD020680C3050E8001F21F4807140E8D9
:1021C0000012002AF5D12068143050E8001F21F0D9
:1021D000010140E80012002AF5D12068143050E8CF
:1021E000001F21F0400140E80012002AF5D184F8D8
:1021F0004230256320680C3050E8001F21F01001A8
:1022000040E80012002AF5D1E06BFEF7DDFC6663C2
:10221000A08DE18D401A81B22046FFF72CFFF8BD5A
:10222000A08DE18D401A81B2E08D0028F7D0002901
:10223000F5D020680C3050E8002F22F4907240E86E
:102240000027002FF5D12068143050E8002F22F02D
:10225000010240E80027002FF5D184F842302563C1
:1022600020680C3050E8002F22F0100240E80023D4
:10227000002BF5D1666300E003E02046FFF7FBFE8C
:10228000F8BD020606D50A0604D52046BDE8F8408A
:1022900000F058BF4006F3D54806F1D52046BDE80A
:1022A000F84000F065BE0000132F000870B504462A
:1022B000002C04D094F84100002510B106E0012064
:1022C00070BD84F84050204600F024F8242084F8A3
:1022D00041002068C16821F40051C160204600F02F
:1022E000B9FE2068016921F49041016120684169CB
:1022F00021F02A0141612068C16841F40051C160A8
:102300006564202084F8410084F842006563002061
:1023100070BD0000F0B585B00024019402940394D0
:1023200004940268444F022044490323444D46026A
:10233000BA4228D18A6942F480428A618A6902F4E9
:10234000804200928A6942F004028A61896901F040
:1023500004010091010201910290049301A9284611
:10236000FEF716FE01960294039401A92846FEF793
:102370000FFE002211462520FEF778FF2520FEF7EC
:1023800067FF05B0F0BD2F4FBA4228D1CA6942F4A9
:102390000032CA61CA6902F4003200928A6942F0CE
:1023A00004028A61896901F004010091042101910C
:1023B0000290049301A92846FEF7EAFD0821019145
:1023C0000294039401A92846FEF7E2FD002211467B
:1023D0002620FEF74BFF2620FEF73AFFD1E71A4DE5
:1023E000AA42CED1CA6942F48022CA61CA6902F403
:1023F000802200928A6942F008028A61896901F0AC
:1024000008010091019602900493104D01A92846FD
:10241000FEF7BEFDE91401910294039401A9284638
:10242000FEF7B6FD002211462720FEF71FFF2720EA
:10243000FEF70EFFA5E70000003801400010024043
:10244000000801400044004000480040000C0140EA
:1024500090F84230202B01D00220704721B11AB1F0
:102460000023036300F052BE0120704730B40168BE
:102470000F48814219D10F4A0F4B1078D478411C74
:10248000C9B211701C54581810F8011C0A2905D142
:1024900010F8030C4B2801D10020107005490122CF
:1024A00030BCC91C0548FFF7D3BF30BC70470000E3
:1024B00000440040040000201C000020F006002022
:1024C0002DE9F84304460E4615461F4694F8410090
:1024D000202802D00220BDE8F8837EB175B100202B
:1024E0006064212084F84100FEF752FE8146A584F5
:1024F000E584A068B0F5805F02D003E00120EAE740
:10250000206920B1354600264FF0200815E000254F
:10251000FAE74B46002280212046009700F041FE5A
:1025200018B184F841800320D5E7ADB1216815F8D2
:10253000010B4860E08C401EE084E08C0028E8D16C
:102540004B46002240212046009700F02AFE50B161
:1025500084F841800320BEE736F8020B2168C0F3FF
:1025600008004860E6E784F841800020B3E790F86F
:102570004130202B01D00220704779B172B1016245
:102580008284C28400214164212180F841100068C6
:10259000C16841F08001C160002070470120704790
:1025A0007047FEE73EB500210091019102911B4862
:1025B000194A0260921582600125057301754FF476
:1025C0006022C261416003240461FEF78FF908B103
:1025D000FEF793F8052000900195072502956946BE
:1025E0000E48FEF78DF808B1FEF787F80620009038
:1025F0000220019069460948FEF782F808B1FEF70B
:102600007CF80095019469460448FEF779F80028A3
:1026100001D0FEF772F83EBD00240140D80500202D
:1026200008B50948416941F001014161406900F084
:1026300001000090002211460B20FEF717FEBDE8B6
:1026400008400B20FEF704BE0010024030B585B0F4
:10265000002401940294039404942248816941F077
:1026600010018161816901F010010091816941F0DF
:1026700020018161816901F020010091816941F0AF
:1026800004018161816901F004010091816941F0D7
:1026900008018161806900F008000090124D00225D
:1026A00001212846FEF76CFD01210191029103945E
:1026B0000224049401A92846FEF76AFCE001019077
:1026C0000A480290039401A90948FEF761FC002220
:1026D00011461720FEF7CAFD1720FEF7B9FD05B019
:1026E00030BD000000100240000801400000311021
:1026F000000C01401CB500240194009419481849AD
:102700000160611E41608460FFF77AF908B1FDF74E
:10271000F4FF21208DF8040026208DF805008DF8A7
:102720000640012201A90F48FFF744FA08B1FDF75E
:10273000E4FF04208DF8000011208DF80100142022
:102740008DF8020024208DF8030001226946054817
:10275000FFF7C6F9002801D0FDF7CFFF1CBD000030
:10276000002800404C06002010B586B000240294DA
:102770000394049405940094019414484FF080410C
:10278000016041F61F414160846042F20F71C160F7
:1027900004618461FFF7D2FA08B1FDF7AEFF4FF490
:1027A0008050029002A90948FFF73CFB08B1FDF7F1
:1027B000A4FF0094019469460448FFF78BFA0028AF
:1027C00001D0FDF79AFF06B010BD000060060020A2
:1027D00010B50C480A4901604FF4165141600021C0
:1027E0008160C16001610C2242618161C161FFF7BA
:1027F0005DFD002803D0BDE81040FDF77EBF10BD91
:1028000000380140A806002010B50E480C490160B0
:102810004FF41651416000218160C16001610C22BA
:1028200042618161C161FFF741FD08B1FDF765FFBC
:10283000BDE81040012204490248FFF709BE00002C
:1028400000440040F00600200700002010B50C48AE
:102850000A4901604FF41651416000218160C16056
:1028600001610C2242618161C161FFF71FFD0028F7
:1028700003D0BDE81040FDF740BF10BD0048004048
:1028800038070020FEE7000010B504466420FEF77C
:102890002BFB21460348FDF725FD08B1012010BDA3
:1028A000002010BD1C00002010B526A000F0A0FDE7
:1028B0004FF4FA742046FEF717FB07E0FDF7F4FE2D
:1028C00020A000F095FD2046FEF70EFB26A0FFF7A6
:1028D000DBFF0128F2D1FDF7E7FE27A000F088FD1D
:1028E0002046FEF701FB0DE0FDF7DEFE15A000F02F
:1028F0007FFD2046FEF7F8FA1FA000F079FD204684
:10290000FEF7F2FA25A0FFF7BFFF0128ECD1FDF793
:10291000CBFE26A000F06CFD2046FEF7E5FA07E0AE
:10292000FDF7C2FE21A000F063FD2046FEF7DCFAB1
:1029300025A0FFF7A9FF0128F2D1BDE81040FDF75F
:10294000B3BE000041542B514D544F50454E3D30C5
:102950002C2234372E39322E3134362E3231302279
:102960002C313838330D0A002B514D544F50454E01
:102970003A20302C3000000041542B514D54434F2D
:102980004E4E3D302C2238363134323830343030EF
:102990003430313939220D0A000000002B514D54DA
:1029A000434F4E4E3A20302C302C300041542B51A6
:1029B0004D545355423D302C312C22626332352226
:1029C0002C300D0A000000002B514D545355423A53
:1029D00020302C312C302C300000000070B55DA070
:1029E00000F006FD4FF496752846FEF77DFA5BA1D0
:1029F0005B48FDF777FC5B4C2060FDF755FE0CE073
:102A0000FDF752FE53A000F0F3FC2846FEF76CFAE7
:102A100052A15348FDF766FC206020680028EFD0E3
:102A200051A000F0E5FC2846FEF75EFAFDF73CFEFB
:102A300050A000F0DDFC2846FEF756FAFDF734FE04
:102A40004FA000F0D5FC2846FEF74EFAFDF72CFE0D
:102A50004EA000F0CDFC2846FEF746FAFDF724FE16
:102A60004EA000F0C5FC2846FEF73EFAFDF71CFE1E
:102A70004EA000F0BDFC2846FEF736FAFDF714FE26
:102A80004DA000F0B5FC2846FEF72EFA4DA13448C3
:102A9000FDF728FC2060FDF707FE0CE0FDF704FEC3
:102AA00045A000F0A5FC2846FEF71EFA45A12C48DB
:102AB000FDF718FC206020680028EFD042A000F04D
:102AC00097FC2846FEF710FA24A12548FDF70AFCDA
:102AD0002060FDF7E9FD40A000F08AFC2846FEF7E3
:102AE00003FA40A11E48FDF7FDFB2060FDF7DCFD69
:102AF0000CE0FDF7D9FD38A000F07AFC2846FEF77F
:102B0000F3F938A11648FDF7EDFB20602068002896
:102B1000EFD037A000F06CFC2846FEF7E5F937A1AE
:102B20000F48FDF7DFFB2060FDF7BEFD0EE0FDF76F
:102B3000BBFD2FA000F05CFC2846FEF7D5F92FA1C5
:102B40000748FDF7CFFB2060FDF7AEFD20680028A9
:102B5000EDD070BD41540D0A000000004F4B000045
:102B60001C0000200000002041542B4350494E3FE0
:102B70000D0A00004154453026570D0A00000000A0
:102B800041542B43434C4B3D3F0D0A0041542B51C4
:102B90004D54444953433D300D0A000041542B51DC
:102BA0004D54434C4F53453D300D0A0041542B4387
:102BB00046554E3D310D0A0041542B43494D490DB8
:102BC0000A0000003436300041542B43474154542E
:102BD0003D310D0A0000000041542B43474154543D
:102BE0003F0D0A002B43474154543A203100000066
:102BF00041542B434553510D0A0000002B434553CC
:102C000051000000FEE7704708B507494FF4FA523B
:102C10000968B1FBF2F14143009100BF0098411EE9
:102C20000091FAD208BD000018000020010901EB54
:102C30008101490000F00F000844C0B2704770B530
:102C40000546FEF7A5FA04464FF47A7606E0FEF74D
:102C50009FFA001BB04201D9032070BD286840686C
:102C60008006F4D52868416841F0100141600020D9
:102C700070BD70B505462868416821F010014160BB
:102C8000FEF786FA04464FF47A7606E0FEF780FAFD
:102C9000001BB04201D9032070BD2868406880063F
:102CA000F4D5002070BD0068016A406A80B240EA35
:102CB000014070470068816989B2C26993B2826934
:102CC00092B2914203D0C06962F31F40704743EA59
:102CD00001407047F0B500F5FA606427C1EBC1030D
:102CE0000925BE00072403EB0113032912D2B3FB0D
:102CF000F5F111440144401EB0FBF7F201EB9001E5
:102D0000B0FBF6F0891A0844001DB0FBF4F104FB97
:102D1000110010E0B3FBF5F11144B0FBF7F20144F0
:102D200001EB9001B0FBF6F0891A0844801CB0FB5F
:102D3000F4F104FB1100C0B2F0BD70B505460E46BB
:102D400000242846FFF77BFF08B101240AE0296828
:102D5000300C08622968B0B248622846FFF789FF44
:102D600000B10124204670BD70B505460E46002412
:102D70002846FFF764FF08B101240AE02968300CF7
:102D800088612968B0B2C8612846FFF772FF00B1B8
:102D90000124204670BD7047FEF700BA30B593B0ED
:102DA000282109A8FDF7F1FA142104A8FDF7EDFA8E
:102DB00000240094019402940394052009904FF498
:102DC00080300A900B9401210C910D9102251095F1
:102DD00011904FF4E010129009A8FEF74FFC08B1D3
:102DE000FDF78BFC0F200490059506944FF480604E
:102DF00007900894022104A8FEF74AFB08B1FDF7EA
:102E00007CFC032000904FF480700190C001029080
:102E10006846FEF7B7FA002801D0FDF76EFC13B044
:102E200030BD70470148FFF772B80000600600200F
:102E3000F0B50268194C1A4D1A4E4FF08047A04267
:102E400005D0B84203D0A84201D0B04203D122F04D
:102E500070034A681A43A04205D0B84203D0A84282
:102E600001D0B04203D122F44073CA681A434B69BF
:102E700022F080021A4302608A68C2620A68826293
:102E8000A04201D109690163012141610169C907BA
:102E900003D0016921F001010161F0BD002C014066
:102EA000000400400008004010B5846824F47F440A
:102EB00042EA03220A432243826010BD826822F064
:102EC00070020A4342F007018160704710B5036A3F
:102ED000046A24F001040462846924F0F00444EAE2
:102EE000021423F00A020A438461026210BD10B585
:102EF000036A046A24F010040462846924F47044B0
:102F000044EA023223F0A00343EA01118261016224
:102F100010BD10B5406A0021C185C184FFF7ACF82F
:102F200010BD01680C3151E8002F22F4907241E885
:102F30000023002BF5D10168143151E8002F22F055
:102F4000010241E80023002BF5D1016B012909D1D1
:102F500001680C3151E8002F22F0100241E80023F3
:102F6000002BF5D1202180F8421000210163704729
:102F700010B50168CA6822F04002CA60202180F8BA
:102F80004110FFF70DFB002010BD08B590F842106E
:102F9000222901D0022008BD82684FF480539A4252
:102FA00001D1016921B1816A9A421DD052B10BE071
:102FB000816A02685268C2F308020A80816A891C29
:102FC000816209E002697AB10268526802F07F0208
:102FD0000A70816A491C8162C18D491E0904090C6D
:102FE000C18505D0002008BD026852680A70F0E76C
:102FF0000168CA6822F02002CA600168CA6822F427
:103000008072CA6001684A6922F001024A61202187
:1030100080F8421000214163026B012A03D0FFF7C0
:1030200025FA002008BD016301680C3151E8002F2A
:1030300022F0100241E80023002BF5D101680A6854
:10304000D20602D50A6849680091818DFFF713F80E
:10305000E7E7000070B5044620680169E26821F4E2
:10306000405111430161A168206901436069014336
:103070002068C26841F20C639A430A43C260206828
:103080004169A26921F44071114341611E492068E0
:10309000884202D1FEF7BCFA01E0FEF7A9FA00EB84
:1030A000C00101EB0010616864228900B0FBF1F3FC
:1030B000B3FBF2F36FF018067343B0FBF1F5B0FB0E
:1030C000F1F605EB8305322303EB0515B5FBF2F5AD
:1030D000B6FBF2F605F0F00505EB0615B0FBF1F6D0
:1030E000B0FBF1F0B0FBF2F06FF01801484306EBD3
:1030F000800003EB0010B0FBF2F0216800F00F003D
:103100002844886070BD00000038014081628285DB
:10311000C28500214164222180F842100169002902
:1031200004D00168CA6842F48072CA6001684A69C2
:1031300042F001024A610068C16841F02001C160AB
:103140000020704790F84110212901D002207047DB
:103150008168B1F5805F01D1016961B1016A4A1CE2
:103160000262026809785160C18C491E0904090C89
:10317000C1840AD013E0016A02680988C1F308011A
:103180005160016A891C0162EEE70168CA6822F099
:103190008002CA600068C16841F04001C16000203F
:1031A00070472DE9F84304460D4617469846089E99
:1031B00025E0701C23D0FDF7EBFFA0EB0800B04228
:1031C0001BD8D6B12068C168490718D5802D16D004
:1031D000402D14D00168C943090710D40025216887
:1031E0000968406800902046FFF79BFE0820606455
:1031F00084F840500120BDE8F8830320FBE72068F5
:10320000006835EA000004D00020B842D1D0002088
:10321000F1E70120F9E700000148FEF72FBF0000A9
:10322000A80600200148FEF729BF0000F006002094
:103230000148FEF723BF000038070020FEE709071A
:10324000090E002804DB00F1E02080F8001470472C
:1032500000F00F0000F1E02080F8141D704700001E
:10326000FDF7A4FFFFF79AFDFFF7F0F9FFF7D8F994
:10327000FFF798F9FFF778FAFFF7AAFAFFF7C4FA11
:10328000FFF7E4FAFFF736FA012211461948FDF775
:1032900077FF1948FEF794FD00F034F8FFF79EFB26
:1032A000FFF702FB00F040F8144D0026A878002834
:1032B000FCD0AE70002418E0114A04EB440052F830
:1032C000201002EB80004268836840F6E4404143EE
:1032D000080B40F6E4414A43110B40F6E4425343E5
:1032E0001A0B00F04DF8641CE4B268788442E3D312
:1032F0006E70DBE70008014060060020040000203B
:103300002801002010B505A000F072F86420FDF738
:10331000EBFDBDE81040FDF7C7B9000041542B514B
:103320005253543D310D0A0008B51A20009009A0EF
:1033300000F05EF86420FDF7D7FD0DA000F058F80E
:103340006420FDF7D1FD012269460C48FFF70FF913
:1033500008BD000041542B514D545055423D302C76
:10336000302C302C302C2262633235220D0A0000C2
:103370006C696E2E313233342E000000F0060020CE
:10338000F0B59DB007460D4614461A2603960AA0CE
:1033900000F02EF8CDE900543B460EA2642104A8AB
:1033A000FCF716FF04A800F023F8012203A90F4838
:1033B000FFF7DDF81DB0F0BD41542B514D54505571
:1033C000423D302C302C302C302C2262633235229E
:1033D0000D0A0000414443313A25752C41444332E3
:1033E0003A25752C414443333A257500F0060020F8
:1033F00010B504462046FCF787FF214682B2BDE89F
:1034000010404FF0FF330148FFF75AB8F006002094
:10341000010202030405060708090A0B0C0D0E0F32
:103420001010010202030405060708090A0B0C0D1F
:103430000E0F101000000000000000000102030445
:103440000607080900000000010203046C340008AC
:10345000000000201C00000028010008883400083B
:103460001C000020C40D0000440100080000000002
:10347000000000000000000001000000100000003B
:083480000000000000127A00B8
:04000005080000ED02
:00000001FF
