:020000040800F2
:10000000280F002099010008B1350008D12E000802
:1000100005320008BD0B0008113F00080000000079
:10002000000000000000000000000000413800084F
:10003000090C000800000000B3350008FD38000876
:10004000B3010008B3010008B3010008B3010008C0
:10005000B3010008B3010008B3010008B3010008B0
:10006000B3010008B3010008B3010008D10B000878
:10007000B3010008B3010008B3010008B301000890
:10008000B3010008B3010008690A0008B3010008C1
:10009000B3010008B3010008B30100080B0C00080D
:1000A000B3010008B3010008B3010008B301000860
:1000B00089390008B3010008B3010008B301000842
:1000C000B3010008B3010008B3010008B301000840
:1000D000B30100087D3D0008893D0008953D0008FA
:1000E000B3010008D9350008B301000800F002F898
:1000F00000F043F80AA090E8000C82448344AAF17F
:100100000107DA4501D100F038F8AFF2090EBAE87C
:100110000F0013F0010F18BFFB1A43F0010318473B
:100120006046000080460000103A24BF78C878C1BD
:10013000FAD8520724BF30C830C144BF04680C60ED
:10014000704700000023002400250026103A28BF35
:1001500078C1FBD8520728BF30C148BF0B60704739
:100160001FB500F035FC04000020002104F044F825
:10017000401C60601FBD10B510BD00F0EDFB1146C6
:10018000FFF7EEFF03F05EFF00F014FC03B4FFF78F
:10019000F2FF03BC00F060FC0948804709480047B3
:1001A000FEE7FEE7FEE7FEE7FEE7FEE7FEE7FEE727
:1001B000FEE7FEE704480549054A064B7047000084
:1001C00087390008ED00000828090020280F0020CA
:1001D000280B0020280B00200FB400B58DB010A90B
:1001E000099000910B904FF0FF300A9000200C9086
:1001F000064878440690064878446A4607900F9966
:1002000009A800F0B5F90DB05DF814FB9B030000E0
:10021000B30300002DE9FF5F1D464FF0FF3B914601
:100220004FF000085F46D5E90146A96901987F1C97
:100230008847296A824688470028F6D1BAF1FF3FED
:100240000CD0002E24F4C06419DD600614D5BAF178
:100250002B0F09D0BAF12D0F0ED103E0584604B090
:10026000BDE8F09F44F48064A96901987F1C884729
:10027000761E8246002E02DDBAF1300F03D0B9F1AE
:10028000000F26D032E0A969761E01987F1C44F445
:1002900000748847002E824605DDBAF1780F06D03B
:1002A000BAF1580F03D0B9F1000F10D01EE0B9F128
:1002B000000F02D0B9F1100F18D1A969761E01986C
:1002C0007F1C24F4007488478246102002E0082036
:1002D00000E00A20814609E0A96908FB0908761EAA
:1002E00001987F1C44F4007488478246002E05DD87
:1002F0004946504600F028F90028EDDAE9690198EE
:100300008847A00502D46FF00100A8E7E00725D1D7
:10031000600613D5600502D5C8F1000000E0404634
:1003200029680A1D2A600968220501D5087015E0B0
:10033000220701D5088011E008600FE02868011D40
:1003400029600068210502D580F8008006E02107B9
:1003500002D5A0F8008001E0C0F8008038467EE7B2
:1003600030B505460B462A4613F8014B12F8010B2F
:1003700008B1A042F8D01CB1002802D06D1CF1E7F2
:10038000284630BD10B5431C02E010F8011B71B1C6
:100390008107FAD14FF0013202C88C1A8C4314EA5B
:1003A000C211F9D0C01A0A0603D0C01E10BDC01A6F
:1003B00010BD0A0401D0801E10BD0902FCD0401EF1
:1003C00010BD032A40F2308010F0030C00F01580BD
:1003D00011F8013BBCF1020F624498BF11F801CB48
:1003E00000F8013B38BF11F8013BA2F1040298BFAD
:1003F00000F801CB38BF00F8013B11F0030300F017
:100400002580083AC0F0088051F8043B083A51F8BA
:1004100004CBA0E80810F5E7121D5CBF51F8043BBF
:1004200040F8043BAFF30080D20724BF11F8013B32
:1004300011F801CB48BF11F8012B24BF00F8013B94
:1004400000F801CB48BF00F8012B704710B5203AE7
:10045000C0F00B80B1E81850203AA0E81850B1E87D
:100460001850A0E81850BFF4F5AF5FEA027C24BF33
:10047000B1E81850A0E8185044BF18C918C0BDE82A
:1004800010405FEA827C24BF51F8043B40F8043BF3
:1004900008BF7047D20728BF31F8023B48BF11F8A8
:1004A000012B28BF20F8023B48BF00F8012B704702
:1004B0004FF000020429C0F0128010F0030C00F08D
:1004C0001B80CCF1040CBCF1020F18BF00F8012B0B
:1004D000A8BF20F8022BA1EB0C0100F00DB85FEAD9
:1004E000C17C24BF00F8012B00F8012B48BF00F8A5
:1004F000012B70474FF0000200B513469446964614
:10050000203922BFA0E80C50A0E80C50B1F1200126
:10051000BFF4F7AF090728BFA0E80C5048BF0CC0D4
:100520005DF804EB890028BF40F8042B08BF704732
:1005300048BF20F8022B11F0804F18BF00F8012BA4
:1005400070477047704770473A2800D2303820F023
:100550002002412A01D3A2F13700884201D34FF093
:10056000FF307047026811441378016018467047E5
:10057000D1600549794451610449794411620021EF
:100580001161114600F02EB8EDFFFFFF530000008F
:10059000426842B1016811F8013B23B1521EC0E923
:1005A0000012184670470121C160881E70474268DA
:1005B0005AB1C368016843B983688B4205D0491EAC
:1005C000521CC0E90012002070474FF0FF30704706
:1005D00010B5044600F0E6F90068005D00F0010087
:1005E00010BD00002DE9F34F4FF0000A0C465646AF
:1005F0008DB001200C9001F10C000B9062690B98FA
:1006000001219047051E2DD0252D2CD0216A884729
:10061000C0B162690B9801219047216A8847002880
:10062000F7D16269411E0B98904700E0761CA169E2
:100630000D988847216A88470028F7D1E1690D980D
:100640008847DBE7A1690D988847A842074601D192
:10065000761CD3E7E1690D9888477F1C02D1BAF177
:10066000000F6FD06BE162690B9800273D46394659
:1006700090472A2804D162690B98012190470125EF
:10068000DFF8D08262690B9801219047A0F1300118
:100690000A290AD24745E5DC07EB870100EB410751
:1006A000303FDFD445F01005ECE7E90601D46FF0E8
:1006B00000476C280AD04C2814D0682815D06A2826
:1006C0000DD074281CD07A281AD01DE062690B98CE
:1006D000012190476C2802D045F0040514E045F054
:1006E00002050DE045F020050AE062690B98012142
:1006F0009047682802D045F0080505E045F40065FC
:1007000062690B9801219047C4E9015765283DD0E3
:1007100019DC58287AD00CDC452837D004DC252891
:1007200026D041289ED131E046282FD0472899D1A4
:100730002CE05B2877D0612828D063287CD06428FF
:1007400023D15AE0F6E06F2848D008DC66281DD097
:1007500067281BD0692821D06E2816D127E0702881
:1007600045D0732868D0752847D078280DD14DE042
:10077000A1690D988847252805463FF469AFE169CE
:100780000D9888476D1C3FF46AAFD8E00D99234659
:100790006A466FF00100AFF30080C5E045F040000D
:1007A00023464FF000026060A80736D43EE0E80719
:1007B0007FF447AF2068011D21600068290501D53D
:1007C00006701BE7290701D5068017E7A90703D59F
:1007D000F117C0E9006111E706600FE745F040003E
:1007E00023464FF008026060A80716D41EE040F6CA
:1007F0000E0125EA0100606016E045F04000234646
:100800004FF00A026060A80707D40FE045F04000EF
:100810006060A80708D5234610220D996FF00100EB
:10082000AFF3008080E007E0102223460D996FF0BF
:100830000100FFF7EFFC77E04FF0000963284F4617
:10084000C8464B46CB4602D05B2806D038E0E806C7
:1008500001D40120A060012732E06269D4F80CB015
:100860000B98012190475E2807D14FF001094946B6
:100870006269D4F80CB00B989047216939B900210E
:100880000A4603AB43F82120491C0829FADBD8B3F8
:10089000216949B308F1010862690B980121904769
:1008A0005D28F4D1B9F1000F09D0002003A951F857
:1008B0002020D24341F82020401C0828F7DB03AB5E
:1008C0002069002820794FEA40701ED05B462246FE
:1008D000CDF80080CDE901970D9900286FF0010057
:1008E00020DAAFF300801FE0C11703AA00EBD1614B
:1008F0004B1121F01F0102EB8302411A1368012002
:10090000884003431360C7E719E00D992246002889
:100910006FF00100009702DAAFF3008004E0AFF35C
:10092000008001E0AFF3008000280ADA401C06D105
:100930000C9820B14FF0FF300FB0BDE8F08F50465B
:10094000FAE7E90701D10AF1010A064400200C90F8
:1009500054E60000CCCCCC0C754600F035F8AE4621
:1009600005006946534620F00700854618B020B5BB
:10097000FFF720FCBDE820404FF000064FF00007D5
:100980004FF000084FF0000B21F00701AC46ACE837
:10099000C009ACE8C009ACE8C009ACE8C0098D46A4
:1009A0007047000010B500F013F8001D10BD00BF27
:1009B0004938000010B50446AFF300802046BDE87A
:1009C0001040FFF7E3BB000000487047C408002058
:1009D00000487047E40800204FF0013C50F8042B19
:1009E00051F8043B9A4221D1A2EB0C03934313EA42
:1009F000CC1317D150F8042B51F8043B9A4215D16F
:100A0000A2EB0C03934313EACC130BD150F8042B45
:100A100051F8043B9A4209D1A2EB0C03934313EA29
:100A2000CC13DBD04FF00000704700BFD01A01BAE2
:100A3000B1FA81F101F0180122FA01F0CB40C1F1C5
:100A40002001DBB2C0B2C01A2CFA01F3D11A9143D3
:100A500011EAC311E6D1704701491820ABBEFEE789
:100A60002600020070470000014800F0BEB90000F7
:100A70001007002070B5044620688168C943C90783
:100A800016D1816821F00101816000F0B9FE0546B0
:100A900009E000F0B5FE401B022804D920688068F8
:100AA000C043C00706D020688068C043C007F0D0AC
:100AB000002070BDA06A40F01000A062E06A40F023
:100AC0000100E062012070BD10B50146486A826AEB
:100AD00012F0500F05D0006A026BBDE810400846C6
:100AE0001047816A41F40071816201688968C1F32D
:100AF000424107290CD1017B51B9816A21F48071EF
:100B00008162816AC90403D4816A41F00101816272
:100B100000F068F910BD10B5406A816A41F04001EB
:100B20008162C16A41F00401C16200F05DF910BD4B
:100B300010B5406A00F057F910BD0000F8B5044642
:100B40000026009620688168C943C9072FD08168B4
:100B500041F001018160174817490068B0FBF1F0CE
:100B6000009002E00098401E009000980028F9D103
:100B700000F046FE054615E000F042FE401B02284C
:100B800010D920688068C043C0070BD0A06A40F02D
:100B90001000A062E06A40F00100E06284F8246086
:100BA0000120F8BD20688068C043C007E4D1002060
:100BB000F8BD00004000002040420F00FEE70000AA
:100BC0004FF480710148FFF773BC0000440000201F
:100BD000014800F057BB00004007002030B590F8F6
:100BE00040500124AC40C56B6C600468636043688E
:100BF000102B04D0036899600068C26030BD0368A0
:100C00009A600068C16030BD70474FF4807000F09A
:100C1000EBBC72B6FEE700001FB522A003F05AFA43
:100C20004FF4967000F04EFC214C04E0FFF7C8FF33
:100C30001CA003F04FFA1FA002F00AFB0128F5D117
:100C4000E0784328F2D11A4911220A3101F5817066
:100C5000FFF7B7FB1848011F0A1FA0F11403CDE9E5
:100C60000032CDE902101B1D121F14A11948FFF715
:100C7000B3FA062815D1104C203CD4E90701CDE980
:100C80000001D4E90503D4E9032103F089F8D4E98C
:100C90000701CDE90001D4E90503D4E9032103F0FC
:100CA000E7F81FBD41542B43434C4B3F0D0A000056
:100CB000440000204F4B0000240000202532642F08
:100CC0002532642F2532642C2532643A2532643A69
:100CD000253264005001002070470000F8B5002361
:100CE0000025009590F82420012A12D0012280F8D6
:100CF00024204A681F26072A0DD20468676B521EFB
:100D000002EB82029640B7430E6896403743676312
:100D10001AE00220F8BD0D2A0BD20468276BD21FFF
:100D200002EB82029640B7430E6896403743276332
:100D30000AE00468E76A0D3A02EB82029640B74384
:100D40000E6896403743E7620A6807260A2A0BD3E3
:100D50000468E7680A3A02EB42029640B7438E689D
:100D600096403743E76009E00468276902EB4202D6
:100D70009640B7438E689640374327610A68102A29
:100D800001D0112A23D1144C0268A2421AD19468CE
:100D900024021CD4946844F4000494600968102967
:100DA00015D10E490E4A0968B1FBF2F101EB810140
:100DB0004900009102E00099491E00910099002924
:100DC000F9D104E0816A41F020018162012380F8B9
:100DD00024501846F8BD00000024014040000020C7
:100DE00040420F0070477047704770B50446206856
:100DF00005684668B10625D5A90723D5A16AC906A5
:100E000003D4A16A41F40071A1628168C1F3424137
:100E1000072910D1217B71B9416821F0200141607F
:100E2000A06A20F48070A062A06AC00403D4A06A03
:100E300040F00100A0622046FFF7D4FF21686FF068
:100E40001200086030062ED568072CD5A06AC006AF
:100E500003D4A06A40F40050A06220688168C1F306
:100E60000231072909D04168490515D48168C1F3C9
:100E70004241072910D1217B71B9416821F08001DD
:100E80004160A06A20F48050A062A06AC00503D42B
:100E9000A06A40F00100A0622046FFF71DFF216814
:100EA0006FF00C00086070060CD5E8070AD0A06A45
:100EB00040F48030A062204600F092F821686FF084
:100EC0000100086070BD00002DE9F04104460027D4
:100ED0000025002C03D0A06A002618B108E00120EC
:100EE000BDE8F081E66284F82460204600F07AF8DC
:100EF0002046FFF7BFFDA16AC90600D428B1A06A49
:100F000040F01000A0620120EAE7A16A21F48851B4
:100F100041F00201A1626268E169237B0A4347EA6A
:100F200043010A43A1684FF48077B94208D00129F0
:100F300006D0002194F814C0BCF1010F02D00AE0E1
:100F40003946F7E7F3B1A36A43F02003A362E36AEB
:100F500043F00103E3622368D3F804C02CF4694C26
:100F60004CEA010CC3F804C021688B68DFF868C044
:100F700003EA0C0313438B60A168B94209D001292D
:100F800007D009E0A3695B1E41EA433141F40061E7
:100F9000E1E7218A491E0D052168CB6A23F470031D
:100FA0002B43CB62216889680C4B1940914207D1D1
:100FB000E662A16A21F0020141F00101A1628FE71E
:100FC000A06A20F0020040F01000A062E06A40F049
:100FD0000100E062012083E7FDF7E1FFFE0E1FFF45
:100FE0007047000070B586B0064600240294039452
:100FF000049405941E493068884237D11D49886998
:1010000040F400708861886900F40070019088697C
:1010100040F004008861886900F004000190E0203D
:1010200002900320039002A9134800F0E9FA144D3E
:10103000124828606C60AC608020E8608000286105
:10104000800068612020A861C001E861284600F0A6
:10105000CDF908B1FFF7DDFD35626E620022012196
:10106000122000F06BFC122000F05AFC06B070BD9C
:101070000024014000100240000801400800024026
:10108000400700202DE9F047044689469246DFF8E4
:10109000008120683F4F08F10406404501D0B84266
:1010A00007D1306810F4702F03D001252846BDE821
:1010B000F08794F8240001280BD0012084F8240044
:1010C0002046FFF73BFD0546002125B184F824109A
:1010D000ECE70220EBE7A06A40F60162904340F49F
:1010E0008070A0622068B84218D1326812F4702F64
:1010F00014D0A26A42F48012A2623068400505D57D
:10110000A06A20F4005040F48050A062A06AC0049D
:1011100012D5E06A20F00600E0620EE0A26A22F436
:101120008012A26240684005F0D5A06A20F4005009
:1011300040F48050A062E9E7E16284F82410216A5B
:1011400015488862216A1548C862216A14480863F4
:1011500021686FF0020008602068816841F48071A6
:101160008160216853464C314A46206A00F070F98C
:1011700020688168C1F34241072904D0816841F4A5
:101180008011816092E7816841F4A00181608DE760
:101190000024014000280140C90A0008310B000862
:1011A000170B000810B590F821100022022905D075
:1011B0000421816380F82020012010BD01680B68A4
:1011C00023F00E030B6001680B6823F001030B6032
:1011D00090F84030C46B012101FA03F3636080F89A
:1011E000211080F82020104610BD000010B500240A
:1011F00090F82110022903D00421816301243DE0ED
:1012000001680A6822F00E020A6001680A6822F08A
:1012100001020A601A4A0168914201D1012121E0CC
:10122000174A1432914201D110211BE0144A28328E
:10123000914201D1891515E0114A3C32914201D108
:1012400089140FE00E4A5032914202D14FF480319E
:1012500008E00B4A6432914202D14FF4801101E060
:101260004FF08071064A083A5160012180F8211040
:10127000002180F82010416B01B18847204610BD45
:10128000080002402DE9F05FC16B0A6801680B6835
:10129000046C4FF0040A0AFA04FA4E4D4E4E4F4FBA
:1012A000DFF83CC1DFF83C81DFF83C911AEA020F1D
:1012B00031D05FEA437A2ED50A68920603D40A68D1
:1012C00022F004020A600168A94201D1042119E058
:1012D000B14201D1402115E0B94202D14FF4806101
:1012E00010E0614502D14FF480410BE0414502D14D
:1012F0004FF4802106E0494502D14FF4800101E01E
:101300004FF08061334A083A5160C16A00295FD0CA
:10131000BDE8F05F08474FF0020E0EFA04FE1EEA29
:10132000020F4FF0000A4FF0010B35D05FEA837EC9
:1013300032D50A68920605D40A6822F00A020A60C9
:1013400080F821B00168A94201D1022119E0B1421F
:1013500001D1202115E0B94202D14FF4007110E013
:10136000614502D14FF400510BE0414502D14FF4E9
:10137000003106E0494502D14FF4001101E04FF081
:101380000071144A083A516080F820A0816A00294F
:101390001ED0BDE8F05F08470825A540154217D0CC
:1013A0001A0715D50A6822F00E020A6090F840105C
:1013B000C26B0BFA01F15160C0F838B080F821B06F
:1013C00080F820A0016B002902D0BDE8F05F08473B
:1013D000BDE8F09F080002401C00024030000240BF
:1013E00044000240580002406C00024030B5002822
:1013F00027D0001D144A50F8041C14230A44B2FBE1
:10140000F3F29200C263114A8263022242770A68B1
:1014100043F6F0739A43D0E900342343D0E9024500
:101420002C432343046923434469234384692343AE
:1014300013430B60002141630122427701770020B2
:1014400030BD012030BD0000F8FFFDBF00000240AC
:1014500070B50446002594F8200001280CD0012026
:1014600084F8200094F821600020012E06D084F832
:1014700020000225284670BD022070BD022684F897
:101480002160A0632068066826F0010606602046F9
:10149000FFF7A4FBE06A28B12068016841F00E0163
:1014A000016009E02068016821F004010160206802
:1014B000016841F00A0101602068016841F0010102
:1014C0000160D7E770B5044600F09AF90546601C44
:1014D00002D004480078044400F092F9401BA04276
:1014E000FAD370BD3400002070B5044600F088F9CE
:1014F00035498A68821A322A64D988603348046080
:10150000032233493348FFF7BDFD3348016889079B
:10151000FCD502214160314C6089401C80B2608161
:101520002B4D401E00EB400004EB80002968016158
:1015300060896968401E00EB400004EB8000416157
:1015400002F050FD6189491E01EB410104EB81016C
:1015500088616089B0F57A7F01D901206081A8682F
:1015600003F07AF81E4902F0B5FF02F087FF00226F
:101570001C4B02F085FE02F055FE20814FF05A30E0
:10158000206002F02FFD6060216862890844218993
:1015900011440844E06000200DE000EB400104EB42
:1015A0008101E3680D692B44D1E9055129441944AF
:1015B000E160401C80B28242EFD8BDE8704007482D
:1015C00002F098BD70BD000004000020140401402A
:1015D00044010020100700200000024050020020BB
:1015E00000F07F450000594010B504490A680242E6
:1015F00002D00860FFF778FF10BD0000140401401E
:101600002DE9F84F00240023DFF8C4914FF00F08B4
:10161000A9F1040B09F1040AABF1040ED1E0012792
:10162000A7403A40BA4275D1DFF8A8C14D68A5EB92
:101630000C0665452BD00DDC032D34D005DC35B30D
:10164000012D19D0022D2FD11BE0112D16D0122DF6
:101650002AD119E0B6F5881F19D006DCB6F5803F0F
:1016600015D0B6F5801F1FD111E0B6F5001F0ED0C2
:10167000B6F5041F18D10AE0CB6815E0CB681B1D36
:1016800012E0CB6808330FE0CB680C330CE08B68BA
:1016900023B1012B04D00823476105E0042303E0B4
:1016A0000823076100E00023FF2A01D8054601E076
:1016B00000F1040502D84FEA840603E0A4F108060D
:1016C0004FEA86062F6808FA06FC27EA0C0703FA99
:1016D00006F647EA06072F604D68ED0070D53E4DCF
:1016E000AE6946F00106AE61AD6905F001050095F1
:1016F0003A4D24F003067719BE68A5072D0F08FAA6
:1017000005FC26EA0C06DFF8D8C0604503D14FF08F
:10171000000C17E054E0DFF8CCC0604502D14FF078
:10172000010C0FE0DFF8C0C0604502D14FF0020CA1
:1017300008E0DFF8B8C0604502D14FF0030C01E0CB
:101740004FF0040C0CFA05FC4CEA060CC7F808C074
:101750004D68ED0205D5D9F800501543C9F8005081
:1017600004E0D9F800509543C9F800504D68AD0227
:1017700005D5DAF800501543CAF8005004E0DAF84D
:1017800000509543CAF800504D68AD0305D5DBF80D
:1017900000501543CBF8005004E0DBF800509543AF
:1017A000CBF800504D68ED0305D5DEF80050154329
:1017B000CEF8005004E0DEF800509543CEF800501B
:1017C000641C0A6832FA04F57FF429AFBDE8F88F8B
:1017D0000804014000001110001002400000014008
:1017E00000080140000C01400010014000140140BD
:1017F000002A01D0016170470904016170470000AF
:1018000001488068704700003400002070B504462D
:10181000002C13D021684CF6CC400860216845F2BA
:1018200055500860D4E9001048602168A0688860BD
:10183000FFF7E6FF054641F23C360CE0012070BDA3
:10184000FFF7DEFF401BB04205D92068C068800763
:1018500001D0032070BD2068C0688007F0D12168E6
:101860004AF6AA200860002070BD00000248816886
:1018700002781144816070473400002010B5074899
:10188000016841F010010160032000F077F80F209B
:1018900000F006F800F026F8002010BD00200240FD
:1018A00070B504460D4D4FF47A712878B1FBF0F015
:1018B0000B490968B1FBF0F000F0A6FE08B1012069
:1018C00070BD102C07D200222146501E00F036F8C1
:1018D0006C60002070BD012070BD0000340000204D
:1018E0004000002008B50C48816941F00101816188
:1018F000816901F001010091C16941F08051C1612C
:10190000C06900F0805000900449486820F0E06011
:1019100040F00070486008BD001002400000014027
:10192000002809DB00F01F020121914040098000DE
:1019300000F1E020C0F8001170470000F0B40D463F
:101940000D4B1B68C3F30223C3F10704042C00D919
:101950000424191D072901D2002300E0DB1E012603
:1019600006FA04F1491E294099409E40761E164011
:101970003143F0BC02F0CDBA0CED00E000F00701FD
:10198000054A10684FF6FF03184040EA012003495A
:1019900008431060704700000CED00E00000FA05FD
:1019A000014901200862704700000E4210B501464F
:1019B0000020244C012922D0022939D010291DD120
:1019C00061682268D20119D51F48C1F38342805C47
:1019D000C9030AD561681C4AC1F34041921E515C9B
:1019E0001A4AB2FBF1F1484301E0194948436168E2
:1019F000490203D440000321B0FBF1F010BD226A7C
:101A0000C2F30121012903D1920701D5C80310BDFA
:101A1000022905D1626A920702D549F6404010BDFD
:101A20000329FCD121688903F9D54FF2244010BD68
:101A300000F056F96168C1F38131491C4900B0FBDF
:101A4000F1F010BD001002405847000800127A0063
:101A500000093D002DE9F8430446DFF8F8802078BE
:101A6000C0075FD00027D8F81C00C0000BD4D8F8FE
:101A70001C0040F08050C8F81C00D8F81C0000F092
:101A8000805000900127344D2868C00512D4286882
:101A900040F480702860FFF7B3FE064607E0FFF7CA
:101AA000AFFE801B642802D90320BDE8F8832868B4
:101AB000C005F4D5D8F8200000F4407010B3A18818
:101AC00001F4407181421DD0D8F8200020F440700C
:101AD000224901220A6000220A60C8F82000C007DB
:101AE00010D0FFF78DFE054641F2883606E0FFF77D
:101AF00087FE401BB04201D90320D6E7D8F820006A
:101B00008007F4D5D8F82000616820F440700843BD
:101B1000C8F82000012F05D1D8F81C0020F0805013
:101B2000C8F81C002078800707D5D8F80400A16801
:101B300020F440400843C8F804002078C00607D5C8
:101B4000D8F80400E16820F480000843C8F80400D5
:101B50000020AAE70010024000700040400442420A
:101B60002DE9F04704460D46002C17D0DFF83081F0
:101B7000D8F8000000F00700A84211D2D8F8000001
:101B800020F007002843C8F80000D8F8000000F053
:101B90000700A84204D00120BDE8F0870120FBE740
:101BA0002068404E810712D5400703D5706840F485
:101BB000E06070602078000703D5706840F46050E2
:101BC00070607068A16820F0F000084370602078B1
:101BD000C0072CD06068012806D0022809D03168DF
:101BE00089070BD40120D7E73168890306D4012087
:101BF000D2E73168890101D40120CDE7716821F075
:101C0000030101437160FFF7FBFD074641F288398C
:101C100006E0FFF7F5FDC01B484501D90320BBE7EF
:101C20007068616800F00C00B0EB810FF1D1D8F85A
:101C3000000000F00700A8420ED9D8F8000020F0FC
:101C400007002843C8F80000D8F8000000F007009B
:101C5000A84201D001209FE72078400705D5706891
:101C6000E16820F4E060084370602078000706D542
:101C70007068216920F4605040EAC100706000F093
:101C80003FF87168084AC1F30311515CC840074925
:101C9000086007480068FFF703FE00207CE70000AB
:101CA0000020024000100240684700084000002069
:101CB0003800002001480068704700004000002004
:101CC00000B5FFF7F7FF04494968044AC1F3022150
:101CD000515CC84000BD0000001002407847000879
:101CE00000B5FFF7E7FF04494968044AC1F3C22180
:101CF000515CC84000BD0000001002407847000859
:101D00000E4B59680E4801F00C02042A11D0082A23
:101D10000FD10C48C1F38342805CC9030AD55968CE
:101D2000084AC1F34041921E515C054A5043B0FB42
:101D3000F1F070470449484370470000001002402A
:101D400000127A004647000800093D002DE9F84FCF
:101D50000446002C0ED02078D94DC0075ED06868AC
:101D6000C0F3810001280BD06868C0F3810002280D
:101D700003D00CE00120BDE8F88F6868C00306D5E9
:101D8000286880034AD56068A8BB0120F3E7606833
:101D9000B0F5803F11D0A8B1B0F5A02F1BD02868B6
:101DA00020F480302860286820F480202860606853
:101DB00030B3FFF725FD06461EE0286840F480306A
:101DC0002860F4E7286820F480302860286820F430
:101DD00080202860EBE7286840F48020286028688D
:101DE00040F480302860E2E7FFF70AFD801B64289A
:101DF00002D90320BFE711E028688003F4D50DE085
:101E0000FFF7FEFC064606E0FFF7FAFC801B64289D
:101E100001D90320AFE728688003F5D42078DFF8E4
:101E2000A48280074FF0010A4FF0000945D5686889
:101E300010F00C0F07D06868C0F38100022812D19F
:101E40006868C0030FD42868800704D5206901287A
:101E500001D001208FE72868616920F0F80040EA8E
:101E6000C100286029E02069B8B1C8F800A0FFF7D8
:101E7000C7FC064606E0FFF7C3FC801B022801D919
:101E8000032078E728688007F5D52868616920F085
:101E9000F80040EAC10028600FE0C8F80090FFF7A2
:101EA000AFFC064606E0FFF7ABFC801B022801D919
:101EB000032060E728688007F5D42078000726D53E
:101EC0008148A16999B1C0F800A0FFF799FC0646C6
:101ED00006E0FFF795FC801B022801D903204AE7A2
:101EE000686A8007F5D5012001F064FB0FE0C0F8B7
:101EF0000090FFF785FC064606E0FFF781FC801B9B
:101F0000022801D9032036E7686A8007F5D42078D3
:101F1000400773D50026E869C00008D4E86940F09E
:101F20008050E861E86900F0805000900126DFF8F9
:101F30009CB1DBF80000C00514D4DBF8000040F4CD
:101F40008070CBF80000FFF75BFC074606E0FFF768
:101F500057FCC01B642801D903200CE7DBF8000004
:101F6000C005F4D5E068012812D0B0B105281DD015
:101F7000286A20F001002862286A20F00400286204
:101F8000E06841F2883B28B3FFF73AFC07461DE0C2
:101F9000286A40F001002862F2E7286A20F0010078
:101FA0002862286A20F004002862E9E7286A40F0E5
:101FB00004002862286A40F001002862E0E7FFF789
:101FC0001FFCC01B584501D90320D4E6286A8007AE
:101FD000F5D50DE0FFF714FC074606E0FFF710FC0F
:101FE000C01B584501D90320C5E6286A8007F5D4EF
:101FF000012E03D1E86920F08050E861E069A0B3C8
:102000006968C1F38101022946D0022805D0C8F8C9
:102010006090FFF7F5FB04463AE0C8F86090FFF7E0
:10202000EFFB064606E0FFF7EBFB801B022801D919
:102030000320A0E628688001F5D4206AB0F5803F2F
:1020400005D16868A16820F4003008436860D4E9CD
:1020500008010843696821F4741108436860C8F8EE
:1020600060A0FFF7CDFB044607E026E0FFF7C8FBC2
:10207000001B022801D903207DE628688001F5D5E0
:102080001BE0FFF7BDFB001B022801D9032072E60D
:1020900028688001F5D410E001280CD06868226A15
:1020A00000F48031914204D1616A00F470108842DA
:1020B00003D001205FE601205DE600205BE6000022
:1020C0000010024000004242800442420070004082
:1020D000044A012191700068416821F002014160C9
:1020E000FEF79ABD0400002010B504462068016880
:1020F00089070AD54068800707D52046FFF7E8FF23
:102100002068416821F00201416003494FF400302A
:1021100008600120607410BD14040140F8B5054644
:102120000C46164600200090002D08D03CB100223D
:102130006946284600F01BF818B10120F8BD0120BF
:10214000F8BD287B2070E87BE070697B6170A97B1B
:10215000A17056B101F04FFAE070607801F04BFACF
:102160006070A07801F047FAA0700020F8BD2DE95A
:10217000F04707460C469046002F07D034B1386828
:102180004068400704D50120BDE8F0870120FBE747
:10219000384601F0E4FA05464FF46160B5FBF0F112
:1021A000B5FBF0F200FB12533C22B3FBF2F3637079
:1021B000B5FBF0F300FB1350B0FBF2F302FB13008E
:1021C000A070182936D31820B1FBF0F9B1FBF0F25A
:1021D00000FB12102070384601F0BAFA411C03D0FF
:1021E000A84201D9461B01E04FF0FF36A9EB0910C8
:1021F00000EB4000C0EB001005EBC0152946384647
:1022000001F007FB08B10120BEE7701C06D0711970
:10221000384601F0E7FA40B10120B5E731463846CB
:1022200001F0E0FA08B10120AEE74946384601F076
:10223000EDF900E02170B8F1000F0BD0207801F02B
:10224000DAF92070607801F0D6F96070A07801F0BA
:10225000D2F9A070002097E770B50446002C03D097
:10226000607C002610B105E0012070BD2674204678
:1022700000F048F802206074204600F0A7F9042519
:1022800010B16574012070BD204601F016FA10B13E
:102290006574012070BD2068416821F0070141602C
:1022A000A06820B11648016821F0010101601448BE
:1022B000001F0168A26821F4607111430160606829
:1022C000411C04D10120FFF771FB70B1401E226850
:1022D000C0F303419160216880B2C860204601F0DC
:1022E00006FA28B16574012070BD6574012070BDC7
:1022F000E67301206073A0736074002070BD00005D
:10230000306C004008B500680D49884217D1FFF7CE
:1023100047FB0C48C16941F00061C161C06900F030
:102320000060009008490120086000221146292021
:10233000FFF704FBBDE808402920FFF7F1BA08BD0C
:1023400000280040001002403C0442422DE9F843BE
:1023500004460D46914600260096002C10D07DB113
:10236000207C01280ED001272774022060740022EF
:1023700069462046FFF7FBFE30B10120BDE8F88337
:102380000120FBE70220F9E79DF800104FF461609F
:1023900041439DF80100C0EB001001EB80009DF867
:1023A000021000EB0108B9F1000F1FD0287801F0EE
:1023B00019F94FF4616100FB01F9687801F012F935
:1023C000C0EB001009EB8009A87801F00BF909EBCC
:1023D0000001414501D218480144204601F002FAAB
:1023E00080B10420607426740120C7E729784FF477
:1023F000616041436878C0EB001001EB8000A97870
:102400000144E6E72068416821F00201416020684C
:10241000016841F0020101600848016841F400319F
:10242000016006480830016841F4003101606774BA
:1024300026740020A2E70000805101000004014042
:102440002DE9F04104460D46002C3FD0E5B3207C39
:1024500001283DD00126267402206074AAB3E878D2
:1024600001F0C0F8E073687801F0BCF86073A878F8
:1024700001F0B8F8A073A27B617BE07B01F07FF9EB
:1024800020732870204601F06AF94FF46161B0FBB7
:10249000F1F10025182936D91822B1FBF2F1A1EB90
:1024A000011101EB4101C1EB011100EBC1173946EC
:1024B000204601F0AEF94FF0040890B184F8118085
:1024C00025740120BDE8F08100E003E00120F9E778
:1024D0000220F7E7E878E07368786073A878A07363
:1024E000C9E7204601F034F9411C0CD0B8420AD2A9
:1024F00007490144204601F075F920B184F81180A4
:1025000025740120DEE7667425740020DAE70000F8
:10251000805101002DE9F04104460D46002C28D0E1
:102520003DB3207C012826D0012626740220607449
:102530001AB3287801F056F84FF4616100FB01F7F7
:10254000687801F04FF8C0EB001007EB8007A8781F
:1025500001F048F83D182946204601F05AF90027B5
:102560004FF00408A8B184F8118027740120BDE859
:10257000F0810120FBE70220F9E729784FF4616040
:1025800041436878C0EB001001EB8000A978451842
:10259000E1E72068416821F005014160204601F033
:1025A000D7F8411C0CD0A8420AD207490144204662
:1025B00001F018F920B184F8118027740120D6E7C2
:1025C000667427740020D2E78051010070B504467C
:1025D000002C0AD02068416821F008014160FFF713
:1025E0000FF905464FF47A7608E0012070BDFFF739
:1025F00007F9401BB04201D9032070BD2068406834
:102600000007F4D5002070BD10B5401EB0F1807FEA
:1026100001D3012010BD4FF0E02460610F2160174D
:1026200001F077FC0020A06107202061002010BD90
:102630007047704770B590F83C20012A25D00126DC
:1026400080F83C60022280F83D200268546893685C
:1026500024F070050C682C4354600D4C0268A242B3
:1026600008D0B2F1804F05D00A4CA24202D00A4CE9
:10267000A24204D123F080034968194391603C30A1
:10268000467000210170002070BD022070BD000066
:10269000002C0140000400400008004010B5044632
:1026A000002C03D094F83D0010B107E0012010BDCC
:1026B000002084F83C00204600F016F8022084F840
:1026C0003D00211D206801F065F901203D34607254
:1026D0006070A070E07020716071A071E071207274
:1026E0002070002010BD000008B50068B0F1804FD8
:1026F00012D10A48C16941F00101C161C06900F00D
:1027000001000090002211461C20FFF717F9BDE8D8
:1027100008401C20FFF704B908BD0000001002406B
:1027200090F83D10012901D001207047022180F866
:102730003D100168CA6842F00102CA6000680E4993
:10274000884208D0B0F1804F05D00C49884202D0B1
:102750000B49884209D1816801F00701062908D098
:10276000016841F00101016003E0016841F00101ED
:102770000160002070470000002C01400004004070
:102780000008004070B50446002594F83C0001287C
:1027900017D0012684F83C60022084F83D002068B0
:1027A000826822F0770222F47F4282600868502813
:1027B00038D00DDC202853D005DC90B3102811D17F
:1027C0004EE0022070BD30284AD040280AD13DE0BA
:1027D000602831D070280CD0B0F5805F03D0B0F500
:1027E000005F12D001253C3466700020207028461E
:1027F00070BDCB68D1E90121206801F007F920689C
:10280000816841F077018160EDE7CB68D1E9012172
:10281000206801F0FBF82068816841F48041816004
:10282000E1E71DE0CA684968206801F001F950211C
:10283000206801F0F5F8D6E7CA684968206801F019
:1028400008F96021206801F0EBF8CCE7CA68496814
:10285000206801F0EDF84021206801F0E1F8C2E7BE
:1028600022680146104601F0DBF8BCE770472DE90D
:10287000F04104462068C56806694FF00007B107BB
:1028800014D5A90712D5F91E01610120207720680F
:102890008069800703D02046FFF7E8FF05E0204667
:1028A00000F081F8204600F07FF82777700717D5F1
:1028B000680715D521686FF00400086102202077B1
:1028C0002068806910F4407F03D02046FFF7CEFFD8
:1028D00005E0204600F067F8204600F065F827770D
:1028E000300716D5280714D521686FF00800086155
:1028F000042020772068C069800703D02046FFF7B6
:10290000B5FF05E0204600F04EF8204600F04CF8F8
:102910002777F00617D5E80615D521686FF0100067
:102920000861082020772068C06910F4407F03D038
:102930002046FFF79BFF05E0204600F034F82046D4
:1029400000F032F82777F00708D0E80706D02168B2
:102950006FF001000861204600F028F8300608D525
:10296000280606D521686FF0800008612046FFF731
:102970005FFE700608D5680606D521686FF0400036
:102980000861204600F026F8B0060AD5A80608D54A
:1029900021686FF0200008612046BDE8F041FFF794
:1029A00048BEBDE8F0817047704700000068B0F194
:1029B000804F0BD106484168491C41604168B1F520
:1029C000617F03D101214170002141607047000007
:1029D000040000207047704770470000F8B50446B7
:1029E00022681068D168536900F00F06002E08D1E4
:1029F000850606D58D0604D52046BDE8F84001F0D1
:102A000076B80025002E66D003F0010601F4907719
:102A1000374360D0C20705D0CA0503D5626C42F0C7
:102A200001026264420705D5DA0703D0626C42F006
:102A300002026264820705D5DA0703D0626C42F0B5
:102A400004026264020707D501F02002324303D07A
:102A5000626C42F008026264626C002A31D0800627
:102A600004D5880602D5204601F041F82068406967
:102A7000C0F38010616C090700D438B3204601F020
:102A800002F82068406940061CD52068143050E8E0
:102A9000001F21F0400140E80012002AF5D1E06B50
:102AA00060B159494163E06BFEF7A0FB002808D0F4
:102AB000E06B416B01B0BDE8F04008472046FFF7EE
:102AC0008BFFF8BD2046FFF787FFF8BD2046FFF7D4
:102AD00083FF6564F8BD236B012B7DD1C3067BD5D5
:102AE000CB067ED510685068009050694FF02003E7
:102AF00040064FF0020643D5E16B0868406880B29B
:102B00000028E7D0A28D8242E4D9E0858869202898
:102B10002DD020680C3050E8001F21F4807140E86F
:102B20000012002AF5D12068143050E8001F21F06F
:102B3000010140E80012002AF5D12068143050E865
:102B4000001F21F0400140E80012002AF5D184F86E
:102B50004230256320680C3050E8001F21F010013E
:102B600040E80012002AF5D1E06BFEF71BFB66631C
:102B7000A08DE18D401A81B22046FFF72CFFF8BDF1
:102B8000A08DE18D401A81B2E08D0028F7D0002998
:102B9000F5D020680C3050E8002F22F4907240E805
:102BA0000027002FF5D12068143050E8002F22F0C4
:102BB000010240E80027002FF5D184F84230256358
:102BC00020680C3050E8002F22F0100240E800236B
:102BD000002BF5D1666300E003E02046FFF7FBFE23
:102BE000F8BD020606D50A0604D52046BDE8F84021
:102BF00001F05AB84006F3D54806F1D52046BDE8A5
:102C0000F84000F067BF0000773A000870B504464E
:102C1000002C04D094F84100002510B106E00120FA
:102C200070BD84F84050204600F024F8242084F839
:102C300041002068C16821F40051C160204600F0C5
:102C4000BBFF2068016921F490410161206841695E
:102C500021F02A0141612068C16841F40051C1603E
:102C60006564202084F8410084F8420065630020F8
:102C700070BD0000F0B585B0002401940294039467
:102C800004940268444F022044490323444D460201
:102C9000BA4228D18A6942F480428A618A6902F480
:102CA000804200928A6942F004028A61896901F0D7
:102CB00004010091010201910290049301A92846A8
:102CC000FEF79EFC01960294039401A92846FEF7A4
:102CD00097FC002211462520FEF730FE2520FEF746
:102CE0001FFE05B0F0BD2F4FBA4228D1CA6942F489
:102CF0000032CA61CA6902F4003200928A6942F065
:102D000004028A61896901F00401009104210191A2
:102D10000290049301A92846FEF772FC0821019154
:102D20000294039401A92846FEF76AFC002211468A
:102D30002620FEF703FE2620FEF7F2FDD1E71A4D0E
:102D4000AA42CED1CA6942F48022CA61CA6902F499
:102D5000802200928A6942F008028A61896901F042
:102D600008010091019602900493104D01A9284694
:102D7000FEF746FCE91401910294039401A9284648
:102D8000FEF73EFC002211462720FEF7D7FD272044
:102D9000FEF7C6FDA5E70000003801400010024024
:102DA000000801400044004000480040000C014081
:102DB00090F84230202B01D00220704721B11AB187
:102DC0000023036300F054BF0120704730B4016852
:102DD0000F48814219D10F4A0F4B1078D478411C0B
:102DE000C9B211701C54581810F8011C0A2905D1D9
:102DF00010F8030C4B2801D1002010700549012266
:102E000030BCC91C0548FFF7D3BF30BC7047000079
:102E1000004400400400002044000020340800204A
:102E20002DE9F84304460E4615461F4694F8410026
:102E3000202802D00220BDE8F8837EB175B10020C1
:102E40006064212084F84100FEF7DAFC8146A58405
:102E5000E584A068B0F5805F02D003E00120EAE7D6
:102E6000206920B1354600264FF0200815E00025E6
:102E7000FAE74B46002280212046009700F043FFEE
:102E800018B184F841800320D5E7ADB1216815F869
:102E9000010B4860E08C401EE084E08C0028E8D103
:102EA0004B46002240212046009700F02CFF50B1F5
:102EB00084F841800320BEE736F8020B2168C0F396
:102EC00008004860E6E784F841800020B3E77047D7
:102ED000FEE700003EB500210091019102911B48E0
:102EE000194A0260921582600125057301754FF43D
:102EF0006022C261416003240461FDF7E5FF08B16F
:102F0000FDF787FE0520009001950725029569468B
:102F10000E48FDF7E3FE08B1FDF77BFE06200090AA
:102F20000220019069460948FDF7D8FE08B1FDF777
:102F300070FE0095019469460448FDF7CFFE002815
:102F400001D0FDF766FE3EBD0024014010070020C1
:102F500008B50948416941F001014161406900F04B
:102F600001000090002211460B20FEF7E7FCBDE8AF
:102F700008400B20FEF7D4BC0010024030B585B0ED
:102F8000002401940294039404942248816941F03E
:102F900010018161816901F010010091816941F0A6
:102FA00020018161816901F020010091816941F076
:102FB00004018161816901F004010091816941F09E
:102FC00008018161806900F008000090124D002224
:102FD00001212846FEF70CFC012101910291039486
:102FE0000224049401A92846FEF70AFBE00101909F
:102FF0000A480290039401A90948FEF701FB002248
:1030000011461720FEF79AFC1720FEF789FC05B041
:1030100030BD000000100240000801400000111007
:10302000000C014010B509480749016004214160C6
:103030004FF47A718160FEF7E9FB002803D0BDE808
:103040001040FDF7E6BD10BD0030004084070020B1
:103050001FB5002403940294009401942148204950
:103060000160611E41604FF480718160FFF7F4F8E8
:1030700008B1FDF7CEFD12208DF80C008DF80D4043
:103080008DF80E40012203A91648FFF743FA08B154
:10309000FDF7BFFD02208DF8080011208DF8090012
:1030A00019208DF80A0024208DF80B00012202A9B6
:1030B0000C48FFF7C5F908B1FDF7ABFD8DF80040EE
:1030C00015208DF801008DF8024001940122694617
:1030D0000448FFF73BF9002801D0FDF79AFD1FBD1A
:1030E000002800409007002010B586B0002402940C
:1030F0000394049405940094019414484FF0804183
:10310000016041F61F414160846042F20F71C1606D
:1031100004618461FFF7C2FA08B1FDF77AFD4FF44C
:103120008050029002A90948FFF72CFB08B1FDF777
:1031300070FD0094019469460448FFF77BFA00286B
:1031400001D0FDF766FD06B010BD0000A407002009
:1031500010B50C480A4901604FF416514160002136
:103160008160C16001610C2242618161C161FFF730
:103170004DFD002803D0BDE81040FDF74ABD10BD4D
:1031800000380140EC07002010B50E480C490160E2
:103190004FF41651416000218160C16001610C2231
:1031A00042618161C161FFF731FD08B1FDF731FD79
:1031B000BDE81040012204490248FFF7F9BD0000B4
:1031C00000440040340800200700002010B50C48DF
:1031D0000A4901604FF41651416000218160C160CD
:1031E00001610C2242618161C161FFF70FFD00287E
:1031F00003D0BDE81040FDF70CBD10BD00480040F5
:103200007C080020FEE700001CB5002201A90E4842
:10321000FEF7ADFF002269460B48FEF77FFF0B4823
:103220009DF8031001809DF8011041809DF8021067
:1032300081809DF80410C1809DF8051001819DF8E2
:10324000061041811CBD00009007002028000020CE
:1032500010B504466420FEF735F921460348FDF712
:103260007FF808B1012010BD002010BD44000020EF
:1032700010B526A000F02EFF4FF4FA742046FEF79A
:1032800021F907E0FDF79CFC20A000F023FF204679
:10329000FEF718F926A0FFF7DBFF0128F2D1FDF7B2
:1032A0008FFC27A000F016FF2046FEF70BF90DE07B
:1032B000FDF786FC15A000F00DFF2046FEF702F991
:1032C0001FA000F007FF2046FEF7FCF825A0FFF73F
:1032D000BFFF0128ECD1FDF773FC26A000F0FAFE39
:1032E0002046FEF7EFF807E0FDF76AFC21A000F0AA
:1032F000F1FE2046FEF7E6F825A0FFF7A9FF01281A
:10330000F2D1BDE81040FDF75BBC000041542B51E9
:103310004D544F50454E3D302C2234372E39322EED
:103320003134362E323130222C313838330D0A0008
:103330002B514D544F50454E3A20302C3000000058
:1033400041542B514D54434F4E4E3D302C22383674
:1033500031343238303430303430313939220D0A9A
:10336000000000002B514D54434F4E4E3A20302C5C
:10337000302C300041542B514D545355423D302C8C
:10338000312C2262633235222C300D0A00000000FD
:103390002B514D545355423A20302C312C302C3087
:1033A0000000000070B559A000F094FE4FF496752F
:1033B0002846FEF787F857A15748FCF7D1FF574C2E
:1033C0002060FDF7FDFB0CE0FDF7FAFB4FA000F0DD
:1033D00081FE2846FEF776F84EA14F48FCF7C0FF65
:1033E000206020680028EFD04DA000F073FE284632
:1033F000FEF768F8FDF7E4FB4CA000F06BFE2846F2
:10340000FEF760F8FDF7DCFB4BA000F063FE2846FA
:10341000FEF758F8FDF7D4FB4BA000F05BFE284602
:10342000FEF750F8FDF7CCFB4BA000F053FE28460A
:10343000FEF748F8FDF7C4FB4AA000F04BFE284613
:10344000FEF740F84AA13448FCF78AFF2060FDF7F8
:10345000B7FB0CE0FDF7B4FB42A000F03BFE2846B2
:10346000FEF730F842A12C48FCF77AFF2060206874
:103470000028EFD03FA000F02DFE2846FEF722F8EE
:1034800024A12548FCF76CFF2060FDF799FB3DA0C7
:1034900000F020FE2846FEF715F83DA11E48FCF777
:1034A0005FFF2060FDF78CFB0CE0FDF789FB35A08A
:1034B00000F010FE2846FEF705F835A11648FCF787
:1034C0004FFF206020680028EFD034A000F002FEFB
:1034D0002846FDF7F7FF34A10F48FCF741FF2060B5
:1034E000FDF76EFB0EE0FDF76BFB2CA000F0F2FD8C
:1034F0002846FDF7E7FF2CA10748FCF731FF2060C5
:10350000FDF75EFB20680028EDD070BD41540D0A28
:10351000000000004F4B000044000020000000208D
:1035200041542B4350494E3F0D0A00004154453051
:1035300026570D0A0000000041542B514D544449B8
:1035400053433D300D0A000041542B514D54434C20
:103550004F53453D300D0A0041542B4346554E3DD7
:10356000310D0A0041542B43494D490D0A0000001A
:103570003436300041542B43474154543D310D0AF9
:103580000000000041542B43474154543F0D0A00B2
:103590002B43474154543A203100000041542B43FF
:1035A0004553510D0A0000002B43455351000000C4
:1035B000FEE7704708B507494FF4FA520968B1FBB6
:1035C000F2F14143009100BF0098411E0091FAD2F0
:1035D00008BD0000400000200148FEF785BD000046
:1035E00090070020010901EB8101490000F00F0064
:1035F0000844C0B27047002102E0491C0A38C0B23A
:103600000A28FAD2090740EA116070472DE9F04113
:10361000064688460027F57B747BB27B40E0012C90
:1036200016D0032C14D0052C12D0072C10D0082C47
:103630000ED00A2C0CD00C2C0AD0042C15D0062C41
:1036400013D0092C11D00B2C0FD0022C14D026E053
:103650001F2A01D2521C22E00C2C02D0641C012231
:103660001DE0012401226D1C19E01E2A01D2521C0A
:1036700015E0641C012212E01C2A02D202F10102B0
:103680000DE008D1A8B200F04CF808B11D2206E008
:103690000324012203E01D2A01D1032401227F1CFF
:1036A0004745BCD3F573E1B27173D2B2B273284609
:1036B00000F065F83073BDE8F08170B50546FEF79F
:1036C0009FF804464FF47A7606E0FEF799F8001B5F
:1036D000B04201D9032070BD286840688006F4D547
:1036E0002868416841F010014160002070BD70B54C
:1036F00005462868416821F010014160FEF780F816
:1037000004464FF47A7606E0FEF77AF8001BB042E2
:1037100001D9032070BD286840688006F4D50020D8
:1037200070BD810701D0002070476421B0FBF1F229
:1037300001FB120109B1012070474FF4C871B0FBC1
:10374000F1F201FB120008B1002070470120704720
:103750000068016A406A80B240EA01407047006830
:10376000816989B2C26993B2826992B2914203D0EF
:10377000C06962F31F40704743EA01407047F0B5EB
:1037800000F5FA606427C1EBC1030925BE000724D8
:1037900003EB0113032912D2B3FBF5F111440144E9
:1037A000401EB0FBF7F201EB9001B0FBF6F0891A76
:1037B0000844001DB0FBF4F104FB110010E0B3FB62
:1037C000F5F11144B0FBF7F2014401EB9001B0FBBD
:1037D000F6F0891A0844801CB0FBF4F104FB1100D8
:1037E000C0B2F0BD70B505460E4600242846FFF76E
:1037F00064FF08B101240AE02968300C08622968D6
:10380000B0B248622846FFF772FF00B1012420469B
:1038100070BD70B505460E4600242846FFF74DFFE3
:1038200008B101240AE02968300C88612968B0B227
:10383000C8612846FFF75BFF00B10124204670BD38
:1038400070470000F0B5C3B0214D6878012802D060
:10385000A87801283AD11F4C4FF05A30206000F070
:10386000C1FB606000262168628908441044E06062
:1038700000200DE000EB400104EB8101E3680F69DB
:103880003B44D1E9057139441944E160401C80B2E0
:103890008242EFD802AA03A90E4800F05BFC0EA0FA
:1038A00000F018FC02984FF0FF3482B2234603A9BF
:1038B0001048FFF7B5FA10A00068019023460122D6
:1038C00001A90C48FFF7ACFA6E70AE7043B0F0BDC2
:1038D000040000205002002041542B514D545055FB
:1038E000423D302C302C302C302C22626332352279
:1038F0000D0A0000340800201A000000FDF7B6BFD2
:1039000030B593B0282109A8FCF7F4FD142104A8D0
:10391000FCF7F0FD00240094019402940394092024
:1039200009904FF480300A900B9401210D910F9172
:103930000225109511904FF4E010129009A8FEF79F
:1039400005FA08B1FDF765F90F2004900595069476
:103950004FF4806007900894022104A8FEF700F954
:1039600008B1FDF756F9032000904FF40070019064
:10397000800102906846FEF76DF8002801D0FDF73F
:1039800048F913B030BD70470148FEF770BF000022
:10399000A4070020F0B50268194C1A4D1A4E4FF0DA
:1039A0008047A04205D0B84203D0A84201D0B0421F
:1039B00003D122F070034A681A43A04205D0B842EE
:1039C00003D0A84201D0B04203D122F44073CA68A8
:1039D0001A434B6922F080021A4302608A68C2626D
:1039E0000A688262A04201D1096901630121416133
:1039F0000169C90703D0016921F001010161F0BD2E
:103A0000002C0140000400400008004010B584680C
:103A100024F47F4442EA03220A432243826010BD19
:103A2000826822F070020A4342F007018160704709
:103A300010B5036A046A24F001040462846924F066
:103A4000F00444EA021423F00A020A438461026289
:103A500010BD10B5036A046A24F01004046284697E
:103A600024F4704444EA023223F0A00343EA011133
:103A70008261016210BD10B5406A0021C185C18418
:103A8000FEF7AAFF10BD01680C3151E8002F22F4A7
:103A9000907241E80023002BF5D10168143151E800
:103AA000002F22F0010241E80023002BF5D1016B29
:103AB000012909D101680C3151E8002F22F01002D0
:103AC00041E80023002BF5D1202180F8421000218D
:103AD0000163704710B50168CA6822F04002CA60ED
:103AE000202180F84110FFF7F2F9002010BD08B541
:103AF00090F84210222901D0022008BD82684FF4BC
:103B000080539A4201D1016921B1816A9A421DD044
:103B100052B10BE0816A02685268C2F308020A805F
:103B2000816A891C816209E002697AB1026852687F
:103B300002F07F020A70816A491C8162C18D491EB0
:103B40000904090CC18505D0002008BD026852682F
:103B50000A70F0E70168CA6822F02002CA600168B2
:103B6000CA6822F48072CA6001684A6922F00102C0
:103B70004A61202180F8421000214163026B012A32
:103B800003D0FFF723F9002008BD016301680C3161
:103B900051E8002F22F0100241E80023002BF5D15C
:103BA00001680A68D20602D50A6849680091818DC9
:103BB000FEF711FFE7E7000070B5044620680169D1
:103BC000E26821F4405111430161A1682069014379
:103BD000606901432068C26841F20C639A430A435A
:103BE000C26020684169A26921F4407111434161BA
:103BF0001E492068884202D1FEF772F801E0FEF704
:103C00005FF800EBC00101EB0010616864228900DD
:103C1000B0FBF1F3B3FBF2F36FF018067343B0FBA4
:103C2000F1F5B0FBF1F605EB8305322303EB051547
:103C3000B5FBF2F5B6FBF2F605F0F00505EB06155F
:103C4000B0FBF1F6B0FBF1F0B0FBF2F06FF0180151
:103C5000484306EB800003EB0010B0FBF2F0216854
:103C600000F00F002844886070BD0000003801405B
:103C700081628285C28500214164222180F8421040
:103C80000169002904D00168CA6842F48072CA60E0
:103C900001684A6942F001024A610068C16841F066
:103CA0002001C1600020704790F84110212901D007
:103CB000022070478168B1F5805F01D1016961B16F
:103CC000016A4A1C0262026809785160C18C491E6F
:103CD0000904090CC1840AD013E0016A026809884A
:103CE000C1F308015160016A891C0162EEE70168B5
:103CF000CA6822F08002CA600068C16841F04001D1
:103D0000C160002070472DE9F84304460D46174670
:103D10009846089E25E0701C23D0FDF771FDA0EBAE
:103D20000800B0421BD8D6B12068C168490718D531
:103D3000802D16D0402D14D00168C943090710D436
:103D4000002521680968406800902046FFF79BFE27
:103D50000820606484F840500120BDE8F883032007
:103D6000FBE72068006835EA000004D00020B84274
:103D7000D1D00020F1E70120F9E700000148FEF76B
:103D80002DBE0000EC0700200148FEF727BE000012
:103D9000340800200148FEF721BE00007C08002006
:103DA0002DE9FC478046DDE90A6791461D46002063
:103DB000019000902D482C4901604FF0FF31416087
:103DC0004FF480718160FEF747FA08B1FCF721FFDC
:103DD0000A2495FBF4F095FBF4F104FB105040EA43
:103DE00001108DF8040096FBF4F096FBF4F104FB4F
:103DF000106040EA01108DF8050097FBF4F097FB86
:103E0000F4F104FB107040EA01108DF80600012265
:103E100001A91648FEF77EFB08B1FCF7FAFE022066
:103E20008DF8000011208DF8010099FBF4F099FB4A
:103E3000F4F104FB109040EA01108DF8020098FBA9
:103E4000F4F098FBF4F104FB108040EA01108DF8C7
:103E50000300012269460548FEF7F2FA002801D066
:103E6000FCF7D7FEBDE8FC87002800409007002043
:103E70002DE9FE4F8246DDE90C57894690461C46E7
:103E8000002600960196002202A92048FEF76FF94D
:103E90000F353C2D0EDB3C3D641C182C0ADB183C16
:103EA00008F101084946504600F082F8404501DA21
:103EB00009F101090A2094FBF0F194FBF0F200FBF8
:103EC000114141EA02118DF8001095FBF0F195FBCC
:103ED000F0F200FB115141EA02118DF8011097FB3D
:103EE000F0F100FB117197FBF0F041EA00108DF842
:103EF00002000196002269460448FEF727FA0028CE
:103F000001D0FCF786FEBDE8FE8F00009007002080
:103F1000FEE70907090E002804DB00F1E02080F825
:103F20000014704700F00F0000F1E02080F8141D2D
:103F300070471C20704700002DE9F05F06888778E5
:103F400090F8038090F8049090F805A090F806B0DF
:103F500000244FF4FD650AE0284600F05FF810B138
:103F60004FF4B77001E040F26D1004446D1CB5428F
:103F7000F2DB012505E02946304600F019F804443B
:103F80006D1CBD42F7DB04EB0800401E07494843A7
:103F9000C9EB4911C1EB092100EB0110CAEB0A1171
:103FA00000EB81005844BDE8F09F00008051010003
:103FB00030B58DB005460C463022094901A8FCF702
:103FC00045FA022C06D1284600F028F810B11D2031
:103FD0000DB030BD01A8641E50F82400F8E70000C1
:103FE000144700081CB5FFF70FF90B480188ADF81E
:103FF000001081788DF8021001798DF80310817915
:104000008DF80410017A8DF80510807A8DF806007D
:104010006846FFF791FF1CBD2800002081070CD1E6
:10402000642190FBF1F201FB120141B94FF4C87118
:1040300090FBF1F201FB120008B100207047012053
:1040400070470000FDF71AFCFFF75AFCFEF796FFD9
:10405000FEF77EFFFEF73EFFFFF746F8FFF778F822
:10406000FFF792F8FFF7B2F8FEF7DCFFFEF7F0FF7C
:10407000012211460B48FDF7BBFB0B48FEF750FB36
:104080000A480068016841F00201016000F010F880
:10409000FCF7C2FDFFF786F9FFF7EAF8FFF7D2FB5E
:1040A000FCE7000000080140A40700209007002062
:1040B00010B505A000F00EF86420FDF703FABDE886
:1040C0001040FCF77DBD000041542B515253543D2C
:1040D000310D0A0010B504462046FCF753F921467D
:1040E00082B2BDE810404FF0FF330148FEF798BEA2
:1040F0003408002010B5C2B06A4601A900F054F897
:104100000BA0FFF7E7FF00984FF0FF3482B2234681
:1041100001A90E48FEF784FE0DA0006841902346D9
:10412000012241A90948FEF77BFE42B010BD000004
:1041300041542B514D545055423D302C302C302C95
:10414000302C2262633235220D0A00003408002030
:104150001A000000F8B503680B6043684B60C36841
:104160008B600C230124009417E0CD18BDF800608B
:104170002E809B1CCE18651E05EB450500EB8505C2
:104180002F6937601B1DCE186F6937601B1DCE1855
:10419000AD6935601B1D641C00944589BDF8004065
:1041A000A542E2D21360F8BD00B503680B60436816
:1041B0004B6003890B8143894B81C368CB60438982
:1041C0005B1E03EB430300EB83031B690B61438915
:1041D0005B1E03EB430300EB83035B694B61438985
:1041E0005B1E03EB430300EB83039B698B61FFF7CB
:1041F000A0FE106000BD000010B500290AD00878AC
:10420000002807D005487844FCF7E6FB002801D0D9
:10421000002010BD0248784410BD00009A0500003F
:10422000920500004FEA1153A3F58063D3F11E03FA
:10423000A8BFD3F1200C08DB4FF0004242EAC122B4
:1042400052EA505232FA03F0704709420BD4102B55
:10425000C4BF0020704703F5787CBCF1FF3F05D058
:104260004FF0FF3070474FF00000704770B500F01E
:10427000B1F800BF4992248000207047F0E70000A9
:10428000DFF848C170B51CEA111E1EBF1CEA1315E9
:104290009EEA0C0F95EA0C0F00F06F8081EA030490
:1042A00023EA4C134EEAD47E21EA4C1141F48011EA
:1042B00043F48013AE44A1FB024CA0FB0365AEF1B6
:1042C0007F7E361955EB0C05A1FB034C4CF1000326
:1042D000A0FB021C16EB0C06654153F100030942DA
:1042E00018BF46F0010613F4007F0BD14FEA0331EB
:1042F0004FEA0530340341EA155140EA16506FF099
:1043000003020AE04FEAC3214FEAC520F40241EA62
:10431000555140EA56506FF0020202EB2E4201EB7B
:10432000025585EACE710AD05FEA440C18BF24F02A
:10433000004450F1000041F1000120EAD47040F245
:10434000FE7C624500D270BDA84214BF4FF080448D
:104350004FF04044002E08BF0024BEF1806FA8BF7C
:10436000A1F1C041BDE8704080F282804FF00000B2
:1043700001F1C04101F0004170479EEA0C0F0CEAC8
:10438000131518BF95EA0C0F06D04FF0000081EA14
:10439000030E0EF0004170BD00F01CF88900013ED4
:1043A00000F007B800F009B84FEA430C5FEA5C5C24
:1043B00008D081EA030100F05BB84FEA410C5FEAE4
:1043C0005C5CF6D14FF00000014970470000FF0728
:1043D0000000F87F0EF1020E2EF0030E5EF8046B63
:1043E000364205D4012A43EB030515F5001F12D808
:1043F000012841EB010C1CF5001F0CD80ED14FEA2F
:10440000D17C15F5001F0CEB4C0C0CF1020C08BF15
:104410004CEBD37C04E04FF0080C01E04FEAD37C76
:104420000CEB4C0526FA05F606F00706B6F1040C6F
:1044300006D20EEB860CBDE870404CF0010C6047D4
:10444000DFE80CF0090B02024FF000414FF00000D2
:10445000A1F5002170BD19461046012851EB010459
:1044600018BFD4F5001484BF002001F0004170BDD6
:104470000808A0F500114FEA3101704743004FEAE8
:10448000D30C4FEA3C0C43401FBF40070CF1605176
:1044900013F0FE4F70471CF0006F03D100200CF0AA
:1044A000004170470CF0004343EA507010B540EAF9
:1044B000CC0000F0E4F800BF000000924FEA0001D9
:1044C000FFF7D6BF4FF000414FF00000A1F50021EB
:1044D000704700004FF47F0C1CEAD0121EBF1CEA8C
:1044E000D11392EA0C0F93EA0C0F00F0858090EA4A
:1044F000010F48BF42F4807240F4000C41F4000008
:104500002CF07F4120F07F4000B58142A2EB0302F6
:104510000FF2081CACEB504EC0F100009EF800E01A
:104520004FEA4E0E00FB0EFC38BF49004FEA2C1C30
:1045300002F5FA020CFB0EF34FEACE1E4FEA112CE5
:104540004FEAC1210EEB635E42EB22420EFB0CFCF4
:104550004FEA1C5300FB03114FEA112C4FEA0131C3
:104560000EFB0CFC4FEADC4C00FB0C11C14228BFD7
:1045700009184CEB03335DF804EB10EB410143EBFE
:10458000C250B2F57C0F38BF704729D512F0F00F3A
:104590001CBF00F1C04000F00040704700818283E2
:1045A0008485868788898B8C8D8E8F919293959642
:1045B00097999A9C9D9FA0A2A3A5A7A8AAACAEB0CC
:1045C000B2B3B5B7B9BCBEC0C2C5C7C9CCCED1D4D1
:1045D000D7D9DCDFE2E6E9ECF0F3F7FAFE00000001
:1045E0004FEA400C0CF1807CBCF17E4F28BF704735
:1045F000B0F1C04000F089B890EA010F0CEAD11385
:1046000048BF42F48072624538BF634507D213F455
:104610007F0F16D080EA010000F00040704710B50F
:1046200000F02DF8097EFC3E00F005B880EA01009C
:1046300000F00040704780EA010000F0004000F008
:1046400064B812F47F0F04BF0248704780EA01008B
:1046500000F05BB80000C07FB0FA80F310FA03F2FC
:10466000C3F19D030AD0D90501EB1220530638BFD0
:10467000704700F1010008BF20F0010070470EF103
:10468000020E2EF0030E5EF8044B244204D44FEACF
:104690004102B2F17F4F11D84FEA4003B3F17F4F8F
:1046A0000CD80ED14FEAD07CB2F17F4F0CEB4C0C02
:1046B0000CF1020C08BF4CEBD17C04E04FF0080C6D
:1046C00001E04FEAD17C0CEB4C0324FA03F404F034
:1046D0000704B4F1040C06D20EEB840CBDE81040C4
:1046E0004CF0010C6047DFE80CF0070802024FF0C5
:1046F0000040A0F5800010BD0846420018BFD2F16E
:10470000807288BF00F0004010BDFF2141EAD05008
:10471000C00570471F0000001C0000001F000000C3
:104720001E0000001F0000001E0000001F0000000F
:104730001F0000001E0000001F0000001E000000FF
:104740001F000000010202030405060708090A0B06
:104750000C0D0E0F101001020203040506070809D4
:104760000A0B0C0D0E0F10100000000000000000DE
:104770000102030406070809000000000102030407
:10478000B048000800000020440000002801000894
:10479000F448000844000020E40E00004401000832
:1047A0001001000043000000F8FFFFFF0040404000
:1047B00040404040404041414141414040404040F4
:1047C00040404040404040404040404040050202A0
:1047D000020202020202020202020202022020205F
:1047E00020202020202020020202020202029090BB
:1047F00090909090101010101010101010101010B9
:10480000101010101010101002020202020288880C
:104810008888888808080808080808080808080818
:104820000808080808080808020202024000000000
:104830000000000000000000000000000000000078
:104840000000000000000000000000000000000068
:104850000000000000000000000000000000000058
:104860000000000000000000000000000000000048
:104870000000000000000000000000000000000038
:104880000000000000000000000000000000000028
:104890000000000000000000000000000000000018
:1048A0000000000000000000000000000000000008
:1048B00000000000000000000000000000000000F8
:1048C00000000000000000000000000000000000E8
:1048D000000000000000000018000B0013000C0096
:1048E00014000000010000001000000000000000A3
:0448F00000127A0038
:04000005080000ED02
:00000001FF
