:020000040800F2
:10000000501A0020890100089D260008E7230008F7
:10001000992600087D0300088D2F000800000000CD
:10002000000000000000000000000000A92A0008F5
:100030008103000800000000A1260008AD2A000886
:10004000A3010008A3010008A3010008A301000800
:10005000A3010008A301000883030008A30100080E
:10006000A3010008A3010008A3010008A3010008E0
:10007000A3010008A3010008A3010008A3010008D0
:10008000A3010008A3010008A3010008A3010008C0
:10009000A3010008A3010008A3010008A3010008B0
:1000A000A3010008A3010008A3010008A3010008A0
:1000B000A3010008A3010008A3010008A301000890
:1000C000A3010008A3010008A3010008A301000880
:1000D000A3010008252F0008A3010008A3010008C0
:1000E000A3010008CD260008A301000800F002F8D3
:1000F00000F03AF80AA090E8000C82448344AAF188
:100100000107DA4501D100F02FF8AFF2090EBAE885
:100110000F0013F0010F18BFFB1A43F0010318473B
:100120002032000040320000103A24BF78C878C165
:10013000FAD8520724BF30C830C144BF04680C60ED
:10014000704700000023002400250026103A28BF35
:1001500078C1FBD8520728BF30C148BF0B60704739
:100160001FB51FBD10B510BD00F058F81146FFF7C0
:10017000F7FF02F071FF00F076F803B4FFF7F2FF2B
:1001800003BC00F07DF8000009488047094800479B
:10019000FEE7FEE7FEE7FEE7FEE7FEE7FEE7FEE737
:1001A000FEE7FEE704480549054A064B7047000094
:1001B0009F2B0008ED00000850140020501A00206A
:1001C00050160020501600204FF0000200B51346D4
:1001D00094469646203922BFA0E80C50A0E80C5067
:1001E000B1F12001BFF4F7AF090728BFA0E80C5018
:1001F00048BF0CC05DF804EB890028BF40F8042B11
:1002000008BF704748BF20F8022B11F0804F18BF7D
:1002100000F8012B7047704770477047754600F033
:100220002BF8AE4605006946534620F00700854688
:1002300018B020B5FFF7B6FFBDE820404FF000062C
:100240004FF000074FF000084FF0000B21F00701BE
:10025000AC46ACE8C009ACE8C009ACE8C009ACE801
:10026000C0098D46704710B50446AFF300802046A4
:10027000BDE81040FFF781BF00487047EC13002035
:1002800001491820ABBEFEE726000200704770B59A
:10029000044600252068806800F0010018B320683B
:1002A000806820F001002168886000F021FE05468A
:1002B00013E000F01DFE401B02280ED92068806864
:1002C00000F0010048B1A06A40F01000A062E06AAE
:1002D00040F00100E062012070BD2068806800F0FD
:1002E00001000028E5D10020F6E7000038B50446FB
:1002F0000025002000902068806800F0010078BB95
:100300002068806840F00100216888601948006812
:100310001949B0FBF1F0009002E00098401E0090F7
:1003200000980028F9D100F0E3FD054619E000F03F
:10033000DFFD401B022814D92068806800F001000E
:1003400078B9A06A40F01000A062E06A40F00100B5
:10035000E06200BF002084F8240000BF012038BD07
:1003600005E02068806800F001000028DFD0002050
:10037000F5E700003C00002040420F0000BFFEE710
:10038000704710B5012000F0FFFB10BD72B600BF32
:10039000FEE70000F8B5044600260020009000BFEC
:1003A00094F82400012801D10220F8BD012084F82E
:1003B000240000BF2046FFF76AFF06462046FFF7ED
:1003C00095FF0646002E69D1A06A20F4885040F0BF
:1003D0000200A062022000F069FE34490968B1FB06
:1003E000F0F04000009002E00098401E009000985D
:1003F0000028F9D12068806840F0080021688860F2
:1004000000F076FD054616E000F072FD401B0A285C
:1004100011D92068806800F0080060B1A06A20F05F
:10042000020040F01000A06200BF002084F8240009
:1004300000BF0120B9E72068806800F008000028AC
:10044000E2D12068806840F004002168886000F0F4
:100450004FFD054616E000F04BFD401B0A2811D960
:100460002068806800F0040060B1A06A20F00200FB
:1004700040F01000A06200BF002084F8240000BFFC
:10048000012092E72068806800F004000028E2D193
:10049000A06A20F0020040F00100A06200BF00202E
:1004A00084F8240000BF30467FE700003C000020B5
:1004B00038B5024600230020009000BF92F82400C7
:1004C000012801D1022038BD012082F8240000BF9C
:1004D0004868072812D21068406B0C79641E04EB40
:1004E00084051F24AC40A0430D796D1E05EB8505E6
:1004F0000C68AC4020431468606327E048680D280E
:1005000012D21068006B0C79E41F04EB84051F24E1
:10051000AC40A0430D79ED1F05EB85050C68AC40A0
:1005200020431468206311E01068C06A0C790D3C08
:1005300004EB84051F24AC40A0430D790D3D05EB71
:1005400085050C68AC4020431468E06208680A28FE
:1005500012D31068C0680C780A3C04EB44050724E9
:10056000AC40A0430D780A3D05EB45058C68AC40D6
:1005700020431468E0600FE0106800690C7804EB19
:1005800044050724AC40A0430D7805EB45058C6875
:10059000AC402043146820610868102802D0086825
:1005A000112827D1174C1068A0421ED1106880680E
:1005B00000F40000F0B91068806840F4000014688E
:1005C000A0600868102815D10F4800680F4CB0FBD8
:1005D000F4F000EB80004000009002E00098401E24
:1005E000009000980028F9D104E0906A40F02000C3
:1005F0009062012300BF002082F8240000BF18464B
:1006000061E70000002401403C00002040420F0050
:1006100001460868C06C70472DE9F0410446002788
:1006200000250026A84614B90120BDE8F081A06885
:1006300010B1207D00B100BFA06A30B90020E06297
:1006400084F82400204600F089F82046FFF71FFEBA
:100650000746A06A00F01000002873D1002F71D166
:10066000A06A20F4885040F00200A062E16960684E
:100670000843217B40EA41000643A068B0F5807F33
:1006800002D0A068012802D14FF4807000E0002061
:100690000543207D012811D1207B38B9A069401E77
:1006A0004FF4006141EA4030054307E0A06A40F0A2
:1006B0002000A062E06A40F00100E062206840682B
:1006C00020F46940284321684860206880682149F7
:1006D0000840304321688860A068B0F5807F02D070
:1006E000A068012802D14FF4807000E00020B0F52E
:1006F000807F03D1208A401E4FEA00582068C06ADC
:1007000020F4700040EA08002168C8622068806810
:1007100011490840B04208D10020E062A06A20F0F0
:10072000020040F00100A06211E0A06A20F0020087
:1007300040F01000A062E06A40F00100E062012792
:1007400005E0FFE7A06A40F01000A06201273846EC
:100750006BE70000FDF7E1FFFE0E1FFF10B586B04E
:1007600004460020029003900490059014492068EC
:10077000884222D100BF1348806940F400701149BB
:1007800088610846806900F40070019000BF00BFD6
:1007900000BF0846806940F004008861084680690F
:1007A00000F00400019000BF00BF38200290032039
:1007B000039002A9044800F0F5F906B010BD00004E
:1007C000002401400010024000080140F8B5044632
:1007D0000D46002600200090002700F089FB064609
:1007E0002068806800F4807050B1A06A40F020005A
:1007F000A06200BF002084F8240000BF0120F8BDE3
:100800002068406800F4807020BB2068C06A00F453
:100810007000F8B917E0681CA8B125B100F068FBBA
:10082000801BA8420FD92068006800F0020050B970
:10083000A06A40F00400A06200BF002084F82400F9
:1008400000BF0320DBE72068006800F002000028FA
:10085000E1D053E0022000F029FC38490968B1FBDF
:10086000F0F021680969364A114091B92168C968D8
:100870009211114069B921680969324A114031B9B0
:100880002168C9689211114009B9142117E0292182
:1008900015E0216809692B4A114021B92168C9680E
:1008A0009211114041B121680969274A114029B9C3
:1008B0002168C968114009B9542100E0FC2100FBFE
:1008C00001F718E0681C98B125B100F011FB801BFE
:1008D000A8420DD90098B8420AD2A06A40F004009C
:1008E000A06200BF002084F8240000BF032086E738
:1008F0000098401C00900098B842E3D36FF01200BB
:1009000021680860A06A40F40070A06220688068D6
:1009100000F46020B0F5602F0DD1207B58B9A06A9B
:1009200020F48070A062A06A00F4805018B9A06A18
:1009300040F00100A062002061E700003C000020C0
:1009400024499224922449124992240070B5044605
:10095000002500BF94F82400012801D1022070BDB9
:10096000012084F8240000BF2046FFF7BFFC0546A5
:10097000002D77D1A06A40F20121884340F48070B5
:10098000A0623C492068884208D13B48006800F4D6
:10099000702008B9012002E0002000E0012078B1B9
:1009A000A06A20F48010A0622068406800F4806093
:1009B00000B3A06A20F4005040F48050A06219E017
:1009C000A06A40F48010A0622B49091F2068884269
:1009D00003D028492068884204D12748006800F4E1
:1009E000806000E0002028B1A06A20F4005040F4AC
:1009F0008050A062A06A00F4805020B1E06A20F02C
:100A00000600E06201E00020E06200BF002084F800
:100A1000240000BFC01E216808602068806800F4C0
:100A20006020B0F5602F16D112492068884208D1A5
:100A30001148006800F4702008B9012002E000208D
:100A400000E0012038B12068806840F4A0002168EF
:100A500088600CE006E02068806840F4801021681F
:100A6000886004E000BF002084F8240000BF28460E
:100A700075E70000002801400424014001460022DF
:100A800091F82100022808D00420886300BF0020CC
:100A900081F8200000BF012070470868006820F03E
:100AA0000E000B6818600868006820F001000B68F1
:100AB000186091F8403001209840CB6B58600120BD
:100AC00081F8210000BF002081F8200000BF1046FF
:100AD000E2E7000070B50446002594F821000228E2
:100AE00003D00420A063012548E02068006820F0BE
:100AF0000E00216808602068006820F0010021686D
:100B000008601F492068884201D1012026E01C4965
:100B100014312068884201D110201FE01849283183
:100B20002068884201D1801518E015493C312068C1
:100B3000884201D1801411E0114950312068884267
:100B400002D14FF4803009E00D49643120688842B9
:100B500002D14FF4801001E04FF08070084908394D
:100B60004860012084F8210000BF002084F82000A4
:100B700000BF606B10B12046616B8847284670BD8E
:100B8000080002407047000010B5044604480068A1
:100B9000204020B1024804602046FFF7F3FF10BD5B
:100BA000140401402DE9F8470346002294466EE103
:100BB0004FF0010808FA02F4D1F8008008EA0400B6
:100BC000A0427DD1DFF8DCA2D1F80480A8EB0A09AD
:100BD000D0453AD014DCB8F1030F50D009DCB8F19D
:100BE000000F31D0B8F1010F1CD0B8F1020F49D17C
:100BF00020E0B8F1110F18D0B8F1120F42D11EE069
:100C0000B9F5881F25D006DCB9F5803F20D0B9F5AD
:100C1000801F37D11AE0B9F5001F18D0B9F5041FAD
:100C200030D117E0D1F80CC02DE0D1F80C8008F1DC
:100C3000040C28E0D1F80C8008F1080C23E0D1F86E
:100C40000C8008F10C0C1EE000BF00BF00BF00BF0D
:100C500000BF00BFD1F80880B8F1000F02D14FF0FB
:100C6000040C0BE0D1F80880B8F1010F03D14FF06C
:100C7000080C1C6102E04FF0080C5C6103E04FF0CF
:100C8000000C00E000BF00BFFF2801D8984601E03B
:100C900003F104084646FF2802D84FEA820803E021
:100CA000A2F108084FEA88084746D6F800804FF0BE
:100CB0000F0909FA07F928EA09080CFA07F900E010
:100CC00088E048EA0908C6F80080D1F8048008F0F6
:100CD0008058B8F1805F7DD100BFDFF8CC81D8F8B3
:100CE000188048F00108DFF8C091C9F81880C8469C
:100CF000D8F8188008F00108CDF8008000BF00BFC8
:100D00004FEAB9384FEA920958F829504FEA8278E9
:100D10004FEA18794FF00F0808FA09F825EA080594
:100D2000DFF88881434502D14FF0000816E0DFF874
:100D30008081434502D14FF001080FE0DFF8748154
:100D4000434502D14FF0020808E0DFF86C814345CB
:100D500002D14FF0030801E04FF004084FEA827916
:100D60004FEA197908FA09F848EA0505DFF84C81D5
:100D70004FEA920948F82950D1F8048008F4801805
:100D8000B8F5801F0AD1DFF83881D8F8008048EA2A
:100D90000008DFF82C91C9F8008009E0DFF8208115
:100DA000D8F8008028EA0008DFF81491C9F800801C
:100DB000D1F8048008F40018B8F5001F10D1DFF84E
:100DC000008108F10408D8F8008048EA0008DFF83C
:100DD000F09000E05AE009F10409C9F800800DE044
:100DE000DFF8DC8008F10408D8F8008028EA000861
:100DF000DFF8CC9009F10409C9F80080D1F804802B
:100E000008F40038B8F5003F0ED1DFF8B480A8F13F
:100E10000408D8F8008048EA0008DFF8A490A9F197
:100E20000409C9F800800DE0DFF89480A8F10408F7
:100E3000D8F8008028EA0008DFF88490A9F10409B6
:100E4000C9F80080D1F8048008F48038B8F5803FF4
:100E50000ED1DFF86C80A8F10808D8F8008048EAC5
:100E60000008DFF85C90A9F10809C9F800800DE0DE
:100E7000DFF84C80A8F10808D8F8008028EA0008BC
:100E8000DFF83C90A9F10809C9F80080521CD1F89C
:100E9000008028FA02F8B8F1000F7FF489AEBDE8AF
:100EA000F887000000001110001002400008014007
:100EB000000C0140001001400014014008000140F6
:100EC00008040140024693680B400BB1012000E08A
:100ED000002070470AB1016101E00B040361704713
:100EE00002480068C0F30B0070470000002004E0D7
:100EF0000148006870470000400000200348006877
:100F000003490978084401490860704740000020FF
:100F10004800002010B50848006840F0100006495D
:100F20000860032000F0A8F8002000F007F800F0A7
:100F30002BF8002010BD00000020024070B50446D0
:100F40000E4800784FF47A71B1FBF0F00C49096853
:100F5000B1FBF0F5284600F0CFFF08B1012070BDCD
:100F6000102C07D200222146501E00F047F80548F9
:100F7000046001E00120F2E70020F0E748000020D3
:100F80003C0000204400002008B500BF11488069E3
:100F900040F001000F4988610846806900F00100B7
:100FA000009000BF00BF00BF0846C06940F08050FD
:100FB000C8610846C06900F08050009000BF00BFC3
:100FC00000BF0549486820F0E06040F000704860CC
:100FD00000BF08BD00100240000001400146084665
:100FE000002809DB00F01F0301229A4043099B00FF
:100FF00003F1E023C3F8002100BF70472DE9F05F43
:1010000080460D461646002701F0C2FF07463946C6
:101010002A46334601F00700C0F1070ABAF1040F6F
:1010200002D94FF0040A01E0C0F1070AD14600F1ED
:10103000040ABAF1070F02D24FF0000A01E0A0F152
:10104000030AD4464FF0010A0AFA09FAAAF1010A82
:101050000AEA020A0AFA0CFA4FF0010B0BFA0CFB2F
:10106000ABF1010B0BEA030B4AEA0B0421464046A5
:1010700001F096FFBDE8F09F00BF00F00702064BAD
:1010800019684FF6FF031940044B0B4343EA022152
:10109000014B196000BF70470CED00E00000FA053D
:1010A000012001490862704700000E422DE9F04717
:1010B00006464FF00008002500270024A146012E17
:1010C00031D0022E56D0102E5FD1324844680068CD
:1010D00000F0807008B33048C4F38341475C04F4E7
:1010E000803078B12B484068C0F340402B4911F85C
:1010F000008004F4803040B12948B0FBF8F000FBD8
:1011000007F502E0274807FB00F52248406800F495
:101110008000B0F5800F01D1A94603E068000321EB
:10112000B0FBF1F932E01B48046A04F44070B0F5FA
:10113000807F05D104F0020010B14FF4004918E09F
:1011400004F44070B0F5007F07D11248406A00F007
:10115000020010B149F640490BE004F44070B0F5CC
:10116000407F06D10B48006800F4003008B14FF210
:1011700024490BE000F08CF906494968C1F381313C
:10118000491C4900B0FBF1F900E000BF00BF484630
:10119000BDE8F087001002402E3300083E330008FF
:1011A00000127A0000093D00F8B50446002600252B
:1011B000207800F0010000286BD000274348C06968
:1011C00000F0805070B900BF4048C06940F08050C6
:1011D0003E49C8610846C06900F08050009000BFD9
:1011E00000BF01273A48006800F48070B0B9384861
:1011F000006840F4807036490860FFF779FE0646C3
:1012000006E0FFF775FE801B642801D90320F8BDB6
:101210002F48006800F480700028F2D02B48006A44
:1012200000F440752DB3A08800F44070A84220D08F
:101230002648006A20F440750120264908600020F5
:1012400008602248056205F0010090B1FFF750FEEA
:10125000064608E0FFF74CFE801B41F288318842C9
:1012600001D90320D3E71948006A00F002000028E2
:10127000F0D01648006A20F44070616808431349B2
:101280000862012F04D10846C06920F08050C8616F
:1012900000BF207800F00200022807D10B48406808
:1012A00020F44040A168084308494860207800F0D5
:1012B0001000102807D10548406820F48000E1683C
:1012C0000843024948600020A1E7000000100240E6
:1012D000007000404004424270B504460D460CB90F
:1012E000012070BD5A48006800F00700A8420ED2E5
:1012F0005748006820F00700284355490860084611
:10130000006800F00700A84201D00120E9E720783A
:1013100000F0020002281DD1207800F0040004280B
:1013200005D14C48406840F4E0604A494860207864
:1013300000F00800082805D14648406840F4605095
:10134000444948604348406820F0F000A1680843E1
:1013500040494860207800F0010078B360680128B7
:1013600006D13C48006800F4003090B90120B8E78D
:101370006068022806D13748006800F0007040B964
:101380000120AEE73348006800F0020008B90120F0
:10139000A7E73048406820F00300616808432D4902
:1013A0004860FFF7A5FD064609E0FFF7A1FD801B99
:1013B00041F28831884202D9032092E707E02548AC
:1013C000406800F00C006168B0EB810FEDD120485F
:1013D000006800F00700A8420ED91D48006820F000
:1013E000070028431A4908600846006800F0070013
:1013F000A84201D0012074E7207800F004000428FE
:1014000007D11448406820F4E060E16808431149BE
:101410004860207800F00800082808D10D4840688E
:1014200020F46050216940EAC1000A49486000F098
:101430003FF808494968C1F30311074A515CC840A5
:101440000649086006480068FFF778FD002048E775
:101450000020024000100240043300083C0000203D
:101460004400002001480068704700003C00002054
:1014700000B5FFF7F7FF04494968C1F30221034AA9
:10148000515CC84000BD0000001002401433000849
:1014900000B5FFF7E7FF04494968C1F3C221034AD9
:1014A000515CC84000BD0000001002401433000829
:1014B00070B500210022002400230020134D69682C
:1014C00001F00C05F5B1042D02D0082D19D101E071
:1014D0000F4819E00F4DC1F38346AB5D01F4803531
:1014E00055B10A4D6D68C5F340450B4E725D084D10
:1014F0005D43B5FBF2F402E0084D03FB05F4204622
:1015000002E000BF024800BF00BF70BD00100240F3
:1015100000127A001C3300082C33000800093D003B
:10152000F8B504460CB90120F8BD207800F00100A0
:10153000002878D0F848406800F00C0004280CD04F
:10154000F548406800F00C00082811D1F2484068C6
:1015500000F48030B0F5803F0AD1EF48006800F415
:10156000003000285FD0606800285CD10120DBE7F4
:1015700000BF6068B0F5803F06D1E748006840F4DE
:101580008030E549086028E0606858B9E2480068A2
:1015900020F48030E04908600846006820F480208C
:1015A00008601AE06068B0F5A02F0BD1DA48006837
:1015B00040F48020D84908600846006840F4803034
:1015C00008600AE0D448006820F48030D2490860FE
:1015D0000846006820F48020086000BF606888B179
:1015E000FFF786FC054606E0FFF782FC401B6428F7
:1015F00001D9032098E7C848006800F400300028AB
:10160000F2D010E0FFF774FC054606E0FFF770FC2F
:10161000401B642801D9032086E7BF48006800F416
:1016200000300028F2D1207800F00200022857D1C3
:10163000B948406800F00C0050B1B748406800F06D
:101640000C00082818D1B448406800F4803098B9DC
:10165000B148006800F0020020B12069012801D0E3
:10166000012061E7AC48006820F0F800616940EAB9
:10167000C100A949086033E02069E8B10120A74909
:101680000860FFF735FC054606E0FFF731FC401B1C
:10169000022801D9032047E79F48006800F00200B4
:1016A0000028F2D09C48006820F0F800616940EA08
:1016B000C1009949086013E0002098490860FFF7CD
:1016C00017FC054606E0FFF713FC401B022801D972
:1016D000032029E79048006800F002000028F2D1BA
:1016E000207800F0080008282DD1A069B8B10120A9
:1016F0008B490860FFF7FCFB054606E0FFF7F8FBA7
:10170000401B022801D903200EE78348406A00F0FD
:1017100002000028F2D0012000F0C4FF13E00020F6
:101720007F490860FFF7E4FB054606E0FFF7E0FBB2
:10173000401B022801D90320F6E67748406A00F0F2
:1017400002000028F2D1207800F00400042873D1B0
:1017500000277148C06900F0805070B900BF6E4822
:10176000C06940F080506C49C8610846C06900F00B
:101770008050009000BF00BF01276A48006800F455
:101780008070B0B96748006840F4807065490860AF
:10179000FFF7AEFB054606E0FFF7AAFB401B6428F7
:1017A00001D90320C0E65F48006800F4807000287B
:1017B000F2D000BFE068012806D15748006A40F027
:1017C00001005549086227E0E06858B95248006AAC
:1017D00020F00100504908620846006A20F0040029
:1017E000086219E0E06805280BD14B48006A40F018
:1017F0000400494908620846006A40F00100086296
:101800000AE04548006A20F00100434908620846A2
:10181000006A20F00400086200BFE068A0B1FFF792
:1018200067FB054609E0FFF763FB401B41F2883187
:10183000884202D9032077E622E03748006A00F0A8
:1018400002000028EFD012E0FFF752FB054608E047
:10185000FFF74EFB401B41F28831884201D903203B
:1018600062E62D48006A00F002000028F0D1012F46
:1018700005D12948C06920F080502749C86100BFC0
:10188000E069C8B32448406800F00C00082860D024
:10189000E069022848D1002020490866FFF728FBAC
:1018A000054606E0FFF724FB401B022801D9032070
:1018B0003AE61948006800F000700028F2D1206A6A
:1018C000B0F5803F07D11448406820F40030A1688B
:1018D000084311494860D4E9080108430E494968A2
:1018E00021F4741108430C49486001200B49086633
:1018F000FFF7FEFA054607E03DE0FFF7F9FA401B67
:10190000022801D903200FE60348006800F00070A8
:101910000028F2D02FE000000010024000004242F8
:101920008004424200700040002014490866FFF71E
:10193000DFFA054606E0FFF7DBFA401B022801D973
:101940000320F1E50E48006800F000700028F2D195
:1019500011E0E069012800D1E6E50948466806F48F
:101960008031206A814204D106F47011606A81429C
:1019700001D00120D8E50020D6E500000000424259
:10198000001002407047000010B50446206800684F
:10199000C0F3400068B120684068C0F3400040B127
:1019A0002046FFF7EFFF2068406820F00200216822
:1019B00048604FF40030024908600120607410BD97
:1019C000140401402DE9F04780460C46914600255D
:1019D0000026AA460027B8F1000F00D014B9012054
:1019E000BDE8F087D8F800004068C0F3800008B177
:1019F0000120F5E7404600F084FF05464FF46160A2
:101A0000B5FBF0F7B5FBF0F100FB11503C21B0FB4A
:101A1000F1F060704FF46160B5FBF0F100FB115024
:101A20003C21B0FBF1F201FB1200A070182F39D35A
:101A30001820B7FBF0FAB7FBF0F100FB1170207033
:101A4000404600F052FF0646701C18B1AE4201D964
:101A5000761B01E04FF0FF360AEB4A00C000C0EBF6
:101A60004011C1EB0020A5EB00152946404601F0CE
:101A700004F808B10120B3E7701C38B12E44314698
:101A8000404600F0E3FF40B10120A9E7314640465F
:101A900000F0DCFF08B10120A2E75146404600F00B
:101AA00041FE00E02770B9F1000F0BD0207800F064
:101AB0002CFE2070607800F028FE6070A07800F0A6
:101AC00024FEA07000208BE770B5044600250CB9F9
:101AD000012070BD607C20B900202074204600F0F9
:101AE00053F802206074204600F0E6F918B1042093
:101AF00060740120EDE7204600F06FFE18B104206D
:101B000060740120E5E72068406820F00700216844
:101B10004860A06828B11B48006820F001001949FE
:101B200008601848001F006820F46070A16808432E
:101B30001449091F08606068401C08B1656809E025
:101B40000120FFF7B3FA05461DB904206074012097
:101B5000BFE76D1EC5F3034021688860A8B2216805
:101B6000C860204600F056FE18B1042060740120C1
:101B7000AFE70021E17301216173A173012060745B
:101B80000020A6E7306C004038B504460F492068B5
:101B900088421AD1FFF784FA00BF0D48C06940F0AF
:101BA00000600B49C8610846C06900F00060009001
:101BB00000BF00BF01200749086000220121292041
:101BC000FFF71CFA2920FFF709FA38BD002800406A
:101BD000001002403C0442422DE9F84304460D4601
:101BE000174600260020009004B115B90120BDE879
:101BF000F88300BF207C012801D10220F7E70120F3
:101C0000207400BF02206074002269462046FFF75E
:101C1000D9FE08B10120EAE79DF800004FF46161A8
:101C200048439DF80110C1EB011100EB81009DF8C4
:101C3000021000EB01085FB928784FF46161484356
:101C40006978C1EB011100EB8100A978461812E018
:101C5000287800F04FFD4FF4616100FB01F96878CE
:101C600000F048FDC0EB001009EB8009A87800F0F7
:101C700041FD09EB0006464501D2184806443146AD
:101C8000204600F0E3FE38B10420607400BF00205D
:101C9000207400BF0120AAE72068406820F00200FD
:101CA000216848602068006840F0020021680860F0
:101CB0000B48006840F400300949086008480830C3
:101CC000006840F400300649083108600120607463
:101CD00000BF0020207400BF00BF88E780510100D2
:101CE000000401402DE9F04704460D4690460026C9
:101CF0000027B14604B115B90120BDE8F08700BF47
:101D0000207C012801D10220F7E70120207400BFC8
:101D100002206074B8F1000F06D1E978E1736978A8
:101D20006173A978A1730BE0E87800F0E3FCE0733D
:101D3000687800F0DFFC6073A87800F0DBFCA0732B
:101D4000A27B617BE07B00F03FFE2073207B28704C
:101D5000204600F0D6FD06464FF46160B6FBF0F970
:101D6000B9F1180F2FD91820B9FBF0F000EB4000A3
:101D7000C000C0EB4011C1EB0020A6EB00163146BD
:101D8000204600F07AFE38B10420607400BF0020C5
:101D9000207400BF0120B0E7204600F0A6FD0746F2
:101DA000781C80B1B7420ED20B4807443946204612
:101DB00000F04CFE38B10420607400BF0020207495
:101DC00000BF012099E70120607400BF002020744B
:101DD00000BF00BF91E70000805101002DE9F047EE
:101DE00004460D4690460026002704B115B901208F
:101DF000BDE8F08700BF207C012801D10220F7E771
:101E00000120207400BF02206074B8F1000F0BD1D4
:101E100028784FF4616148436978C1EB011100EB08
:101E20008100A978461812E0287800F063FC4FF48E
:101E3000616100FB01F9687800F05CFCC0EB001008
:101E400009EB8009A87800F055FC09EB0006314643
:101E5000204600F012FE38B10420607400BF00205C
:101E6000207400BF0120C3E72068406820F005000F
:101E700021684860204600F038FD0746781C80B194
:101E8000B7420ED20B4807443946204600F0DEFD2B
:101E900038B10420607400BF0020207400BF01200E
:101EA000A6E70120607400BF0020207400BF00BFBF
:101EB0009EE700008051010070B5044600250CB972
:101EC000012070BD2068406820F00800216848604B
:101ED000FFF70EF8054607E0FFF70AF8401BB0F5DC
:101EE0007A7F01D90320ECE72068406800F0080001
:101EF0000028F1D00020E4E770B504462546681EAE
:101F0000B0F1807F01D301200FE0681E4FF0E02187
:101F100048610F214FF0FF3001F042F800204FF0F0
:101F2000E021886107200861002070BD704770477C
:101F30002DE9F84F0446206805682068C6682068C7
:101F400047694FF00009CA4605F00F09B9F1000FC3
:101F50000AD105F0200038B106F0200020B120465B
:101F600000F06EFEBDE8F88FB9F1000F7BD007F0EE
:101F7000010018B906F49070002874D005F0010033
:101F800030B106F4807018B1606C40F001006064FC
:101F900005F0040030B107F0010018B1606C40F0AA
:101FA0000200606405F0020030B107F0010018B1D2
:101FB000606C40F00400606405F0080048B106F071
:101FC000200010B907F0010018B1606C40F0080063
:101FD0006064606C002845D005F0200028B106F050
:101FE000200010B1204600F02BFE20684069C0F3AD
:101FF000801A606C00F0080010B9BAF1000F2CD004
:10200000204600F0D7FD2068406900F0400000B392
:1020100000BF00BF2168143151E8001F21F04000CB
:102020002168143141E80002002AF3D100BFE06BBF
:1020300050B17748E16B4863E06BFEF74BFD88B128
:10204000E06B416B88470DE02046FFF770FF09E029
:1020500009E02046FFF76BFF04E02046FFF767FF2B
:10206000002060647EE7206B012877D105F0100026
:10207000002873D006F010000028FAD000BF00201E
:10208000009020680068009020684068009000BFC1
:1020900000BF2068406900F0400000285FD0E06B7E
:1020A000006840681FFA80F8B8F1000F55D0A08D85
:1020B000404552DDA4F82E80E06B8069202843D093
:1020C00000BF00BF21680C3151E8001F21F480706F
:1020D00021680C3141E80002002AF3D100BF00BFA3
:1020E00000BF2168143151E8001F21F00100216870
:1020F000143141E80002002AF3D100BF00BF00BF45
:102100002168143151E8001F21F04000216814318A
:1021100041E80002002AF3D100BF202084F84200E9
:102120000020206300BF00BF21680C3151E8001F70
:1021300021F0100021680C3141E80002002AF3D19F
:1021400000BFE06BFEF79AFC02206063A08DE28D79
:10215000801A81B22046FFF7E9FE03E742E0A08D36
:10216000E18D401A1FFA80F8E08DD0B3B8F1000F6E
:1021700037D000BF00BF21680C3151E8001F21F4A7
:10218000907021680C3141E80002002AF3D100BFB1
:1021900000BF00BF2168143151E8001F21F0010089
:1021A0002168143141E80002002AF3D100BF202049
:1021B00084F842000020206300BF00BF21680C317A
:1021C00051E8001F21F0100021680C3141E80002A5
:1021D000002AF3D100BF0220606341462046FFF78A
:1021E000A5FEBFE605F0800030B106F0800018B112
:1021F000204600F021FEB5E605F0400030B106F0C3
:10220000400018B1204600F00BFDABE600BFA9E688
:10221000A12B000810B504460CB9012010BDA0691F
:1022200000B100E000BF94F8410028B9002084F814
:102230004000204600F02AF8242084F8410020685D
:10224000C06820F400502168C860204600F076FD88
:102250002068006920F49040216808612068406986
:1022600020F02A00216848612068C06840F40050CE
:102270002168C86000206064202084F8410084F850
:1022800042000020606300BFC8E7000010B586B0C0
:102290000446002002900390049005901E49206897
:1022A000884236D100BF1D48806940F480401B49F8
:1022B00088610846806900F48040019000BF00BF3B
:1022C00000BF0846806940F00400886108468069C4
:1022D00000F00400019000BF00BF481502900220EA
:1022E00003900320059002A90D48FEF75BFC4FF414
:1022F0008060029000200390049002A90848FEF735
:1023000051FC002201212520FEF778FE2520FEF752
:1023100065FE06B010BD000000380140001002400C
:102320000008014070472DE9F84F04460E46174655
:1023300099464FF0000A94F84100202850D106B188
:1023400017B90120BDE8F88F00206064212084F8CF
:102350004100FEF7CDFD8246A784E784A068B0F572
:10236000805F04D1206910B90025B04602E03546EF
:102370004FF000081EE05346002280212046CDF891
:10238000009000F089FD20B1202084F84100032056
:10239000D8E745B9B8F80000C0F3080021684860E4
:1023A00008F1020803E02878216848606D1CE08C81
:1023B000401EE084E08C0028DDD1534600224021FD
:1023C0002046CDF8009000F067FD20B1202084F871
:1023D00041000320B6E7202084F841000020B1E747
:1023E0000220AFE7704700BFFEE700000EB50020F7
:1023F00000900190029020482049086081151F48F4
:102400008160002101730121017581614FF4602118
:10241000C161002019494860032118480161FEF795
:10242000FBF808B1FDF7B2FF0320009001200190F6
:102430000020029069461148FEF73AF808B1FDF70E
:10244000A5FF042000900220019069460B48FEF78A
:102450002FF808B1FDF79AFF0520009003200190A6
:1024600069460648FEF724F808B1FDF78FFF0348D8
:10247000FDF790FF0EBD0000002401404801002040
:1024800000B585B00020019002900390049000BF39
:102490004D48806940F010004B49886108468069CA
:1024A00000F01000009000BF00BF00BF0846806928
:1024B00040F0200088610846806900F0200000900C
:1024C00000BF00BF00BF0846806940F0040088617B
:1024D0000846806900F00400009000BF00BF00BF04
:1024E0000846806940F0080088610846806900F06D
:1024F0000800009000BF00BF012202213348FEF710
:10250000E9FC00224FF440613148FEF7E3FC4FF450
:10251000604001900320029001A92E48FEF742FB83
:10252000012001902C4802900020039001A9274827
:10253000FEF738FB02200190012002900390022058
:10254000049001A92148FEF72DFB49F6C410019023
:102550000320029001A91D48FEF724FB48F2FF204A
:1025600001900320029001A91948FEF71BFB4FF4CC
:10257000406001900120029000200390022004900E
:1025800001A91348FEF70EFB4FF4E0400190002034
:1025900002900220039001A90D48FEF703FB4FF4BF
:1025A000807001900C4802900220039001A9084815
:1025B000FEF7F8FA002201210620FEF71FFD062093
:1025C000FEF70CFD05B000BD001002400008014000
:1025D000000C014000100140000011101CB501204A
:1025E000FEF764FD1B4908600020019000901A4826
:1025F0001A4908604FF0FF3048604FF48071174867
:102600008160FFF761FA08B1FDF7C0FE00208DF888
:1026100004008DF805008DF80600002201A90F487E
:10262000FFF7DCFB08B1FDF7B1FE00208DF80000DC
:1026300006208DF8010001208DF8020000208DF8A1
:102640000300002269460548FFF74CFB08B1FDF77F
:102650009DFE1CBD2C0000200028004078010020B9
:1026600010B50B480B4908604FF416504860002124
:1026700008488160C16001610C21416100218161D4
:10268000C161FFF7C7FD08B1FDF780FE10BD000076
:10269000003801408C03002000BFFEE700BFFEE7CA
:1026A0007047000008B508490968C9084FF47A72F4
:1026B000B1FBF2F14143009100BF00BF00994A1EF7
:1026C00000920029F9D108BD3C00002010B5054852
:1026D000FFF75AF9012004490870044800680449CA
:1026E000086010BD78010020150000204000002087
:1026F00018000020014600BF080900EB80004200DE
:1027000001F00F001044C0B270470146002203E000
:10271000521CA1F10A00C1B20A29F9D2100741EAFC
:10272000106070472DE9F0470646884600270024D0
:102730000025A146F77B747BB57B00BF40E0012CF0
:102740000BD0032C09D0052C07D0072C05D0082C62
:1027500003D00A2C01D00C2C0CD11F2D01D26D1CE2
:102760002CE00C2C02D0641C012527E0012401255B
:102770007F1C23E0042C05D0062C03D0092C01D0AB
:102780000B2C06D11E2D01D26D1C17E0641C0125F7
:1027900014E0022C12D11C2D01D26D1C0EE01C2D58
:1027A00008D1B8B200F088F808B16D1C06E0641CCE
:1027B000012503E01D2D01D1641C012509F101094A
:1027C000C145BCD3F7737473B573EAB2E1B238464E
:1027D00000F0FAF83073BDE8F08770B504460025C4
:1027E000FEF786FB054607E0FEF782FB401BB0F5CF
:1027F0007A7F01D9032070BD2068406800F0200076
:102800000028F1D02068406840F01000216848603E
:102810000020F0E770B5044600252068406820F0ED
:10282000100021684860FEF763FB054607E0FEF7ED
:102830005FFB401BB0F57A7F01D9032070BD206893
:10284000406800F020000028F1D00020F6E70000EA
:10285000F8B500BF002269461448FFF7B3F89DF8A9
:1028600002009DF80110C1EB011100EB81009DF801
:102870000010C1EB4112C2EB012100EB01144FF437
:102880007A7044430A4800680949091F096840EA08
:10289000014508480068401B4FF47A7148430549D8
:1028A0000968B0FBF1F6A019F8BD0000780100201E
:1028B000142800402C000020014601F0030008B15C
:1028C000002070476420B1FBF0F200FB121008B149
:1028D0000120F6E74FF4C870B1FBF0F200FB1210D4
:1028E00008B90120EDE70020EBE7014600220023B4
:1028F0000868006A82B20868406A83B243EA02400C
:10290000704730B5014600220023002400200D68E6
:10291000AD69AAB20D68ED69ACB20D68AD69ABB234
:102920009A4205D00D68ED6963F31F45284601E022
:1029300044EA024030BD00000EB5002202A90D4855
:10294000FFF740F8782102A800F016F80020019067
:102950009DF808008DF800009DF809008DF8010031
:102960009DF80A008DF80200002269460148FFF731
:1029700033F90EBD7801002070B501220123012436
:1029800045F26045A94200DD294685786A183C2554
:1029900092FBF5F54678AB193C2593FBF5F50678E7
:1029A000AC193C2592FBF5F605FB162585703C25F8
:1029B00093FBF5F605FB16354570182594FBF5F6E7
:1029C00005FB1645057070BDF0B504460B460021A9
:1029D000002504F5FA61032B1BD2C3EBC30000EB07
:1029E00003100926B0FBF6F01044001D4618481EDF
:1029F00006EB90066427B0FBF7F0361A481EBF00BE
:102A0000B0FBF7F030440726B0FBF6F706FB1705DE
:102A10001AE0C3EBC30000EB03100926B0FBF6F08D
:102A20001044001D084400EB91006426B1FBF6F64B
:102A3000801B4FF4C876B1FBF6F63044801E0726A3
:102A4000B0FBF6F706FB1705E8B2F0BD70B504461B
:102A50000D4600262046FFF7C0FE08B101260AE019
:102A6000280C21680862A8B2216848622046FFF756
:102A7000D1FE00B10126304670BD70B504460D464A
:102A800000262046FFF7A9FE08B101260AE0280C1F
:102A900021688861A8B22168C8612046FFF7BAFEA4
:102AA00000B10126304670BD7047000010B5FEF73A
:102AB00025FA134800684FF4FA71B0FBF1F201FBFC
:102AC000120088B90E4800684900B0FBF1F201FB22
:102AD000120008B1012000E00020044622464FF415
:102AE00000610848FEF7F6F905480068401C0449F3
:102AF000086005480078012801D10449087010BD1C
:102B000038000020000C0140140000201C000020B0
:102B100000B593B0282109A8FDF756FB142104A89D
:102B2000FDF752FB002000900190029003900920D5
:102B300009904FF480300A9000200B9001200D90F6
:102B40000F9002201090C10311914FF4E0111291E7
:102B500009A8FEF7E5FC08B1FDF718FC0F2004906A
:102B600002200590002006904FF48060079000201E
:102B70000890022104A8FEF7AFFB08B1FDF706FCA0
:102B8000032000904FF4007001908001029068468D
:102B9000FEF70AFB08B1FDF7F9FB13B000BD704763
:102BA00070B505466C6A0020E085E0842046FFF79A
:102BB000BEF970BD00BF00BF02680C3252E8002FA2
:102BC00022F4907102680C3242E80013002BF3D11A
:102BD00000BF00BF00BF0268143252E8002F22F08D
:102BE00001010268143242E80013002BF3D100BF48
:102BF000016B01290ED100BF00BF02680C3252E800
:102C0000002F22F0100102680C3242E80013002B62
:102C1000F3D100BF202180F84210002101637047EA
:102C200010B504462068C06820F040002168C860E4
:102C3000202084F841002046FFF7D4FB002010BD7F
:102C4000F8B5044694F84200222875D1A068B0F582
:102C5000805F0CD1206950B90025A66A20684068C1
:102C6000C0F308003080A06A801CA06215E0A56A4D
:102C70000026A068B0F5805F03D0A06828B920695D
:102C800018B920684068287004E02068406800F0A7
:102C90007F002870A06A401CA062E08D401E80B2B8
:102CA000E085002846D12068C06820F02000216817
:102CB000C8602068C06820F480702168C8602068FF
:102CC000406920F0010021684861202084F842001A
:102CD00000206063206B012826D10020206300BF04
:102CE00000BF21680C3151E8001F21F0100021685D
:102CF0000C3141E80002002AF3D100BF20680068CF
:102D000000F0100010280AD100BF002000902068B9
:102D10000068009020684068009000BF00BFA18D4F
:102D20002046FFF703F902E02046FFF7FBFA0020F8
:102D3000F8BD01E00020FBE70220F9E770B504468A
:102D40002168096921F44051E26811432268116148
:102D50002269A1681143626941EA02052168C968D4
:102D600041F20C62914329432268D160216849698C
:102D700021F44071A2691143226851612D4A2168F2
:102D8000914202D1FEF784FB01E0FEF771FB00EBFC
:102D9000C00101EB001162689200B1FBF2F100EB9F
:102DA000C00202EB001263689B00B2FBF3F26423E3
:102DB000B2FBF3F202EBC20303EB0212A1EB8201BE
:102DC000322202EB01116422B1FBF2F101F0F001B9
:102DD00000EBC00202EB001263689B00B2FBF3F24F
:102DE0006423B2FBF3F201EB021200EBC00101EB32
:102DF000001163689B00B1FBF3F100EBC00303EB30
:102E000000136668B600B3FBF6F36426B3FBF6F373
:102E100003EBC30606EB0313A1EB8301322303EBA1
:102E200001116423B1FBF3F101F00F011144226899
:102E3000916070BD00380140014691F841002128A1
:102E400028D18868B0F5805F0BD1086948B90A6A53
:102E50001088C0F308000B685860086A801C08627C
:102E600005E00B6A581C086218780B685860C88C1B
:102E7000401E80B2C88458B90868C06820F080003D
:102E80000B68D8600868C06840F040000B68D860E4
:102E9000002070470220FCE72DE9F84304460D4668
:102EA00017469846089E31E0701C70B3FEF720F874
:102EB000A0EB0800B04200D816B90320BDE8F883A3
:102EC0002068C06800F00400F8B1802D1ED0402DAD
:102ED0001CD020680068C0F3C000B0B100BF002063
:102EE000009020680068009020684068009000BF53
:102EF00000BF2046FFF75EFE0820606400BF002090
:102F000084F8400000BF0120D8E7FFE72068006890
:102F10002840A84201D1012000E00020B842C3D0DF
:102F20000020CBE710B51448FFF702F813480068FB
:102F300000F0200020281DD1104A121D1268D1B2C5
:102F40000F4A1288521CC2F308000E4A12689042BF
:102F500004D00D4A11540A4A10600AE00A4A11547A
:102F6000074A1060074A1288521CC2F30802054B38
:102F70001A6000BF10BD00008C0300200038014023
:102F800034000020300000208C01002000BFFEE74C
:102F900002480068C0F30220704700000CED00E01A
:102FA00010B5002804DB0A07130E054A135406E087
:102FB0000A07140E034A00F00F031B1FD45410BD60
:102FC00000E400E018ED00E0002114480068134A16
:102FD000528A1044114AD2681044104A128A10448E
:102FE0000E4A526810440D4A926810440144002071
:102FF0000EE00B4A32F83020094B03EBC0035B882C
:103000001A44074B03EBC0035B681A441144401C8D
:10301000024A528A8242ECDC08467047D403002000
:10302000EC03002010B500F001F810BD10B5074802
:103030000749086000208860C860088248614882AB
:103040004FF480510348FDF7BFF810BD55AA55AAAB
:10305000D4030020EC030020FDF75CFFFDF740FFE8
:1030600039490860FFF754FD002038490870FFF720
:1030700007FAFFF7BBF9FFF7F3FAFFF7AFFA012002
:1030800032490870FFF758FCFFF7D0FF5BE0FFF70D
:10309000DFFB2F4908602F480078012849D12E48CE
:1030A00002784FF480612D48FDF714FF2A4800682C
:1030B00008B9012000E00020274908604FF40051C2
:1030C0002648FDF7FFFE08B1012000E00020D0B146
:1030D0004FF480512148FDF7F5FE08B1012000E0D2
:1030E000002080B1002000F065F8FFF7B1FB044636
:1030F00021461B48008800F0D3F8FFF71DFC002094
:103100001449087015E01748006817490968401A03
:103110004EF6602188420CD21248006812490968B4
:10312000401A1249884204D3FFF706FC00200949DF
:1031300008700F480078012804D100F03BF8002007
:103140000B49087000BFA2E72000002014000020F7
:10315000240000201500002028000020000C014061
:10316000100000204000002018000020C0D4010002
:103170001C00002010B50D4B5B8AB3F5007F13DAFD
:103180000A4B5B8A0A4C24F83300084B5B8A04EB39
:10319000C3035980054B5B8A04EBC3035A60034B9E
:1031A0005B8A5B1C014C638210BD0000D4030020CD
:1031B000EC03002070B5054600240EE02D48FDF715
:1031C000C5FB64212B48FDF701FB28B92948FDF711
:1031D0001FFA294941F82400641C032CEEDB264821
:1031E000008826490880244800882549088022480C
:1031F0000088244908804DB1FFF72AFB0446224687
:103200001F4801881D480088FFF7B4FF1A4800884E
:103210001D491E4A126821F81200174880881C496F
:103220001C4A126821F81200134800891A491B4AE7
:10323000126821F8120015480068401C2821B0FBD4
:10324000F1F201FB12001149086012480068401CAD
:103250002821B0FBF1F201FB12000E4908600F4873
:103260000068401C2821B0FBF1F201FB12000B4961
:10327000086070BD480100203C0100200C000020C7
:103280000E000020100000204C0000200000002054
:103290009C00002004000020EC000020080000201A
:1032A00070B504460D4613480482C5601248006894
:1032B000104948600846408A182101EBC0000D49BA
:1032C0008860FFF781FE0B494861642318220B4890
:1032D000FFF729F80748408A002808DD0548408A9A
:1032E000C004020C642306490448FFF71CF8FFF7EA
:1032F00099FE70BDD4030020200000208C03002024
:10330000EC030020000000000000000001020304A4
:103310000607080900000000010203040203040577
:10332000060708090A0B0C0D0E0F1010010202030C
:103330000405060708090A0B0C0D0E0F10100102F8
:1033400060330008000000204C0000002801000845
:10335000AC3300084C000020041A000044010008AF
:10336000000000000000000000000000000000005D
:10337000000000000000000000000000000000004D
:10338000000000000000000001000000010000003B
:1033900000000000000000000000000000127A00A1
:0C33A00000000000100000000100000010
:04000005080000ED02
:00000001FF
